:020000040800F2
:1000000000000220C52600080D2700080D27000863
:100010000D2700080D2700080D270008000000002C
:100020000000000000000000000000000D27000894
:100030000D270008000000000D270008A503000898
:100040000D2700080D2700080D2700080D270008C0
:100050000D2700080D2700080D2700080D270008B0
:100060000D2700080D2700080D2700080D270008A0
:100070000D2700080D2700080D2700080D27000890
:100080000D2700080D2700080D2700080D27000880
:100090000D2700080D2700080D2700080D27000870
:1000A0000D2700080D2700080D2700080D27000860
:1000B0000D2700080D2700080D2700080D27000850
:1000C0000D2700080D2700080D2700080D27000840
:1000D0000D2700080D2700080D2700080D27000830
:1000E0000D2700080D2700080D2700080D27000820
:1000F0000D2700080D2700080D2700080D27000810
:100100000D2700080D2700080D2700080D270008FF
:100110000D2700080D2700080D2700080D270008EF
:100120000D2700080D2700080D2700080D270008DF
:100130000D2700080D2700080D2700080D270008CF
:100140000D2700080D2700080D2700080D270008BF
:100150000D2700080D2700080D2700080D270008AF
:100160000D2700080D2700080D2700080D2700089F
:100170000D2700080D2700080D2700080D2700088F
:040180000D2700083F
:1001840010B5054C237833B9044B13B10448AFF3CD
:1001940000800123237010BD5804002000000000DB
:1001A4000C2A0008084B10B51BB108480849AFF3E6
:1001B40000800848036803B910BD074B002BFBD02F
:1001C400BDE81040184700BF000000000C2A0008DA
:1001D4005C0400205404002000000000154B002B98
:1001E40008BF134B9D46A3F5803A00218B460F466A
:1001F4001348144A121A02F0C1FA0F4B002B00D014
:1002040098470E4B002B00D0984700200021040093
:100214000D000D48002802D00C4802F071FB02F0DA
:1002240085FA2000290000F065F802F06FFA00BF9B
:1002340000000800000000000000000000000000B2
:10024400580400207804002005290008112900081A
:1002540080B483B000AF03463960FB7197F907306F
:10026400002B0BDA0D49FB7903F00F03043B3A68CA
:10027400D2B21201D2B20B441A7609E0084997F9B6
:1002840007303A68D2B21201D2B20B4483F8002389
:100294000C37BD465DF8047B704700BF00ED00E0FD
:1002A40000E100E080B582B000AF78607B68B3F114
:1002B400807F01D3012311E00A4A7B6823F07F4346
:1002C400013B53604FF0FF300F21FFF7C1FF054B97
:1002D40000229A60034B07221A600023184608374D
:1002E400BD4680BD10E000E080B483B000AF78600C
:1002F4003960FEE780B582B000AF0220012101F031
:1003040095FD03233B6002237B7101233B71002392
:10031400BB710123FB713B461448194600F01CFADB
:10032400134B1B68134AA2FB03239B091846FFF7D0
:10033400B9FF0346002B00D0FEE70C48012100F072
:1003440053FD0A48022100F04FFD4FF47A7000F08B
:1003540013F80648012100F099FD0448022100F039
:1003640095FD4FF47A7000F007F8E6E700040240C8
:1003740004000020D34D621080B483B000AF7860D5
:10038400064A7B68136000BF044B1B68002BFBD13B
:100394000C37BD465DF8047B704700BF7404002031
:1003A40080B400AF044B1B68013B034A1360BD4695
:1003B4005DF8047B704700BF7404002080B500AF73
:1003C400114A114B1B6843F0010313600E4B0022CA
:1003D4009A600D4A0C4B1B6823F0847323F480331A
:1003E4001360094B094A5A60074A074B1B6823F4F8
:1003F40080231360044B0022DA6000F087F8044B7A
:100404004FF000629A6080BD003802401030002432
:1004140000ED00E080B487B000AF00233B6100230F
:100424007B610223FB600023BB6002237B60324BB1
:100434009B6803F00C033B613B69042B07D0082B3A
:1004440009D0002B3FD12D4B2D4A1A603FE02B4B96
:100454002C4A1A603BE0284B5B6803F480039B0D35
:10046400BB60254B5B6803F03F037B60BB68002BDC
:100474000DD0244A7B68B2FBF3F21F4B596847F650
:10048400C0730B409B0903FB02F37B610CE01C4A25
:100494007B68B2FBF3F2184B596847F6C0730B4004
:1004A4009B0903FB02F37B61134B5B6803F440334A
:1004B4001B0C01335B00FB607A69FB68B2FBF3F34E
:1004C4000E4A136003E00D4B0D4A1A6000BF0A4B3D
:1004D4009B6803F0F0031B090B4AD35CDBB23B615E
:1004E400064B1A683B6922FA03F3044A13601C376B
:1004F400BD465DF8047B70470038024004000020CC
:100504000024F40040787D010800002080B483B00A
:1005140000AF00237B6000233B602F4A2E4B1B68F7
:1005240043F4803313602C4B1B6803F400333B60AB
:100534007B6801337B603B68002B03D17B68B3F598
:10054400A06FF0D1244B1B6803F40033002B02D0BE
:1005540001233B6001E000233B603B68012B36D163
:100564001D4A1D4B9B6893601B4A1B4B9B6843F4BD
:1005740000439360184A184B9B6843F4A05393605C
:10058400154B164A5A60144A134B1B6843F0807388
:10059400136000BF104B1B6803F00073002BF9D0ED
:1005A4000F4B40F203721A600B4A0B4B9B6823F00B
:1005B40003039360084A084B9B6843F0020393606B
:1005C40000BF054B9B6803F00C03082BF9D10C37D3
:1005D400BD465DF8047B704700380240193C400575
:1005E400003C024080B582B000AF78607B68504A1E
:1005F400934223D07B684F4A93421FD07B684E4A74
:1006040093421BD07B684D4A934217D07B684C4A77
:10061400934213D07B684B4A93420FD07B684A4A7B
:1006240093420BD07B68494A934207D07B68484A7F
:10063400934203D047488221FFF756FE7B683C4A29
:10064400934208D10120012101F004FD0120002181
:1006540001F000FD68E07B68364A934208D102202D
:10066400012101F0F7FC0220002101F0F3FC5BE022
:100674007B68314A934208D10420012101F0EAFC4D
:100684000420002101F0E6FC4EE07B682B4A9342F3
:1006940008D10820012101F0DDFC0820002101F02F
:1006A400D9FC41E07B68264A934208D110200121FD
:1006B40001F0D0FC1020002101F0CCFC34E07B6878
:1006C400204A934208D12020012101F0C3FC2020BC
:1006D400002101F0BFFC27E07B681B4A934208D14C
:1006E4004020012101F0B6FC4020002101F0B2FCC1
:1006F4001AE07B68154A934208D18020012101F059
:10070400A9FC8020002101F0A5FC0DE07B68104AC3
:10071400934209D14FF48070012101F09BFC4FF406
:100724008070002101F096FC0837BD4680BD00BFF3
:10073400000002400004024000080240000C024095
:10074400001002400014024000180240001C024045
:1007540000200240E029000880B586B000AF786030
:10076400396000237B6100233B610023FB607B68CD
:100774007A4A934223D07B68794A93421FD07B689C
:10078400784A93421BD07B68774A934217D07B68A0
:10079400764A934213D07B68754A93420FD07B68A4
:1007A400744A93420BD07B68734A934207D07B68A8
:1007B400724A934203D07248C221FFF795FD3B6809
:1007C4001B68002B03D16E48C321FFF78DFD3B68E6
:1007D4001B79002B0FD03B681B79012B0BD03B6896
:1007E4001B79022B07D03B681B79032B03D0644889
:1007F400C421FFF779FD3B68DB79002B0BD03B6804
:10080400DB79012B07D03B68DB79022B03D05C48F2
:10081400C521FFF769FD00237B6197E07B69012215
:1008240002FA03F33B613B681A683B691340FB60BF
:10083400FA683B699A4240F086807B681A687B6953
:100844005B00194603238B40DB431A407B681A6024
:100854007B681A683B681B7919467B695B0001FA5F
:1008640003F31A437B681A603B681B79012B03D09E
:100874003B681B79022B4ED13B685B79002B0FD070
:100884003B685B79012B0BD03B685B79022B07D06B
:100894003B685B79032B03D03948D721FFF724FD4C
:1008A4007B689A687B695B00194603238B40DB43B2
:1008B4001A407B689A607B689A683B685B79194642
:1008C4007B695B0001FA03F31A437B689A603B6817
:1008D4009B79002B07D03B689B79012B03D02848D8
:1008E400DE21FFF701FD7B685A687B699BB21946DC
:1008F40001238B40DB431A407B685A607B685B684A
:100904003A68927911467A6992B201FA02F292B285
:100914001A437B685A607B68DA687B699BB25B0028
:10092400032101FA03F3DB431A407B68DA607B6836
:10093400DA683B68DB7919467B695B0001FA03F3EB
:100944001A437B68DA607B6901337B617B690F2B17
:100954007FF664AF1837BD4680BD00BF000002407B
:100964000004024000080240000C02400010024053
:100974000014024000180240001C02400020024003
:10098400E029000880B483B000AF78607B684FF63C
:10099400FF721A607B6800221A717B6800225A7108
:1009A4007B6800229A717B680022DA710C37BD469D
:1009B4005DF8047B704700BF80B584B000AF7860F9
:1009C4000B467B804FF48033FB607B68224A934262
:1009D40024D07B68214A934220D07B68204A9342EA
:1009E4001CD07B681F4A934218D07B681E4A9342EE
:1009F40014D07B681D4A934210D07B681C4A9342F2
:100A04000CD07B681B4A934208D07B681A4A9342F5
:100A140004D01A4840F20B11FFF766FC7B88002BC8
:100A240004D116484FF48671FFF75EFC7A88FB68A0
:100A34001343FB60FA687B68DA617A887B68DA6161
:100A4400FA687B68DA617B68DB69FB607B68DB6979
:100A5400FB601037BD4680BD000002400004024028
:100A640000080240000C0240001002400014024042
:100A740000180240001C024000200240E029000847
:100A840080B584B000AF78600B467B800023FB7395
:100A94007B683A4A934224D07B68394A934220D0F7
:100AA4007B68384A93421CD07B68374A934218D0FB
:100AB4007B68364A934214D07B68354A934210D0FF
:100AC4007B68344A93420CD07B68334A934208D003
:100AD4007B68324A934204D0314840F23711FFF721
:100AE40003FC7B88012B39D07B88022B36D07B8892
:100AF400042B33D07B88082B30D07B88102B2DD04F
:100B04007B88202B2AD07B88402B27D07B88802B86
:100B140024D07B88B3F5807F20D07B88B3F5007F19
:100B24001CD07B88B3F5806F18D07B88B3F5006F39
:100B340014D07B88B3F5805F10D07B88B3F5005F59
:100B44000CD07B88B3F5804F08D07B88B3F5004F79
:100B540004D013484FF49C71FFF7C6FB7B681A69F5
:100B64007B881340002B02D00123FB7301E0002398
:100B7400FB73FB7B18461037BD4680BD0000024066
:100B84000004024000080240000C02400010024031
:100B94000014024000180240001C024000200240E1
:100BA400E029000880B582B000AF78607B68174AFE
:100BB400934224D07B68164A934220D07B68154A1E
:100BC40093421CD07B68144A934218D07B68134A22
:100BD400934214D07B68124A934210D07B68114A26
:100BE40093420CD07B68104A934208D07B680F4A2A
:100BF400934204D00E4840F24D11FFF775FB7B6819
:100C04001B699BB218460837BD4680BD00000240F0
:100C14000004024000080240000C024000100240A0
:100C24000014024000180240001C02400020024050
:100C3400E029000880B584B000AF78600B467B8063
:100C44000023FB737B683A4A934224D07B68394A79
:100C5400934220D07B68384A93421CD07B68374A41
:100C6400934218D07B68364A934214D07B68354A45
:100C7400934210D07B68344A93420CD07B68334A49
:100C8400934208D07B68324A934204D031484FF4EF
:100C9400AF71FFF729FB7B88012B39D07B88022BAE
:100CA40036D07B88042B33D07B88082B30D07B88CC
:100CB400102B2DD07B88202B2AD07B88402B27D04B
:100CC4007B88802B24D07B88B3F5807F20D07B88E1
:100CD400B3F5007F1CD07B88B3F5806F18D07B8878
:100CE400B3F5006F14D07B88B3F5805F10D07B8898
:100CF400B3F5005F0CD07B88B3F5804F08D07B88B8
:100D0400B3F5004F04D0134840F25F11FFF7ECFA3B
:100D14007B685A697B881340002B02D00123FB7344
:100D240001E00023FB73FB7B18461037BD4680BDF2
:100D3400000002400004024000080240000C02408F
:100D4400001002400014024000180240001C02403F
:100D540000200240E029000880B582B000AF78602E
:100D64007B68174A934224D07B68164A934220D06A
:100D74007B68154A93421CD07B68144A934218D06E
:100D84007B68134A934214D07B68124A934210D072
:100D94007B68114A93420CD07B68104A934208D076
:100DA4007B680F4A934204D00E484FF4BA71FFF7A0
:100DB4009BFA7B685B699BB218460837BD4680BDC9
:100DC400000002400004024000080240000C0240FF
:100DD400001002400014024000180240001C0240AF
:100DE40000200240E029000880B582B000AF78609E
:100DF4000B467B807B681B4A934224D07B681A4A4B
:100E0400934220D07B68194A93421CD07B68184ACD
:100E1400934218D07B68174A934214D07B68164AD1
:100E2400934210D07B68154A93420CD07B68144AD5
:100E3400934208D07B68134A934204D012484FF47B
:100E4400C371FFF751FA7B88002B04D10E4840F29E
:100E54008711FFF749FA7B687A881A830837BD46F9
:100E640080BD00BF000002400004024000080240B0
:100E7400000C02400010024000140240001802401E
:100E8400001C024000200240E029000880B582B026
:100E940000AF78600B467B807B681B4A934224D06A
:100EA4007B681A4A934220D07B68194A93421CD02B
:100EB4007B68184A934218D07B68174A934214D02F
:100EC4007B68164A934210D07B68154A93420CD033
:100ED4007B68144A934208D07B68134A934204D037
:100EE400124840F29911FFF7FFF97B88002B04D1D7
:100EF4000E484FF4CD71FFF7F7F97B687A885A836F
:100F04000837BD4680BD00BF000002400004024017
:100F140000080240000C024000100240001402408D
:100F240000180240001C024000200240E029000892
:100F340080B582B000AF78600B467B8013467B702F
:100F44007B683E4A934224D07B683D4A934220D03A
:100F54007B683C4A93421CD07B683B4A934218D03E
:100F64007B683A4A934214D07B68394A934210D042
:100F74007B68384A93420CD07B68374A934208D046
:100F84007B68364A934204D0354840F2AD11FFF7EE
:100F9400ABF97B88012B39D07B88022B36D07B8838
:100FA400042B33D07B88082B30D07B88102B2DD09A
:100FB4007B88202B2AD07B88402B27D07B88802BD2
:100FC40024D07B88B3F5807F20D07B88B3F5007F65
:100FD4001CD07B88B3F5806F18D07B88B3F5006F85
:100FE40014D07B88B3F5805F10D07B88B3F5005FA5
:100FF4000CD07B88B3F5804F08D07B88B3F5004FC5
:1010040004D017484FF4D771FFF76EF97B78002BA3
:1010140007D07B78012B04D0114840F2AF11FFF7C1
:1010240063F97B78002B03D07B687A881A8302E00B
:101034007B687A885A830837BD4680BD0000024029
:101044000004024000080240000C0240001002406C
:101054000014024000180240001C0240002002401C
:10106400E029000880B582B000AF78600B467B8031
:101074007B68174A934224D07B68164A934220D057
:101084007B68154A93421CD07B68144A934218D05B
:101094007B68134A934214D07B68124A934210D05F
:1010A4007B68114A93420CD07B68104A934208D063
:1010B4007B680F4A934204D00E484FF4E271FFF765
:1010C40013F97A887B685A610837BD4680BD00BF32
:1010D400000002400004024000080240000C0240EC
:1010E400001002400014024000180240001C02409C
:1010F40000200240E029000880B582B000AF78608B
:101104000B467B807B68184A934224D07B68174A3D
:10111400934220D07B68164A93421CD07B68154AC0
:10112400934218D07B68144A934214D07B68134AC4
:10113400934210D07B68124A93420CD07B68114AC8
:10114400934208D07B68104A934204D00F484FF46E
:10115400E971FFF7C9F87B685A697B885A407B6854
:101164005A610837BD4680BD0000024000040240B9
:1011740000080240000C024000100240001402402B
:1011840000180240001C024000200240E029000830
:1011940080B584B000AF78600B467B8013467B70CB
:1011A4000023FB600023BB607B68834A934224D006
:1011B4007B68824A934220D07B68814A93421CD048
:1011C4007B68804A934218D07B687F4A934214D04C
:1011D4007B687E4A934210D07B687D4A93420CD050
:1011E4007B687C4A934208D07B687B4A934204D054
:1011F4007A4840F21D21FFF777F87B88002B31D025
:101204007B88012B2ED07B88022B2BD07B88032B51
:1012140028D07B88042B25D07B88052B22D07B8883
:10122400062B1FD07B88072B1CD07B88082B19D05A
:101234007B88092B16D07B880A2B13D07B880B2B39
:1012440010D07B880C2B0DD07B880D2B0AD07B888B
:101254000E2B07D07B880F2B04D0604840F21E2150
:10126400FFF742F87B78002B6DD07B78092B6AD08E
:101274007B78002B67D07B78002B64D07B78002BA5
:1012840061D07B78002B5ED07B78012B5BD07B78A0
:10129400012B58D07B78022B55D07B78022B52D06F
:1012A4007B78022B4FD07B78032B4CD07B78042B9C
:1012B40049D07B78042B46D07B78042B43D07B78B1
:1012C400052B40D07B78052B3DD07B78092B3AD079
:1012D4007B78062B37D07B78092B34D07B78072B8F
:1012E40031D07B78072B2ED07B78072B2BD07B78C3
:1012F400082B28D07B78082B25D07B78082B22D08C
:101304007B78092B1FD07B78092B1CD07B780A2B88
:1013140019D07B780A2B16D07B780B2B13D07B78D3
:101324000C2B10D07B780C2B0DD07B780C2B0AD097
:101334007B780D2B07D07B780F2B04D0274840F205
:101344001F21FEF7D1FF7B787A8802F00702920012
:101354009340FB607B88DB089BB218467B88DB08E4
:101364009BB21A467B68083253F822207B8803F02C
:1013740007039B0019460F238B40DB4302EA03015A
:101384007B6800F1080243F822107B88DB089BB2DB
:101394001A467B68083253F82220FB681343BB606B
:1013A4007B88DB089BB21A467B680832B96843F82D
:1013B40022101037BD4680BD0000024000040240E8
:1013C40000080240000C02400010024000140240D9
:1013D40000180240001C024000200240E0290008DE
:1013E40080B400AF104A104B1B6843F00103136034
:1013F4000D4B00229A600C4A0B4B1B6823F084733C
:1014040023F480331360084B084A5A60064A064B9B
:101414001B6823F480231360034B0022DA60BD466B
:101424005DF8047B704700BF003802401030002490
:1014340080B582B000AF0346FB71FB79002B09D065
:10144400FB79012B06D0FB79052B03D00648F72145
:10145400FEF74AFF054B00221A70044AFB79137009
:101464000837BD4680BD00BFF42900080238024099
:1014740080B582B000AF00233B600023FB710023E2
:10148400BB71312001F04CF80346BB713B6801335A
:101494003B603B68B3F5A06F02D0BB79002BF0D062
:1014A400312001F03DF80346002B02D00123FB71EB
:1014B40001E00023FB71FB7918460837BD4680BD67
:1014C40080B584B000AF0346FB710023FB60FB7959
:1014D4001F2B04D90B4840F22F11FEF705FF0A4BCE
:1014E4001B68FB60FB6823F0F803FB60FB79DB00FF
:1014F400FA681343FB60044AFB6813601037BD4667
:1015040080BD00BFF42900080038024080B582B0D5
:1015140000AF0346FB71FB79002B07D0FB79012B4D
:1015240004D005484FF4A971FEF7DEFE034AFB79A7
:1015340013600837BD4680BDF42900080000474207
:1015440080B582B000AF0346FB71FB79002B0AD053
:10155400FB79012B07D0FB79042B04D00D4840F212
:101564006B11FEF7C1FE0C4B00221A700A4B0022CD
:101574001A70FB79012B02D0042B04D007E0064B30
:1015840001221A7003E0044B05221A7000BF0837C9
:10159400BD4680BDF42900087038024080B582B091
:1015A40000AF0346FB71FB79002B07D0FB79012BBD
:1015B40004D0054840F29311FEF796FE034AFB79E6
:1015C40013600837BD4680BDF4290008800E4742E9
:1015D40080B584B000AFF860B9607A603B60FB68A6
:1015E400002B08D0FB68B3F5800F04D023484FF4D8
:1015F400DF71FEF779FEBB683F2B04D91F4840F228
:10160400BF11FEF771FE7B68BF2B03D97B68B3F56E
:10161400D87F04D919484FF4E071FEF765FE3B68A2
:10162400022B0DD03B68042B0AD03B68062B07D055
:101634003B68082B04D0114840F2C111FEF754FE58
:10164400BB69032B02D9BB690F2B04D90B484FF498
:10165400E171FEF749FE0A497B689A01BB681A43A7
:101664003B685B08013B1B041A43FB681A43BB69D4
:101674001B0613434B601037BD4680BDF429000898
:101684000038024080B582B000AF0346FB71FB799D
:10169400002B07D0FB79012B04D0054840F2D5116B
:1016A400FEF722FE034AFB7913600837BD4680BD6E
:1016B400F42900086000474280B582B000AF78602A
:1016C40039607B68BF2B03D97B68B3F5D87F04D915
:1016D4000D484FF4F871FEF707FE3B68012B02D961
:1016E4003B68072B04D9084840F2F111FEF7FCFDD2
:1016F40006497B689A013B681B071343C1F8843091
:101704000837BD4680BD00BFF429000800380240F8
:1017140080B582B000AF0346FB71FB79002B07D084
:10172400FB79012B04D005484FF40071FEF7DCFD72
:10173400034AFB7913600837BD4680BDF4290008CD
:101744006800474280B582B000AF0346FB71FB7965
:10175400002B07D0FB79012B04D0054840F212215D
:10176400FEF7C2FD034AFB7913600837BD4680BD0E
:10177400F42900084C00474280B584B000AF78607B
:1017840039600023FB607B68002B10D07B68B3F5C5
:10179400001F0CD07B68B3F5800F08D07B68B3F5CD
:1017A400C00F04D0174840F22D21FEF79DFD3B6881
:1017B400002B14D03B68B3F1806F10D03B68B3F1B9
:1017C400A06F0CD03B68B3F1C06F08D03B68B3F195
:1017D400E06F04D00B4840F22E21FEF785FD0A4B42
:1017E4009B68FB60FB6823F0EC63FB607A683B68F2
:1017F4001343FA681343FB60034AFB689360103792
:10180400BD4680BDF42900080038024080B584B08C
:1018140000AF786039600023FB607B68002B10D038
:101824007B68B3F1804F0CD07B68B3F1004F08D0D4
:101834007B68B3F1404F04D0174840F25321FEF7C0
:1018440053FD3B68002B14D03B68B3F1005F10D00C
:101854003B68B3F1205F0CD03B68B3F1405F08D024
:101864003B68B3F1605F04D00B484FF41571FEF789
:101874003BFD0A4B9B68FB60FB6823F07843FB60ED
:101884007A683B681343FA681343FB60034AFB68B6
:1018940093601037BD4680BDF4290008003802402B
:1018A40080B584B000AF78600023FB607B68002BB8
:1018B4000AD07B68012B07D07B68022B04D00B482D
:1018C4004FF42F71FEF710FD094B9B68FB60FB681A
:1018D40023F00303FB60FA687B681343FB60044A4C
:1018E400FB6893601037BD4680BD00BFF429000833
:1018F4000038024080B400AF054B9B68DBB203F0B4
:101904000C03DBB21846BD465DF8047B704700BF8C
:101914000038024080B584B000AF78600023FB60DB
:101924007B68002B1CD07B68802B19D07B68902BA4
:1019340016D07B68A02B13D07B68B02B10D07B68AB
:10194400C02B0DD07B68D02B0AD07B68E02B07D04E
:101954007B68F02B04D00B4840F2F121FEF7C4FC65
:10196400094B9B68FB60FB6823F0F003FB60FA689B
:101974007B681343FB60044AFB6893601037BD46E1
:1019840080BD00BFF42900080038024080B584B04F
:1019940000AF78600023FB607B68002B14D07B6869
:1019A400B3F5805F10D07B68B3F5A05F0CD07B6883
:1019B400B3F5C05F08D07B68B3F5E05F04D00B4893
:1019C40040F21131FEF790FC094B9B68FB60FB6809
:1019D40023F4E053FB60FA687B681343FB60044A1A
:1019E400FB6893601037BD4680BD00BFF429000832
:1019F4000038024080B584B000AF78600023FB60FB
:101A04007B68002B14D07B68B3F5805F10D07B68B3
:101A1400B3F5A05F0CD07B68B3F5C05F08D07B68DA
:101A2400B3F5E05F04D00B484FF44C71FEF75CFC57
:101A3400094B9B68FB60FB6823F46043FB607B6895
:101A4400DB00FA681343FB60034AFB6893601037BA
:101A5400BD4680BDF42900080038024080B489B036
:101A640000AF78600023BB6100237B610023FB612E
:101A740002233B610023FB600223BB60484B9B684D
:101A840003F00C03BB61BB69042B07D0082B09D0FE
:101A9400002B3FD17B68434A1A603FE07B68424A8F
:101AA4001A603BE03E4B5B6803F480039B0DFB60D4
:101AB4003B4B5B6803F03F03BB60FB68002B0DD01E
:101AC400394ABB68B2FBF3F2354B596847F6C07329
:101AD4000B409B0903FB02F3FB610CE0314ABB683A
:101AE400B2FBF3F22E4B596847F6C0730B409B09C7
:101AF40003FB02F3FB612A4B5B6803F440331B0CCA
:101B040001335B003B61FA693B69B2FBF3F27B682A
:101B14001A6003E07B68234A1A6000BF204B9B686D
:101B240003F0F003BB61BB691B09BB611F4ABB69BE
:101B340013441B78DBB27B617B681A687B69DA40EB
:101B44007B685A60164B9B6803F4E053BB61BB6926
:101B54009B0ABB61154ABB6913441B78DBB27B61EA
:101B64007B685A687B69DA407B689A600C4B9B6897
:101B740003F46043BB61BB695B0BBB610B4ABB698C
:101B840013441B78DBB27B617B685A687B69DA405B
:101B94007B68DA602437BD465DF8047B704700BF7C
:101BA400003802400024F40040787D011800002031
:101BB40080B584B000AF78600023FB607B68B3F528
:101BC400807F00F081807B68B3F5007F7CD07B68E8
:101BD4004F4A934278D07B684E4A934274D07B68D4
:101BE4004D4A934270D07B684C4A93426CD07B68D8
:101BF4004B4A934268D07B684A4A934264D07B68DC
:101C0400494A934260D07B68484A93425CD07B68DF
:101C1400474A934258D07B68464A934254D07B68E3
:101C2400454A934250D07B68444A93424CD07B68E7
:101C3400434A934248D07B68424A934244D07B68EB
:101C4400414A934240D07B68404A93423CD07B68EF
:101C54003F4A934238D07B683E4A934234D07B68F3
:101C64003D4A934230D07B683C4A93422CD07B68F7
:101C74003B4A934228D07B683A4A934224D07B68FB
:101C8400394A934220D07B68384A93421CD07B68FF
:101C9400374A934218D07B68364A934214D07B6803
:101CA400354A934210D07B68344A93420CD07B6807
:101CB400334A934208D07B68324A934204D0324874
:101CC40040F2E131FEF710FB7B6803F44073B3F597
:101CD400407F11D12D4B9B68FB60FB6823F4F81304
:101CE400FB607B6823F0704323F44073FA6813436A
:101CF400FB60264AFB6893602449244B1A6F7B6877
:101D0400C3F30B0313430B671037BD4680BD00BFFD
:101D140000030200000303000003040000030500A5
:101D24000003060000030700000308000003090085
:101D340000030A0000030B0000030C0000030D0065
:101D440000030E0000030F00000310000003110045
:101D54000003120000031300000314000003150025
:101D64000003160000031700000318000003190005
:101D740000031A0000031B0000031C0000031D00E5
:101D840000031E0000031F00F4290008003802406D
:101D940080B582B000AF0346FB71FB79002B07D0FE
:101DA400FB79012B04D0054840F2FF31FEF79CFA81
:101DB400034AFB7913600837BD4680BDF429000847
:101DC4003C0E474280B582B000AF0346FB71FB79FD
:101DD400002B07D0FB79012B04D005484FF4826116
:101DE400FEF782FA034AFB7913600837BD4680BDCB
:101DF400F4290008400E474280B582B000AF7860F5
:101E04007B68002B07D07B68012B04D0054840F287
:101E14002441FEF769FA044A7B6813600837BD461B
:101E240080BD00BFF42900085C01474280B582B040
:101E340000AF78600B46FB707A68154B1340002B9B
:101E440002D17B68002B04D1124840F24A41FEF7CC
:101E54004BFAFB78002B07D0FB78012B04D00D48FC
:101E640040F24C41FEF740FAFB78002B06D00A49B9
:101E7400094B1A6B7B6813430B6306E00649064B58
:101E84001A6B7B68DB4313400B630837BD4680BD88
:101E940000EE9B81F42900080038024080B582B02E
:101EA40000AF78600B46FB707B6823F0F103002BD6
:101EB40002D17B68002B04D1114840F26A41FEF73D
:101EC40013FAFB78002B07D0FB78012B04D00C48C5
:101ED40040F26B41FEF708FAFB78002B06D0094963
:101EE400084B5A6B7B6813434B6306E00549054B6B
:101EF4005A6B7B68DB4313404B630837BD4680BD98
:101F0400F42900080038024080B582B000AF786040
:101F14000B46FB707B6823F00103002B02D17B6826
:101F2400002B04D1114840F28541FEF7DDF9FB781E
:101F3400002B07D0FB78012B04D00C4840F28641DB
:101F4400FEF7D2F9FB78002B06D00949084B9A6BAF
:101F54007B6813438B6306E00549054B9A6B7B68EA
:101F6400DB4313408B630837BD4680BDF42900086A
:101F74000038024080B582B000AF78600B46FB7039
:101F84007A68154B1340002B02D17B68002B04D1D7
:101F9400124840F2B741FEF7A7F9FB78002B07D0AF
:101FA400FB78012B04D00D484FF49761FEF79CF9A0
:101FB400FB78002B06D00A49094B1A6C7B68134343
:101FC4000B6406E00649064B1A6C7B68DB4313403E
:101FD4000B640837BD4680BD003601C9F4290008EA
:101FE4000038024080B582B000AF78600B46FB70C9
:101FF4007A68154B1340002B02D17B68002B04D167
:10200400124840F2DF41FEF76FF9FB78002B07D04E
:10201400FB78012B04D00D484FF49C61FEF764F962
:10202400FB78002B06D00A49094B5A6C7B68134392
:102034004B6406E00649064B5A6C7B68DB4313404D
:102044004B640837BD4680BDCCA0F8FFF4290008D6
:102054000038024080B582B000AF78600B46FB7058
:102064007A68154B1340002B02D17B68002B04D1F6
:10207400124840F20651FEF737F9FB78002B07D0DF
:10208400FB78012B04D00D4840F20751FEF72CF9E0
:10209400FB78002B06D00A49094B1A697B68134365
:1020A4000B6106E00649064B1A697B68DB43134063
:1020B4000B610837BD4680BD00EE9FDDF4290008A2
:1020C4000038024080B582B000AF78600B46FB70E8
:1020D4007B6823F0F103002B02D17B68002B04D131
:1020E400114840F22351FEF7FFF8FB78002B07D08C
:1020F400FB78012B04D00C4840F22451FEF7F4F88D
:10210400FB78002B06D00949084B5A697B681343B6
:102114004B6106E00549054B5A697B68DB43134074
:102124004B610837BD4680BDF429000800380240E1
:1021340080B582B000AF78600B46FB707B6823F0FB
:102144000103002B02D17B68002B04D1114840F21B
:102154003B51FEF7C9F8FB78002B07D0FB78012B25
:1021640004D00C4840F23C51FEF7BEF8FB78002B3B
:1021740006D00949084B9A697B6813438B6106E0D2
:102184000549054B9A697B68DB4313408B6108372B
:10219400BD4680BDF42900080038024080B582B0F5
:1021A40000AF78600B46FB707A68154B1340002B28
:1021B40002D17B68002B04D1124840F26A51FEF729
:1021C40093F8FB78002B07D0FB78012B04D00D4843
:1021D40040F26B51FEF788F8FB78002B06D00A49D1
:1021E400094B1A6A7B6813430B6206E00649064BE7
:1021F4001A6A7B68DB4313400B620837BD4680BD17
:10220400003601C9F42900080038024080B582B0C4
:1022140000AF78600B46FB707A68154B1340002BB7
:1022240002D17B68002B04D1124840F28E51FEF794
:102234005BF8FB78002B07D0FB78012B04D00D480A
:1022440040F28F51FEF750F8FB78002B06D00A4974
:10225400094B5A6A7B6813434B6206E00649064BF6
:102264005A6A7B68DB4313404B620837BD4680BD26
:10227400CCA6F8FFF42900080038024080B582B0EB
:1022840000AF78600B46FB707A68154B1340002B47
:1022940002D17B68002B04D1124840F2BC51FEF7F6
:1022A40023F8FB78002B07D0FB78012B04D00D48D2
:1022B40040F2BD51FEF718F8FB78002B06D00A490E
:1022C400094B1A6D7B6813430B6506E00649064B00
:1022D4001A6D7B68DB4313400B650837BD4680BD30
:1022E400006E9881F42900080038024080B582B05D
:1022F40000AF78600B46FB707B6823F0F103002B82
:1023040002D17B68002B04D1114840F2DC51FDF767
:10231400EBFFFB78002B07D0FB78012B04D00C4893
:1023240040F2DD51FDF7E0FFFB78002B06D00949B0
:10233400084B5A6D7B6813434B6506E00549054B12
:102344005A6D7B68DB4313404B650837BD4680BD3F
:10235400F42900080038024080B582B000AF7860EC
:102364000B46FB707B6823F00103002B02D17B68D2
:10237400002B04D1114840F2F751FDF7B5FFFB786B
:10238400002B07D0FB78012B04D00C484FF4BF611D
:10239400FDF7AAFFFB78002B06D00949084B9A6D7C
:1023A4007B6813438B6506E00549054B9A6D7B6892
:1023B400DB4313408B650837BD4680BDF429000814
:1023C4000038024080B582B000AF78600B46FB70E5
:1023D4007A68154B1340002B02D17B68002B04D183
:1023E400124840F22961FDF77FFFFB78002B07D0EC
:1023F400FB78012B04D00D4840F22A61FDF774FFED
:10240400FB78002B06D00A49094B1A6E7B681343EC
:102414000B6606E00649064B1A6E7B68DB431340E5
:102424000B660837BD4680BD003601C9F429000893
:102434000038024080B582B000AF78600B46FB7074
:102444007A68154B1340002B02D17B68002B04D112
:10245400124840F25161FDF747FFFB78002B07D08B
:10246400FB78012B04D00D4840F25261FDF73CFF8C
:10247400FB78002B06D00A49094B5A6E7B6813433C
:102484004B6606E00649064B5A6E7B68DB431340F5
:102494004B660837BD4680BDCCA0F8FFF429000880
:1024A4000038024080B582B000AF03460A46FB7193
:1024B4001346BB71FB7903F0C003002B02D1FB79F7
:1024C400002B04D1144840F27E61FDF70DFFBB7967
:1024D400002B07D0BB79012B04D00F4840F27F6159
:1024E400FDF702FFBB79002B08D00C490B4B1B787E
:1024F400DAB2FB791343DBB20B7009E00749074BEF
:102504001B78DAB2FB79DB43DBB21340DBB20B702E
:102514000837BD4680BD00BFF42900080D380240CD
:1025240080B586B000AF0346FB710023FB60002337
:102534007B610023FB74FB79212B28D0FB79312BA1
:1025440025D0FB79392B22D0FB79412B1FD0FB7985
:10255400612B1CD0FB79792B19D0FB797A2B16D0FF
:10256400FB797B2B13D0FB797C2B10D0FB797D2B53
:102574000DD0FB797E2B0AD0FB797F2B07D0FB791A
:102584003B2B04D0174840F2A661FDF7ADFEFB7962
:102594005B09DBB2FB60FB68012B03D1124B1B68A8
:1025A4007B6109E0FB68022B03D10F4B1B6F7B613E
:1025B40002E00D4B5B6F7B61FB7903F01F03FB6053
:1025C400FB687A6922FA03F303F00103002B02D0BB
:1025D4000123FB7401E00023FB74FB7C18461837CD
:1025E400BD4680BDF42900080038024080B400AF25
:1025F400044A044B5B6F43F080735367BD465DF838
:10260400047B70470038024080B584B000AF0346B5
:10261400FB710023FB73FB79012B16D0FB79022B92
:1026240013D0FB79042B10D0FB79082B0DD0FB7948
:10263400102B0AD0FB79802B07D0FB79202B04D0F8
:102644000A4840F2E461FDF74FFE094BDA68FB7972
:102654001340002B02D00123FB7301E00023FB7322
:10266400FB7B18461037BD4680BD00BFF429000827
:102674000038024080B582B000AF0346FB71FB799D
:1026840003F04003002B02D1FB79002B04D1054851
:1026940040F20371FDF728FE034AFB7913700837F3
:1026A400BD4680BDF42900080E3802403C2A0008CB
:1026B4000000002054040020580400207804002066
:1026C400002103E00B4B5B58435004310A480B4B89
:1026D40042189A42F6D30A4A02E0002342F8043B25
:1026E400084B9A42F9D3FDF769FE00F01FF8FDF795
:1026F40001FE70473C2A000800000020540400201A
:102704005804002078040020FEE7000008B50021EA
:10271400044600F08BF8044B1868C36B03B1984768
:10272400204600F07FF900BF082A000870B50F4E5C
:102734000F4D761BB61018BF002405D0013455F890
:10274400043B9847A642F9D10A4E0B4D00F05EF9BE
:10275400761BB61018BF002406D0013455F8043B8C
:102764009847A642F9D170BD70BD00BF302A000859
:10277400302A0008382A0008302A000870B4840778
:1027840046D0541E002A41D0CDB2034602E0621E58
:10279400E4B3144603F8015B9A07F8D1032C2ED94D
:1027A400CDB245EA05250F2C45EA054519D926463B
:1027B40003F11002103E0F2E42F8105C42F80C5C3C
:1027C40042F8085C42F8045C02F11002F2D8A4F169
:1027D400100222F00F0204F00F041032032C1344F1
:1027E4000DD91E462246043A032A46F8045BFAD859
:1027F400221F22F003020432134404F003042CB118
:10280400C9B21C4403F8011BA342FBD170BC70473E
:1028140014460346C2E700BF024B13B1024800F05E
:102824006FB8704700000000112900082DE9F04F2F
:1028340081460E46304B83B01B68009303F5A473A6
:102844000193009BD3F8487127B3DDF804A07C689A
:10285400651E0ED4013407EB84044FF00008E6B182
:10286400D4F80031B34218D0013D6B1CA4F1040428
:10287400F5D1224B73B17B68002B36D13B68002B1A
:1028840034D03846CAF80030AFF30080DAF800706C
:10289400002FDCD103B0BDE8F08F7B682268013BD8
:1028A400AB420CBF7D60C4F80080002ADCD0D7F8AE
:1028B40088310121A9401942D7F804B008D19047C2
:1028C4007B685B45BDD1DAF80030BB42CCD0B8E7B9
:1028D400D7F88C31194204D14846D4F88010904777
:1028E400EEE7D4F880009047EAE73B68BA461F4613
:1028F400002FACD1CEE700BF082A0008000000007A
:10290400014600200246034600F016B838B5084BCD
:10291400084DED1AAC1018BFED1805D0013C55F860
:10292400043D9847002CF9D1BDE8384000F074B854
:10293400382A00083C2A00082DE9F047254C0646B1
:1029440025688846D5F8484192469946C4B36068DC
:102954001F2817DC411C76B104EB8003C3F888A060
:10296400D4F88851012282401543022EC4F88851BC
:10297400C3F808911ED0831C6160002044F82380B2
:10298400BDE8F087144B03B34FF4C870AFF3008075
:102994000446D0B1D5F84831002784E88800384689
:1029A400C5F848410121C4F88871C4F88C71002E1F
:1029B400E1D0D1E7D4F88C311A43C4F88C21DAE79A
:1029C40005F5A674C5F84841C1E74FF0FF30BDE8EE
:1029D400F08700BF082A00080000000073746D33FC
:1029E40032663278785F6770696F2E63000000008A
:1029F40073746D3332663278785F7263632E63006A
:102A0400430000002800002000000000F8B500BFCB
:102A1400F8BC08BC9E467047F8B500BFF8BC08BCBB
:042A24009E46704713
:082A2800B8D7FF7F0100000098
:082A30001D280008A90100089F
:042A3800850100080C
:102A3C0000000000000E270700000000000000004E
:102A4C000102030406070809000000000102030448
:102A5C00010203040607080900000000140300200B
:102A6C007C030020E40300200000000000000000B4
:102A7C00000000000000000000000000000000004A
:102A8C00000000000000000000000000042A000804
:102A9C00000000000000000000000000000000002A
:102AAC00000000000000000000000000000000001A
:102ABC00000000000000000000000000000000000A
:102ACC0000000000000000000000000000000000FA
:102ADC0000000000000000000000000000000000EA
:102AEC0000000000000000000000000000000000DA
:102AFC0000000000000000000000000000000000CA
:102B0C0001000000000000000E33CDAB34126DE666
:102B1C00ECDE05000B0000000000000000000000CF
:102B2C000000000000000000000000000000000099
:102B3C000000000000000000000000000000000089
:102B4C000000000000000000000000000000000079
:102B5C000000000000000000000000000000000069
:042E8C0028000020FA
:042E9000000000003E
:04000005080026C504
:00000001FF
