:020000040800F2
:1000000000000120FD040008450500084505000822
:1000100045050008450500084505000800000000EA
:10002000000000000000000000000000450500087E
:1000300045050008000000004505000845050008CA
:100040004505000845050008450500084505000868
:100050004505000845050008450500084505000858
:100060004505000845050008450500084505000848
:100070004505000845050008450500084505000838
:100080004505000845050008450500084505000828
:100090004505000845050008450500084505000818
:1000A0004505000845050008450500084505000808
:1000B00045050008450500084505000845050008F8
:1000C00045050008450500084505000845050008E8
:1000D00045050008450500084505000845050008D8
:1000E00045050008450500084505000845050008C8
:1000F00045050008450500084505000845050008B8
:1001000045050008450500084505000845050008A7
:100110004505000845050008450500084505000897
:100120004505000845050008450500084505000887
:100130004505000845050008450500084505000877
:100140004505000845050008450500084505000867
:100150004505000845050008450500084505000857
:100160004505000845050008450500084505000847
:100170004505000845050008450500084505000837
:040180004505000829
:1001840010B5054C237833B9044B13B10448AFF3CD
:1001940000800123237010BD4804002000000000EB
:1001A40020080008084B10B51BB108480849AFF3F4
:1001B40000800848036803B910BD074B002BFBD02F
:1001C400BDE81040184700BF0000000020080008E8
:1001D4004C0400204404002000000000154B002BB8
:1001E40008BF134B9D46A3F5803A00218B460F466A
:1001F4001348144A121A00F0DDF90F4B002B00D0FB
:1002040098470E4B002B00D0984700200021040093
:100214000D000D48002802D00C4800F08DFA00F0C3
:10022400A1F92000290000F02DF800F08BF900BF9F
:1002340000000800000000000000000000000000B2
:1002440048040020640400203D0700084907000812
:1002540080B485B000AF786009E041F25373FB606D
:1002640000E000BFFB685A1EFA60002BF9DC7B68D3
:100274005A1E7A60002BF0DC1437BD465DF8047B0F
:10028400704700BF80B500AF0A4A0A4B1B6B43F0AE
:1002940002031363084B6FF070421A604FF4FA7054
:1002A400FFF7D6FF044A044B5B6983F07043DB43DA
:1002B4005361F3E7003802400004024080B500AF08
:1002C400114A114B1B6843F0010313600E4B0022CB
:1002D4009A600D4A0C4B1B6823F0847323F480331B
:1002E4001360094B094A5A60074A074B1B6823F4F9
:1002F40080231360044B0022DA6000F087F8044B7B
:100304004FF000629A6080BD003802401030002433
:1003140000ED00E080B487B000AF00233B61002310
:100324007B610223FB600023BB6002237B60324BB2
:100334009B6803F00C033B613B69042B07D0082B3B
:1003440009D0002B3FD12D4B2D4A1A603FE02B4B97
:100354002C4A1A603BE0284B5B6803F480039B0D36
:10036400BB60254B5B6803F03F037B60BB68002BDD
:100374000DD0244A7B68B2FBF3F21F4B596847F651
:10038400C0730B409B0903FB02F37B610CE01C4A26
:100394007B68B2FBF3F2184B596847F6C0730B4005
:1003A4009B0903FB02F37B61134B5B6803F440334B
:1003B4001B0C01335B00FB607A69FB68B2FBF3F34F
:1003C4000E4A136003E00D4B0D4A1A6000BF0A4B3E
:1003D4009B6803F0F0031B090B4AD35CDBB23B615F
:1003E400064B1A683B6922FA03F3044A13601C376C
:1003F400BD465DF8047B70470038024004000020CD
:100404000024F40040787D010800002080B483B00B
:1004140000AF00237B6000233B602F4A2E4B1B68F8
:1004240043F4803313602C4B1B6803F400333B60AC
:100434007B6801337B603B68002B03D17B68B3F599
:10044400A06FF0D1244B1B6803F40033002B02D0BF
:1004540001233B6001E000233B603B68012B36D164
:100464001D4A1D4B9B6893601B4A1B4B9B6843F4BE
:1004740000439360184A184B9B6843F4A05393605D
:10048400154B164A5A60144A134B1B6843F0807389
:10049400136000BF104B1B6803F00073002BF9D0EE
:1004A4000F4B40F203721A600B4A0B4B9B6823F00C
:1004B40003039360084A084B9B6843F0020393606C
:1004C40000BF054B9B6803F00C03082BF9D10C37D4
:1004D400BD465DF8047B704700380240193C400576
:1004E400003C0240500800080000002044040020A2
:1004F4004804002064040020002103E00B4B5B58F7
:10050400435004310A480B4B42189A42F6D30A4A24
:1005140002E0002342F8043B084B9A42F9D3FFF768
:10052400CDFE00F01FF8FFF7ADFE7047500800083D
:10053400000000204404002048040020640400203B
:10054400FEE7000008B50021044600F08BF8044BD8
:100554001868C36B03B19847204600F06DF900BFDB
:100564001C08000870B50F4E0F4D761BB61018BF4F
:10057400002405D0013455F8043B9847A642F9D12C
:100584000A4E0B4D00F04CF9761BB61018BF002430
:1005940006D0013455F8043B9847A642F9D170BD02
:1005A40070BD00BF44080008440800084C08000857
:1005B4004408000870B4840746D0541E002A41D071
:1005C400CDB2034602E0621EE4B3144603F8015BB5
:1005D4009A07F8D1032C2ED9CDB245EA05250F2C64
:1005E40045EA054519D9264603F11002103E0F2E9F
:1005F40042F8105C42F80C5C42F8085C42F8045C77
:1006040002F11002F2D8A4F1100222F00F0204F059
:100614000F041032032C13440DD91E462246043A0B
:10062400032A46F8045BFAD8221F22F0030204329C
:10063400134404F003042CB1C9B21C4403F8011B95
:10064400A342FBD170BC704714460346C2E700BF07
:10065400024B13B1024800F06FB87047000000006D
:10066400490700082DE9F04F81460E46304B83B010
:100674001B68009303F5A4730193009BD3F848719E
:1006840027B3DDF804A07C68651E0ED4013407EBA3
:1006940084044FF00008E6B1D4F80031B34218D016
:1006A400013D6B1CA4F10404F5D1224B73B17B68AA
:1006B400002B36D13B68002B34D03846CAF80030C2
:1006C400AFF30080DAF80070002FDCD103B0BDE88E
:1006D400F08F7B682268013BAB420CBF7D60C4F89D
:1006E4000080002ADCD0D7F888310121A9401942C2
:1006F400D7F804B008D190477B685B45BDD1DAF8E0
:100704000030BB42CCD0B8E7D7F88C31194204D1C1
:100714004846D4F880109047EEE7D4F8800090471C
:10072400EAE73B68BA461F46002FACD1CEE700BFCC
:100734001C08000800000000014600200246034691
:1007440000F016B838B5084B084DED1AAC1018BFB8
:10075400ED1805D0013C55F8043D9847002CF9D11B
:10076400BDE8384000F062B84C08000850080008A2
:100774002DE9F047254C064625688846D5F84841BA
:1007840092469946C4B360681F2817DC411C76B1B1
:1007940004EB8003C3F888A0D4F888510122824076
:1007A4001543022EC4F88851C3F808911ED0831C47
:1007B4006160002044F82380BDE8F087144B03B344
:1007C4004FF4C870AFF300800446D0B1D5F8483177
:1007D400002784E888003846C5F848410121C4F858
:1007E4008871C4F88C71002EE1D0D1E7D4F88C3133
:1007F4001A43C4F88C21DAE705F5A674C5F8484114
:10080400C1E74FF0FF30BDE8F08700BF1C080008C7
:100814000000000043000000180000200000000059
:10082400F8B500BFF8BC08BC9E467047F8B500BFD9
:08083400F8BC08BC9E467047A9
:08083C00A4F9FF7F0100000098
:0808440055060008A901000897
:04084C00850100081A
:1008500000000000000E270700000000000000005C
:100860000102030406070809000000000403002039
:100870006C030020D40300200000000000000000F2
:100880000000000000000000000000000000000068
:100890000000000000000000000000001808000830
:1008A0000000000000000000000000000000000048
:1008B0000000000000000000000000000000000038
:1008C0000000000000000000000000000000000028
:1008D0000000000000000000000000000000000018
:1008E0000000000000000000000000000000000008
:1008F00000000000000000000000000000000000F8
:1009000000000000000000000000000000000000E7
:1009100001000000000000000E33CDAB34126DE684
:10092000ECDE05000B0000000000000000000000ED
:1009300000000000000000000000000000000000B7
:1009400000000000000000000000000000000000A7
:100950000000000000000000000000000000000097
:100960000000000000000000000000000000000087
:040C90001800002028
:040C9400000000005C
:04000005080004FDEE
:00000001FF
