:020000040800F2
:1000000000000220DD520008255300082553000897
:100010002553000825530008255300080000000060
:100020000000000000000000000000002553000850
:10003000255300080000000025530008950400081F
:1000400025530008255300082553000825530008B0
:1000500025530008255300082553000825530008A0
:100060002553000825530008255300082553000890
:100070002553000825530008255300082553000880
:100080002553000825530008255300082553000870
:100090002553000825530008255300082553000860
:1000A0002553000825530008255300082553000850
:1000B0002553000825530008255300082553000840
:1000C0002553000825530008255300082553000830
:1000D0002553000825530008255300082553000820
:1000E0002553000825530008255300082553000810
:1000F0002553000825530008255300082553000800
:1001000025530008255300082553000825530008EF
:1001100025530008255300082553000825530008DF
:1001200025530008255300082553000825530008CF
:1001300025530008255300082553000825530008BF
:1001400025530008255300082553000825530008AF
:10015000255300082553000825530008255300089F
:10016000255300082553000825530008255300088F
:10017000255300082553000825530008255300087F
:0401800025530008FB
:1001880010B5054C237833B9044B13B10448AFF3C9
:1001980000800123237010BDF0080020000000003B
:1001A800D0AF0008084B10B51BB108480849AFF399
:1001B80000800848036803B910BD074B002BFBD02B
:1001C800BDE81040184700BF00000000D0AF00088D
:1001D800F4080020EC08002000000000154B002B5C
:1001E80008BF134B9D46A3F5803A00218B460F4666
:1001F8001348144A121A05F0CBF80F4B002B00D005
:1002080098470E4B002B00D098470020002104008F
:100218000D000D48002802D00C4806F0C1FC05F07E
:100228008FF82000290000F0CBF805F079F800BF1E
:1002380000000800000000000000000000000000AE
:10024800F00800206C090020A96B00083D7F000819
:1002580080B483B000AF03463960FB7197F907306B
:10026800002B0BDA0D49FB7903F00F03043B3A68C6
:10027800D2B21201D2B20B441A7609E0084997F9B2
:1002880007303A68D2B21201D2B20B4483F8002385
:100298000C37BD465DF8047B704700BF00ED00E0F9
:1002A80000E100E080B582B000AF78607B68B3F110
:1002B800807F01D3012311E00A4A7B6823F07F4342
:1002C800013B53604FF0FF300F21FFF7C1FF054B93
:1002D80000229A60034B07221A6000231846083749
:1002E800BD4680BD10E000E080B483B000AF786008
:1002F8003960FEE780B582B000AF1E4809210722A9
:1003080000F0BCFF4FF400733B6002237B710223B3
:100318003B710023BB713B461648194600F092FA20
:100328004FF480633B6002237B7100233B713B46A3
:100338001048194600F086FA0F48012102F0CCFC5B
:100348000E4B4FF416521A600C4B00229A800B4B3E
:100358000022DA80094B00221A81084B0C225A81AC
:10036800064B00229A810448044902F09BFA083798
:10037800BD4680BD00000240001001405809002021
:1003880080B582B000AF786010E000BF0B488021D4
:1003980003F01AFB0346002BF8D07B685A1C7A60DE
:1003A8001B789BB20548194602F0DAFD7B681B787A
:1003B800002BEAD10837BD4680BD00BF00100140C0
:1003C80080B584B000AF0023FB600320012101F059
:1003D800A3FD1020012101F07BFE03237B60022393
:1003E8007B7201233B720023BB720123FB723B1D0E
:1003F8001848194600F026FAFFF77CFF164B1B68D1
:10040800164AA2FB03239B091846FFF74BFF034636
:10041800002B00D0FEE7FB680133FB600D4801218B
:1004280000F058FD0B48022100F054FD642000F054
:1004380019F80848012100F09FFD0648022100F044
:100448009BFD642000F00EF80548F96804F0FEFFF3
:10045800E1E700BF0004024004000020D34D621011
:100468008CAD000880B483B000AF7860064A7B6822
:10047800136000BF044B1B68002BFBD10C37BD4633
:100488005DF8047B704700BF0C09002080B400AF02
:10049800044B1B68013B034A1360BD465DF8047BAF
:1004A800704700BF0C09002080B500AF114A114BFE
:1004B8001B6843F0010313600E4B00229A600D4A3B
:1004C8000C4B1B6823F0847323F480331360094BAF
:1004D800094A5A60074A074B1B6823F480231360B4
:1004E800044B0022DA6000F087F8044B4FF00062FA
:1004F8009A6080BD003802401030002400ED00E012
:1005080080B487B000AF00233B6100237B610223E6
:10051800FB600023BB6002237B60324B9B6803F0C7
:100528000C033B613B69042B07D0082B09D0002B37
:100538003FD12D4B2D4A1A603FE02B4B2C4A1A60B5
:100548003BE0284B5B6803F480039B0DBB60254BA5
:100558005B6803F03F037B60BB68002B0DD0244A27
:100568007B68B2FBF3F21F4B596847F6C0730B4028
:100578009B0903FB02F37B610CE01C4A7B68B2FB1E
:10058800F3F2184B596847F6C0730B409B0903FBFD
:1005980002F37B61134B5B6803F440331B0C01339C
:1005A8005B00FB607A69FB68B2FBF3F30E4A1360E9
:1005B80003E00D4B0D4A1A6000BF0A4B9B6803F01D
:1005C800F0031B090B4AD35CDBB23B61064B1A688C
:1005D8003B6922FA03F3044A13601C37BD465DF8F1
:1005E800047B704700380240040000200024F40017
:1005F80040787D010800002080B483B000AF00235C
:100608007B6000233B602F4A2E4B1B6843F48033EA
:1006180013602C4B1B6803F400333B607B68013389
:100628007B603B68002B03D17B68B3F5A06FF0D1EA
:10063800244B1B6803F40033002B02D001233B60DA
:1006480001E000233B603B68012B36D11D4A1D4B5E
:100658009B6893601B4A1B4B9B6843F40043936061
:10066800184A184B9B6843F4A0539360154B164ADD
:100678005A60144A134B1B6843F08073136000BF21
:10068800104B1B6803F00073002BF9D00F4B40F29E
:1006980003721A600B4A0B4B9B6823F003039360A9
:1006A800084A084B9B6843F00203936000BF054B60
:1006B8009B6803F00C03082BF9D10C37BD465DF895
:1006C800047B704700380240193C4005003C02405A
:1006D80080B582B000AF78607B68504A934223D0DF
:1006E8007B684F4A93421FD07B684E4A93421BD087
:1006F8007B684D4A934217D07B684C4A934213D08B
:100708007B684B4A93420FD07B684A4A93420BD08E
:100718007B68494A934207D07B68484A934203D092
:1007280047488221FFF7E0FD7B683C4A934208D1A5
:100738000120012101F004FD0120002101F000FD4C
:1007480068E07B68364A934208D10220012101F013
:10075800F7FC0220002101F0F3FC5BE07B68314AE2
:10076800934208D10420012101F0EAFC0420002171
:1007780001F0E6FC4EE07B682B4A934208D1082042
:10078800012101F0DDFC0820002101F0D9FC41E045
:100798007B68264A934208D11020012101F0D0FC41
:1007A8001020002101F0CCFC34E07B68204A934201
:1007B80008D12020012101F0C3FC2020002101F0F4
:1007C800BFFC27E07B681B4A934208D140200121E7
:1007D80001F0B6FC4020002101F0B2FC1AE07B6871
:1007E800154A934208D18020012101F0A9FC8020FC
:1007F800002101F0A5FC0DE07B68104A934209D165
:100808004FF48070012101F09BFC4FF480700021AF
:1008180001F096FC0837BD4680BD00BF00000240CD
:100828000004024000080240000C02400010024090
:100838000014024000180240001C02400020024040
:10084800A0AD000880B586B000AF7860396000239D
:100858007B6100233B610023FB607B687A4A9342FB
:1008680023D07B68794A93421FD07B68784A9342A9
:100878001BD07B68774A934217D07B68764A9342AD
:1008880013D07B68754A93420FD07B68744A9342B1
:100898000BD07B68734A934207D07B68724A9342B5
:1008A80003D07248C221FFF71FFD3B681B68002B6D
:1008B80003D16E48C321FFF717FD3B681B79002B56
:1008C8000FD03B681B79012B0BD03B681B79022B9F
:1008D80007D03B681B79032B03D06448C421FFF77A
:1008E80003FD3B68DB79002B0BD03B68DB79012BE0
:1008F80007D03B68DB79022B03D05C48C521FFF7A2
:10090800F3FC00237B6197E07B69012202FA03F381
:100918003B613B681A683B691340FB60FA683B69B6
:100928009A4240F086807B681A687B695B001946AA
:1009380003238B40DB431A407B681A607B681A6884
:100948003B681B7919467B695B0001FA03F31A437C
:100958007B681A603B681B79012B03D03B681B79C5
:10096800022B4ED13B685B79002B0FD03B685B793B
:10097800012B0BD03B685B79022B07D03B685B7976
:10098800032B03D03948D721FFF7AEFC7B689A6860
:100998007B695B00194603238B40DB431A407B6865
:1009A8009A607B689A683B685B7919467B695B004B
:1009B80001FA03F31A437B689A603B689B79002B22
:1009C80007D03B689B79012B03D02848DE21FFF72D
:1009D8008BFC7B685A687B699BB2194601238B4064
:1009E800DB431A407B685A607B685B683A68927997
:1009F80011467A6992B201FA02F292B21A437B68FE
:100A08005A607B68DA687B699BB25B00032101FA54
:100A180003F3DB431A407B68DA607B68DA683B687B
:100A2800DB7919467B695B0001FA03F31A437B689B
:100A3800DA607B6901337B617B690F2B7FF664AFDA
:100A48001837BD4680BD00BF0000024000040240C8
:100A580000080240000C024000100240001402404E
:100A680000180240001C024000200240A0AD00080F
:100A780080B483B000AF78607B684FF6FF721A606D
:100A88007B6800221A717B6800225A717B680022F9
:100A98009A717B680022DA710C37BD465DF8047BD9
:100AA800704700BF80B584B000AF78600B467B808C
:100AB8004FF48033FB607B68224A934224D07B68E2
:100AC800214A934220D07B68204A93421CD07B68FD
:100AD8001F4A934218D07B681E4A934214D07B6801
:100AE8001D4A934210D07B681C4A93420CD07B6805
:100AF8001B4A934208D07B681A4A934204D01A488A
:100B080040F20B11FFF7F0FB7B88002B04D116484D
:100B18004FF48671FFF7E8FB7A88FB681343FB60A4
:100B2800FA687B68DA617A887B68DA61FA687B68D8
:100B3800DA617B68DB69FB607B68DB69FB60103727
:100B4800BD4680BD0000024000040240000802408B
:100B5800000C02400010024000140240001802403D
:100B6800001C024000200240A0AD000880B584B0FF
:100B780000AF78600B467B800023FB737B683A4AA2
:100B8800934224D07B68394A934220D07B68384A04
:100B980093421CD07B68374A934218D07B68364A08
:100BA800934214D07B68354A934210D07B68344A0C
:100BB80093420CD07B68334A934208D07B68324A10
:100BC800934204D0314840F23711FFF78DFB7B8800
:100BD800012B39D07B88022B36D07B88042B33D06D
:100BE8007B88082B30D07B88102B2DD07B88202B3E
:100BF8002AD07B88402B27D07B88802B24D07B88E9
:100C0800B3F5807F20D07B88B3F5007F1CD07B882C
:100C1800B3F5806F18D07B88B3F5006F14D07B884C
:100C2800B3F5805F10D07B88B3F5005F0CD07B886C
:100C3800B3F5804F08D07B88B3F5004F04D0134834
:100C48004FF49C71FFF750FB7B681A697B8813404F
:100C5800002B02D00123FB7301E00023FB73FB7B15
:100C680018461037BD4680BD00000240000402400F
:100C780000080240000C024000100240001402402C
:100C880000180240001C024000200240A0AD0008ED
:100C980080B582B000AF78607B68174A934224D051
:100CA8007B68164A934220D07B68154A93421CD031
:100CB8007B68144A934218D07B68134A934214D035
:100CC8007B68124A934210D07B68114A93420CD039
:100CD8007B68104A934208D07B680F4A934204D03D
:100CE8000E4840F24D11FFF7FFFA7B681B699BB273
:100CF80018460837BD4680BD000002400004024087
:100D080000080240000C024000100240001402409B
:100D180000180240001C024000200240A0AD00085C
:100D280080B584B000AF78600B467B800023FB73EE
:100D38007B683A4A934224D07B68394A934220D050
:100D48007B68384A93421CD07B68374A934218D054
:100D58007B68364A934214D07B68354A934210D058
:100D68007B68344A93420CD07B68334A934208D05C
:100D78007B68324A934204D031484FF4AF71FFF791
:100D8800B3FA7B88012B39D07B88022B36D07B883D
:100D9800042B33D07B88082B30D07B88102B2DD0A8
:100DA8007B88202B2AD07B88402B27D07B88802BE0
:100DB80024D07B88B3F5807F20D07B88B3F5007F73
:100DC8001CD07B88B3F5806F18D07B88B3F5006F93
:100DD80014D07B88B3F5805F10D07B88B3F5005FB3
:100DE8000CD07B88B3F5804F08D07B88B3F5004FD3
:100DF80004D0134840F25F11FFF776FA7B685A690E
:100E08007B881340002B02D00123FB7301E00023F1
:100E1800FB73FB7B18461037BD4680BD00000240BF
:100E28000004024000080240000C0240001002408A
:100E38000014024000180240001C0240002002403A
:100E4800A0AD000880B582B000AF78607B68174A13
:100E5800934224D07B68164A934220D07B68154A77
:100E680093421CD07B68144A934218D07B68134A7B
:100E7800934214D07B68124A934210D07B68114A7F
:100E880093420CD07B68104A934208D07B680F4A83
:100E9800934204D00E484FF4BA71FFF725FA7B68E5
:100EA8005B699BB218460837BD4680BD000002400A
:100EB8000004024000080240000C024000100240FA
:100EC8000014024000180240001C024000200240AA
:100ED800A0AD000880B582B000AF78600B467B807B
:100EE8007B681B4A934224D07B681A4A934220D0DD
:100EF8007B68194A93421CD07B68184A934218D0E1
:100F08007B68174A934214D07B68164A934210D0E4
:100F18007B68154A93420CD07B68144A934208D0E8
:100F28007B68134A934204D012484FF4C371FFF709
:100F3800DBF97B88002B04D10E4840F28711FFF7BC
:100F4800D3F97B687A881A830837BD4680BD00BF0D
:100F5800000002400004024000080240000C024069
:100F6800001002400014024000180240001C024019
:100F780000200240A0AD000880B582B000AF7860C4
:100F88000B467B807B681B4A934224D07B681A4AB5
:100F9800934220D07B68194A93421CD07B68184A38
:100FA800934218D07B68174A934214D07B68164A3C
:100FB800934210D07B68154A93420CD07B68144A40
:100FC800934208D07B68134A934204D0124840F2F7
:100FD8009911FFF789F97B88002B04D10E484FF44B
:100FE800CD71FFF781F97B687A885A830837BD4647
:100FF80080BD00BF0000024000040240000802401B
:10100800000C024000100240001402400018024088
:10101800001C024000200240A0AD000880B582B04C
:1010280000AF78600B467B8013467B707B683E4A36
:10103800934224D07B683D4A934220D07B683C4A47
:1010480093421CD07B683B4A934218D07B683A4A4B
:10105800934214D07B68394A934210D07B68384A4F
:1010680093420CD07B68374A934208D07B68364A53
:10107800934204D0354840F2AD11FFF735F97B882B
:10108800012B39D07B88022B36D07B88042B33D0B8
:101098007B88082B30D07B88102B2DD07B88202B89
:1010A8002AD07B88402B27D07B88802B24D07B8834
:1010B800B3F5807F20D07B88B3F5007F1CD07B8878
:1010C800B3F5806F18D07B88B3F5006F14D07B8898
:1010D800B3F5805F10D07B88B3F5005F0CD07B88B8
:1010E800B3F5804F08D07B88B3F5004F04D017487C
:1010F8004FF4D771FFF7F8F87B78002B07D07B788F
:10110800012B04D0114840F2AF11FFF7EDF87B78BE
:10111800002B03D07B687A881A8302E07B687A8880
:101128005A830837BD4680BD0000024000040240D3
:1011380000080240000C0240001002400014024067
:1011480000180240001C024000200240A0AD000828
:1011580080B582B000AF78600B467B807B68174A09
:10116800934224D07B68164A934220D07B68154A64
:1011780093421CD07B68144A934218D07B68134A68
:10118800934214D07B68124A934210D07B68114A6C
:1011980093420CD07B68104A934208D07B680F4A70
:1011A800934204D00E484FF4E271FFF79DF87A8815
:1011B8007B685A610837BD4680BD00BF0000024009
:1011C8000004024000080240000C024000100240E7
:1011D8000014024000180240001C02400020024097
:1011E800A0AD000880B582B000AF78600B467B8068
:1011F8007B68184A934224D07B68174A934220D0D0
:101208007B68164A93421CD07B68154A934218D0D3
:101218007B68144A934214D07B68134A934210D0D7
:101228007B68124A93420CD07B68114A934208D0DB
:101238007B68104A934204D00F484FF4E971FFF7D6
:1012480053F87B685A697B885A407B685A6108372B
:10125800BD4680BD00000240000402400008024074
:10126800000C024000100240001402400018024026
:10127800001C024000200240A0AD000880B584B0E8
:1012880000AF78600B467B8013467B700023FB60C1
:101298000023BB607B68834A934224D07B68824AE0
:1012A800934220D07B68814A93421CD07B68804A55
:1012B800934218D07B687F4A934214D07B687E4A59
:1012C800934210D07B687D4A93420CD07B687C4A5D
:1012D800934208D07B687B4A934204D07A4840F214
:1012E8001D21FFF701F87B88002B31D07B88012B6B
:1012F8002ED07B88022B2BD07B88032B28D07B8891
:10130800042B25D07B88052B22D07B88062B1FD069
:101318007B88072B1CD07B88082B19D07B88092B4E
:1013280016D07B880A2B13D07B880B2B10D07B8898
:101338000C2B0DD07B880D2B0AD07B880E2B07D069
:101348007B880F2B04D0604840F21E21FEF7CCFFAB
:101358007B78002B6DD07B78092B6AD07B78002BAB
:1013680067D07B78002B64D07B78002B61D07B78AA
:10137800002B5ED07B78012B5BD07B78012B58D07B
:101388007B78022B55D07B78022B52D07B78022BAE
:101398004FD07B78032B4CD07B78042B49D07B78BB
:1013A800042B46D07B78042B43D07B78052B40D088
:1013B8007B78052B3DD07B78092B3AD07B78062BA0
:1013C80037D07B78092B34D07B78072B31D07B78CA
:1013D800072B2ED07B78072B2BD07B78082B28D097
:1013E8007B78082B25D07B78082B22D07B78092B9B
:1013F8001FD07B78092B1CD07B780A2B19D07B78DF
:101408000A2B16D07B780B2B13D07B780C2B10D0A3
:101418007B780C2B0DD07B780C2B0AD07B780D2B8E
:1014280007D07B780F2B04D0274840F21F21FEF706
:101438005BFF7B787A8802F0070292009340FB609A
:101448007B88DB089BB218467B88DB089BB21A4670
:101458007B68083253F822207B8803F007039B003F
:1014680019460F238B40DB4302EA03017B6800F136
:10147800080243F822107B88DB089BB21A467B6877
:10148800083253F82220FB681343BB607B88DB08D3
:101498009BB21A467B680832B96843F822101037A5
:1014A800BD4680BD00000240000402400008024022
:1014B800000C0240001002400014024000180240D4
:1014C800001C024000200240A0AD000880B400AF1C
:1014D800104A104B1B6843F0010313600D4B0022A8
:1014E8009A600C4A0B4B1B6823F0847323F48033F7
:1014F8001360084B084A5A60064A064B1B6823F4D7
:1015080080231360034B0022DA60BD465DF8047B3C
:10151800704700BF003802401030002480B582B008
:1015280000AF0346FB71FB79002B09D0FB79012B37
:1015380006D0FB79052B03D00648F721FEF7D4FE29
:10154800054B00221A70044AFB7913700837BD4610
:1015580080BD00BFB4AD00080238024080B582B03B
:1015680000AF00233B600023FB710023BB713120D7
:1015780001F04CF80346BB713B6801333B603B68A4
:10158800B3F5A06F02D0BB79002BF0D0312001F069
:101598003DF80346002B02D00123FB7101E0002334
:1015A800FB71FB7918460837BD4680BD80B584B00D
:1015B80000AF0346FB710023FB60FB791F2B04D9A6
:1015C8000B4840F22F11FEF78FFE0A4B1B68FB6099
:1015D800FB6823F0F803FB60FB79DB00FA68134330
:1015E800FB60044AFB6813601037BD4680BD00BF2E
:1015F800B4AD00080038024080B582B000AF0346A1
:10160800FB71FB79002B07D0FB79012B04D005482F
:101618004FF4A971FEF768FE034AFB791360083797
:10162800BD4680BDB4AD00080000474280B582B019
:1016380000AF0346FB71FB79002B0AD0FB79012B25
:1016480007D0FB79042B04D00D4840F26B11FEF74C
:101658004BFE0C4B00221A700A4B00221A70FB79C1
:10166800012B02D0042B04D007E0064B01221A708C
:1016780003E0044B05221A7000BF0837BD4680BD41
:10168800B4AD00087038024080B582B000AF0346A0
:10169800FB71FB79002B07D0FB79012B04D005489F
:1016A80040F29311FEF720FE034AFB7913600837D6
:1016B800BD4680BDB4AD0008800E474280B584B0F9
:1016C80000AFF860B9607A603B60FB68002B08D017
:1016D800FB68B3F5800F04D023484FF4DF71FEF7A1
:1016E80003FEBB683F2B04D91F4840F2BF11FEF729
:1016F800FBFD7B68BF2B03D97B68B3F5D87F04D982
:1017080019484FF4E071FEF7EFFD3B68022B0DD04E
:101718003B68042B0AD03B68062B07D03B68082B94
:1017280004D0114840F2C111FEF7DEFDBB69032B5E
:1017380002D9BB690F2B04D90B484FF4E171FEF7AE
:10174800D3FD0A497B689A01BB681A433B685B086A
:10175800013B1B041A43FB681A43BB691B0613436E
:101768004B601037BD4680BDB4AD0008003802405C
:1017780080B582B000AF0346FB71FB79002B07D020
:10178800FB79012B04D0054840F2D511FEF7ACFDDA
:10179800034AFB7913600837BD4680BDB4AD000825
:1017A8006000474280B582B000AF786039607B68DE
:1017B800BF2B03D97B68B3F5D87F04D90D484FF404
:1017C800F871FEF791FD3B68012B02D93B68072BA6
:1017D80004D9084840F2F111FEF786FD06497B68F6
:1017E8009A013B681B071343C1F884300837BD468C
:1017F80080BD00BFB4AD00080038024080B582B09B
:1018080000AF0346FB71FB79002B07D0FB79012B56
:1018180004D005484FF40071FEF766FD034AFB79D2
:1018280013600837BD4680BDB4AD00086800474264
:1018380080B582B000AF0346FB71FB79002B07D05F
:10184800FB79012B04D0054840F21221FEF74CFD2C
:10185800034AFB7913600837BD4680BDB4AD000864
:101868004C00474280B584B000AF786039600023EF
:10187800FB607B68002B10D07B68B3F5001F0CD091
:101888007B68B3F5800F08D07B68B3F5C00F04D030
:10189800174840F22D21FEF727FD3B68002B14D096
:1018A8003B68B3F1806F10D03B68B3F1A06F0CD0E8
:1018B8003B68B3F1C06F08D03B68B3F1E06F04D068
:1018C8000B4840F22E21FEF70FFD0A4B9B68FB6088
:1018D800FB6823F0EC63FB607A683B681343FA68A3
:1018E8001343FB60034AFB6893601037BD4680BD15
:1018F800B4AD00080038024080B584B000AF78600D
:1019080039600023FB607B68002B10D07B68B3F143
:10191800804F0CD07B68B3F1004F08D07B68B3F1DF
:10192800404F04D0174840F25321FEF7DDFC3B68D6
:10193800002B14D03B68B3F1005F10D03B68B3F1C3
:10194800205F0CD03B68B3F1405F08D03B68B3F12F
:10195800605F04D00B484FF41571FEF7C5FC0A4BC5
:101968009B68FB60FB6823F07843FB607A683B6800
:101978001343FA681343FB60034AFB68936010370C
:10198800BD4680BDB4AD00080038024080B584B0C3
:1019980000AF78600023FB607B68002B0AD07B686F
:1019A800012B07D07B68022B04D00B484FF42F7112
:1019B800FEF79AFC094B9B68FB60FB6823F0030366
:1019C800FB60FA687B681343FB60044AFB6893601A
:1019D8001037BD4680BD00BFB4AD000800380240D6
:1019E80080B400AF054B9B68DBB203F00C03DBB29D
:1019F8001846BD465DF8047B704700BF00380240BA
:101A080080B584B000AF78600023FB607B68002B52
:101A18001CD07B68802B19D07B68902B16D07B68F4
:101A2800A02B13D07B68B02B10D07B68C02B0DD0B7
:101A38007B68D02B0AD07B68E02B07D07B68F02B23
:101A480004D00B4840F2F121FEF74EFC094B9B688D
:101A5800FB60FB6823F0F003FB60FA687B681343C4
:101A6800FB60044AFB6893601037BD4680BD00BF29
:101A7800B4AD00080038024080B584B000AF78608B
:101A88000023FB607B68002B14D07B68B3F5805F74
:101A980010D07B68B3F5A05F0CD07B68B3F5C05F4E
:101AA80008D07B68B3F5E05F04D00B4840F21131F1
:101AB800FEF71AFC094B9B68FB60FB6823F4E053B4
:101AC800FB60FA687B681343FB60044AFB68936019
:101AD8001037BD4680BD00BFB4AD000800380240D5
:101AE80080B584B000AF78600023FB607B68002B72
:101AF80014D07B68B3F5805F10D07B68B3F5A05F26
:101B08000CD07B68B3F5C05F08D07B68B3F5E05FA5
:101B180004D00B484FF44C71FEF7E6FB094B9B6869
:101B2800FB60FB6823F46043FB607B68DB00FA68BA
:101B38001343FB60034AFB6893601037BD4680BDC2
:101B4800B4AD00080038024080B489B000AF7860B6
:101B58000023BB6100237B610023FB6102233B61FF
:101B68000023FB600223BB60484B9B6803F00C0317
:101B7800BB61BB69042B07D0082B09D0002B3FD1D0
:101B88007B68434A1A603FE07B68424A1A603BE040
:101B98003E4B5B6803F480039B0DFB603B4B5B682B
:101BA80003F03F03BB60FB68002B0DD0394ABB68CC
:101BB800B2FBF3F2354B596847F6C0730B409B09EB
:101BC80003FB02F3FB610CE0314ABB68B2FBF3F2A2
:101BD8002E4B596847F6C0730B409B0903FB02F371
:101BE800FB612A4B5B6803F440331B0C01335B0039
:101BF8003B61FA693B69B2FBF3F27B681A6003E068
:101C08007B68234A1A6000BF204B9B6803F0F003EF
:101C1800BB61BB691B09BB611F4ABB6913441B78C5
:101C2800DBB27B617B681A687B69DA407B685A6043
:101C3800164B9B6803F4E053BB61BB699B0ABB610D
:101C4800154ABB6913441B78DBB27B617B685A6811
:101C58007B69DA407B689A600C4B9B6803F46043AD
:101C6800BB61BB695B0BBB610B4ABB6913441B7847
:101C7800DBB27B617B685A687B69DA407B68DA6033
:101C88002437BD465DF8047B704700BF003802402A
:101C98000024F40040787D011800002080B584B04D
:101CA80000AF78600023FB607B68B3F5807F00F0AD
:101CB80081807B68B3F5007F7CD07B684F4A934274
:101CC80078D07B684E4A934274D07B684D4A9342E1
:101CD80070D07B684C4A93426CD07B684B4A9342E5
:101CE80068D07B684A4A934264D07B68494A9342E9
:101CF80060D07B68484A93425CD07B68474A9342ED
:101D080058D07B68464A934254D07B68454A9342F0
:101D180050D07B68444A93424CD07B68434A9342F4
:101D280048D07B68424A934244D07B68414A9342F8
:101D380040D07B68404A93423CD07B683F4A9342FC
:101D480038D07B683E4A934234D07B683D4A934200
:101D580030D07B683C4A93422CD07B683B4A934204
:101D680028D07B683A4A934224D07B68394A934208
:101D780020D07B68384A93421CD07B68374A93420C
:101D880018D07B68364A934214D07B68354A934210
:101D980010D07B68344A93420CD07B68334A934214
:101DA80008D07B68324A934204D0324840F2E1318D
:101DB800FEF79AFA7B6803F44073B3F5407F11D1BC
:101DC8002D4B9B68FB60FB6823F4F813FB607B6872
:101DD80023F0704323F44073FA681343FB60264AE8
:101DE800FB6893602449244B1A6F7B68C3F30B0389
:101DF80013430B671037BD4680BD00BF00030200C8
:101E080000030300000304000003050000030600AC
:101E180000030700000308000003090000030A008C
:101E280000030B0000030C0000030D0000030E006C
:101E380000030F000003100000031100000312004C
:101E4800000313000003140000031500000316002C
:101E580000031700000318000003190000031A000C
:101E680000031B0000031C0000031D0000031E00EC
:101E780000031F00B4AD00080038024080B582B0EE
:101E880000AF0346FB71FB79002B07D0FB79012BD0
:101E980004D0054840F2FF31FEF726FA034AFB79E1
:101EA80013600837BD4680BDB4AD00083C0E4742FC
:101EB80080B582B000AF0346FB71FB79002B07D0D9
:101EC800FB79012B04D005484FF48261FEF70CFA28
:101ED800034AFB7913600837BD4680BDB4AD0008DE
:101EE800400E474280B582B000AF78607B68002B17
:101EF80007D07B68012B04D0054840F22441FEF747
:101F0800F3F9044A7B6813600837BD4680BD00BFFB
:101F1800B4AD00085C01474280B582B000AF78607C
:101F28000B46FB707A68154B1340002B02D17B6877
:101F3800002B04D1124840F24A41FEF7D5F9FB784C
:101F4800002B07D0FB78012B04D00D4840F24C4100
:101F5800FEF7CAF9FB78002B06D00A49094B1A6B21
:101F68007B6813430B6306E00649064B1A6B7B68D4
:101F7800DB4313400B630837BD4680BD00EE9B81F1
:101F8800B4AD00080038024080B582B000AF786078
:101F98000B46FB707B6823F0F103002B02D17B68B2
:101FA800002B04D1114840F26A41FEF79DF9FB78F5
:101FB800002B07D0FB78012B04D00C4840F26B4172
:101FC800FEF792F9FB78002B06D00949084B5A6BAB
:101FD8007B6813434B6306E00549054B5A6B7B68E6
:101FE800DB4313404B630837BD4680BDB4AD0008E2
:101FF8000038024080B582B000AF78600B46FB70B5
:102008007B6823F00103002B02D17B68002B04D1ED
:10201800114840F28541FEF767F9FB78002B07D09D
:10202800FB78012B04D00C4840F28641FEF75CF99E
:10203800FB78002B06D00949084B9A6B7B68134341
:102048008B6306E00549054B9A6B7B68DB431340BD
:102058008B630837BD4680BDB4AD00080038024028
:1020680080B582B000AF78600B46FB707A68154B7C
:102078001340002B02D17B68002B04D1124840F298
:10208800B741FEF731F9FB78002B07D0FB78012B1D
:1020980004D00D484FF49761FEF726F9FB78002B22
:1020A80006D00A49094B1A6C7B6813430B6406E097
:1020B8000649064B1A6C7B68DB4313400B640837F0
:1020C800BD4680BD003601C9B4AD000800380240E5
:1020D80080B582B000AF78600B46FB707A68154B0C
:1020E8001340002B02D17B68002B04D1124840F228
:1020F800DF41FEF7F9F8FB78002B07D0FB78012BBE
:1021080004D00D484FF49C61FEF7EEF8FB78002BE5
:1021180006D00A49094B5A6C7B6813434B6406E0A6
:102128000649064B5A6C7B68DB4313404B640837FF
:10213800BD4680BDCCA0F8FFB4AD00080038024011
:1021480080B582B000AF78600B46FB707A68154B9B
:102158001340002B02D17B68002B04D1124840F2B7
:102168000651FEF7C1F8FB78002B07D0FB78012B4E
:1021780004D00D4840F20751FEF7B6F8FB78002B63
:1021880006D00A49094B1A697B6813430B6106E0BC
:102198000649064B1A697B68DB4313400B61083715
:1021A800BD4680BD00EE9FDDB4AD0008003802409A
:1021B80080B582B000AF78600B46FB707B6823F077
:1021C800F103002B02D17B68002B04D1114840F2A7
:1021D8002351FEF789F8FB78002B07D0FB78012BF9
:1021E80004D00C4840F22451FEF77EF8FB78002B0F
:1021F80006D00949084B5A697B6813434B6106E0CE
:102208000549054B5A697B68DB4313404B61083726
:10221800BD4680BDB4AD00080038024080B582B02C
:1022280000AF78600B46FB707B6823F00103002B3E
:1022380002D17B68002B04D1114840F23B51FEF7D4
:1022480053F8FB78002B07D0FB78012B04D00C48FF
:1022580040F23C51FEF748F8FB78002B06D00949BC
:10226800084B9A697B6813438B6106E00549054B67
:102278009A697B68DB4313408B610837BD4680BD94
:10228800B4AD00080038024080B582B000AF786075
:102298000B46FB707A68154B1340002B02D17B6804
:1022A800002B04D1124840F26A51FEF71DF8FB7862
:1022B800002B07D0FB78012B04D00D4840F26B515E
:1022C800FEF712F8FB78002B06D00A49094B1A6A68
:1022D8007B6813430B6206E00649064B1A6A7B6863
:1022E800DB4313400B620837BD4680BD003601C989
:1022F800B4AD00080038024080B582B000AF786005
:102308000B46FB707A68154B1340002B02D17B6893
:10231800002B04D1124840F28E51FDF7E5FFFB78FF
:10232800002B07D0FB78012B04D00D4840F28F51C9
:10233800FDF7DAFFFB78002B06D00A49094B5A6AE9
:102348007B6813434B6206E00649064B5A6A7B6872
:10235800DB4313404B620837BD4680BDCCA6F8FF6F
:10236800B4AD00080038024080B582B000AF786094
:102378000B46FB707A68154B1340002B02D17B6823
:10238800002B04D1124840F2BC51FDF7ADFFFB7899
:10239800002B07D0FB78012B04D00D4840F2BD512B
:1023A800FDF7A2FFFB78002B06D00A49094B1A6DEE
:1023B8007B6813430B6506E00649064B1A6D7B687C
:1023C800DB4313400B650837BD4680BD006E98811E
:1023D800B4AD00080038024080B582B000AF786024
:1023E8000B46FB707B6823F0F103002B02D17B685E
:1023F800002B04D1114840F2DC51FDF775FFFB7842
:10240800002B07D0FB78012B04D00C4840F2DD519B
:10241800FDF76AFFFB78002B06D00949084B5A6D77
:102428007B6813434B6506E00549054B5A6D7B688D
:10243800DB4313404B650837BD4680BDB4AD00088B
:102448000038024080B582B000AF78600B46FB7060
:102458007B6823F00103002B02D17B68002B04D199
:10246800114840F2F751FDF73FFFFB78002B07D0EA
:10247800FB78012B04D00C484FF4BF61FDF734FF03
:10248800FB78002B06D00949084B9A6D7B681343EB
:102498008B6506E00549054B9A6D7B68DB43134065
:1024A8008B650837BD4680BDB4AD000800380240D2
:1024B80080B582B000AF78600B46FB707A68154B28
:1024C8001340002B02D17B68002B04D1124840F244
:1024D8002961FDF709FFFB78002B07D0FB78012B5A
:1024E80004D00D4840F22A61FDF7FEFEFB78002B70
:1024F80006D00A49094B1A6E7B6813430B6606E03F
:102508000649064B1A6E7B68DB4313400B66083797
:10251800BD4680BD003601C9B4AD00080038024090
:1025280080B582B000AF78600B46FB707A68154BB7
:102538001340002B02D17B68002B04D1124840F2D3
:102548005161FDF7D1FEFB78002B07D0FB78012BFA
:1025580004D00D4840F25261FDF7C6FEFB78002B0F
:1025680006D00A49094B5A6E7B6813434B6606E04E
:102578000649064B5A6E7B68DB4313404B660837A7
:10258800BD4680BDCCA0F8FFB4AD000800380240BD
:1025980080B582B000AF03460A46FB711346BB7193
:1025A800FB7903F0C003002B02D1FB79002B04D187
:1025B800144840F27E61FDF797FEBB79002B07D0E7
:1025C800BB79012B04D00F4840F27F61FDF78CFEE8
:1025D800BB79002B08D00C490B4B1B78DAB2FB797E
:1025E8001343DBB20B7009E00749074B1B78DAB2DB
:1025F800FB79DB43DBB21340DBB20B700837BD4617
:1026080080BD00BFB4AD00080D38024080B586B06B
:1026180000AF0346FB710023FB6000237B610023AE
:10262800FB74FB79212B28D0FB79312B25D0FB7942
:10263800392B22D0FB79412B1FD0FB79612B1CD081
:10264800FB79792B19D0FB797A2B16D0FB797B2B68
:1026580013D0FB797C2B10D0FB797D2B0DD0FB7927
:102668007E2B0AD0FB797F2B07D0FB793B2B04D03C
:10267800174840F2A661FDF737FEFB795B09DBB22C
:10268800FB60FB68012B03D1124B1B687B6109E0DF
:10269800FB68022B03D10F4B1B6F7B6102E00D4BD4
:1026A8005B6F7B61FB7903F01F03FB60FB687A6952
:1026B80022FA03F303F00103002B02D00123FB7479
:1026C80001E00023FB74FB7C18461837BD4680BD2B
:1026D800B4AD00080038024080B400AF044A044B8F
:1026E8005B6F43F080735367BD465DF8047B7047AA
:1026F8000038024080B584B000AF0346FB71002368
:10270800FB73FB79012B16D0FB79022B13D0FB79D5
:10271800042B10D0FB79082B0DD0FB79102B0AD095
:10272800FB79802B07D0FB79202B04D00A4840F294
:10273800E461FDF7D9FD094BDA68FB791340002BFA
:1027480002D00123FB7301E00023FB73FB7B1846D7
:102758001037BD4680BD00BFB4AD00080038024048
:1027680080B582B000AF0346FB71FB7903F04003EC
:10277800002B02D1FB79002B04D1054840F20371EC
:10278800FDF7B2FD034AFB7913700837BD4680BDDB
:10279800B4AD00080E38024080B582B000AF786052
:1027A8007B68394A934217D07B68384A934213D0E2
:1027B8007B68374A93420FD07B68364A93420BD0E6
:1027C8007B68354A934207D07B68344A934203D0EA
:1027D8003348BC21FDF788FD7B682B4A934208D11A
:1027E80010200121FFF788FD10200021FFF784FD4C
:1027F80047E07B68254A93420AD14FF40030012113
:10280800FFF742FD4FF400300021FFF73DFD38E0AF
:102818007B681F4A93420AD14FF480200121FFF7B9
:1028280033FD4FF480200021FFF72EFD29E07B685F
:10283800184A93420AD14FF400200121FFF724FDE2
:102848004FF400200021FFF71FFD1AE07B68124AB1
:1028580093420AD14FF480100121FFF715FD4FF480
:1028680080100021FFF710FD0BE07B680B4A9342B4
:1028780007D120200121FFF73FFD20200021FFF78D
:102888003BFD0837BD4680BD0010014000440040B4
:1028980000480040004C0040005000400014014037
:1028A800C4AD000880B58AB000AF786039600023F5
:1028B8007B6200233B620023FB610023BB617B68D2
:1028C800984A934217D07B68974A934213D07B6803
:1028D800964A93420FD07B68954A93420BD07B6807
:1028E800944A934207D07B68934A934203D0934813
:1028F800F221FDF7F9FC3B681B68002B04D03B680C
:102908001B688F4A934203D98C48F321FDF7ECFCEE
:102918003B689B88002B08D03B689B88B3F5805F99
:1029280003D08648F421FDF7DFFC3B68DB88002BE9
:1029380012D03B68DB88B3F5805F0DD03B68DB883D
:10294800B3F5005F08D03B68DB88B3F5405F03D080
:102958007A48F521FDF7C8FC3B681B89002B0DD090
:102968003B681B89B3F5806F08D03B681B89B3F5BA
:10297800C06F03D07148F621FDF7B6FC3B685B8950
:102988001A464FF6F3731340002B03D13B685B895B
:10299800002B03D16948F721FDF7A6FC3B689B890A
:1029A800002B12D03B689B89B3F5807F0DD03B6824
:1029B8009B89B3F5007F08D03B689B89B3F5407FBE
:1029C80003D05E48F821FDF78FFC3B689B89002BFC
:1029D80013D07B68534A93420FD07B68524A934284
:1029E8000BD07B68514A934207D07B68524A934286
:1029F80003D05248FD21FDF777FC7B681B8A9BB208
:102A08007B627B6A23F440537B623B68DB881A460F
:102A18007B6A13437B627B6A9AB27B681A827B6803
:102A28009B899BB27B627B6A23F4B05323F00C032F
:102A38007B623B689A883B681B8913439AB23B6860
:102A48005B8913439BB21A467B6A13437B627B6A9A
:102A58009AB27B689A817B689B8A9BB27B627B6A0D
:102A680023F440737B623B689B891A467B6A134355
:102A78007B627B6A9AB27B689A8207F108031846E0
:102A8800FFF762F87B68274A934203D07B682A4A9B
:102A9800934202D17B693B6201E03B693B627B6800
:102AA8009B899BB29BB21BB2002B0CDA3A6A134685
:102AB8009B0013449A001A443B681B685B00B2FBF6
:102AC800F3F3FB610BE03A6A13469B0013449A0048
:102AD8001A443B681B689B00B2FBF3F3FB61FB697C
:102AE800184AA2FB03235B091B017B627B6A1B0953
:102AF800642202FB03F3FA69D31ABB617B689B89E2
:102B08009BB29BB21BB2002B1EDABB69DB003233CF
:102B18000C4AA2FB03235B0903F007037A6A1343F9
:102B28007B621DE000100140004400400048004066
:102B3800004C00400050004000140140C4AD0008A3
:102B4800E07072001F85EB51BB691B013233084AE4
:102B5800A2FB03235B0903F00F037A6A13437B622A
:102B68007B6A9AB27B681A812837BD4680BD00BF50
:102B78001F85EB5180B483B000AF78607B684FF459
:102B880016521A607B6800229A807B680022DA80DD
:102B98007B6800221A817B680C225A817B6800229C
:102BA8009A810C37BD465DF8047B704780B584B0C8
:102BB80000AF786039600023FB607B68364A934237
:102BC80010D07B68354A93420CD07B68344A9342D4
:102BD80008D07B68334A934204D0334840F27311DB
:102BE800FDF782FB3B681B88002B09D03B681B88DC
:102BF800B3F5006F04D02C484FF4BA71FDF774FB9D
:102C08003B685B88002B09D03B685B88B3F5806F15
:102C180004D0254840F27511FDF766FB3B689B8898
:102C2800002B09D03B689B88B3F5007F04D01E4871
:102C38004FF4BB71FDF758FB3B68DB88002B09D0CC
:102C48003B68DB88B3F5807F04D0174840F27711E2
:102C5800FDF74AFB7B681B8A9BB2FB60FB6823F489
:102C68007063FB603B681A883B685B8813439AB2C1
:102C78003B689B8813439AB23B68DB8813439BB23B
:102C88001A46FB681343FB60FB689AB27B681A829A
:102C98001037BD4680BD00BF001001400044004011
:102CA8000048004000140140C4AD000880B483B05F
:102CB80000AF78607B6800221A807B6800225A8007
:102CC8007B6800229A807B680022DA800C37BD4638
:102CD8005DF8047B704700BF80B582B000AF7860B4
:102CE8000B46FB707B681F4A934218D07B681E4ACC
:102CF800934214D07B681D4A934210D07B681C4ACB
:102D080093420CD07B681B4A934208D07B681A4ACE
:102D1800934204D019484FF4D171FDF7E5FAFB78D6
:102D2800002B07D0FB78012B04D0144840F2A311E4
:102D3800FDF7DAFAFB78002B08D07B689B899BB2F9
:102D480043F400539AB27B689A8107E07B689B89B9
:102D58009BB223F400539AB27B689A810837BD4628
:102D680080BD00BF00100140004400400048004002
:102D7800004C00400050004000140140C4AD000861
:102D880080B582B000AF78600B46FB707B68184A4C
:102D9800934218D07B68174A934214D07B68164A2E
:102DA800934210D07B68154A93420CD07B68144A32
:102DB800934208D07B68134A934204D012484FF4D8
:102DC800DE71FDF791FA7B681B8B9BB223F0FF0342
:102DD8009AB27B681A837B681B8B9AB2FB789BB28A
:102DE80013439AB27B681A830837BD4680BD00BF7B
:102DF800001001400044004000480040004C0040E2
:102E08000050004000140140C4AD000880B582B0F5
:102E180000AF78600B46FB707B68204A934218D05D
:102E28007B681F4A934214D07B681E4A934210D095
:102E38007B681D4A93420CD07B681C4A934208D099
:102E48007B681B4A934204D01A4840F2D111FDF71F
:102E58004BFAFB78002B07D0FB78012B04D01548E0
:102E68004FF4E971FDF740FAFB78002B0AD07B6834
:102E78009B899BB26FEA43436FEA53439AB27B68DC
:102E88009A8107E07B689B899BB2C3F30E039AB2D1
:102E98007B689A810837BD4680BD00BF001001409D
:102EA8000044004000480040004C004000500040F2
:102EB80000140140C4AD000880B582B000AF78604E
:102EC8000B46FB707B681F4A934218D07B681E4AEA
:102ED800934214D07B681D4A934210D07B681C4AE9
:102EE80093420CD07B681B4A934208D07B681A4AED
:102EF800934204D0194840F2EB11FDF7F5F9FB783D
:102F0800002B07D0FB78012B04D014484FF4F6713E
:102F1800FDF7EAF9FB78002B08D07B689B8A9BB207
:102F280043F400639AB27B689A8207E07B689B8AC5
:102F38009BB223F400639AB27B689A820837BD4635
:102F480080BD00BF00100140004400400048004020
:102F5800004C00400050004000140140C4AD00087F
:102F680080B582B000AF78600B467B807B68174ADB
:102F7800934218D07B68164A934214D07B68154A4E
:102F8800934210D07B68144A93420CD07B68134A52
:102F9800934208D07B68124A934204D011484FF4F8
:102FA8000971FDF7A1F97B88B3F5007F04D30D48BB
:102FB80040F22521FDF798F97B88C3F308039AB2FC
:102FC8007B689A800837BD4680BD00BF001001406D
:102FD8000044004000480040004C004000500040C1
:102FE80000140140C4AD000880B582B000AF78601D
:102FF8007B68134A934218D07B68124A934214D0D4
:103008007B68114A934210D07B68104A93420CD0D7
:103018007B680F4A934208D07B680E4A934204D0DB
:103028000D484FF40D71FDF75FF97B689B889BB2E3
:10303800C3F308039BB218460837BD4680BD00BFDE
:10304800001001400044004000480040004C00408F
:103058000050004000140140C4AD000880B582B0A3
:1030680000AF78600B46FB707B681C4A934218D00F
:103078007B681B4A934214D07B681A4A934210D04B
:103088007B68194A93420CD07B68184A934208D04F
:103098007B68174A934204D0164840F26721FDF72F
:1030A80023F9FB780F2B04D912484FF41A71FDF756
:1030B8001BF97B681B8A9BB223F00F039AB27B68CB
:1030C8001A827B681B8A9AB2FB789BB213439AB226
:1030D8007B681A820837BD4680BD00BF00100140DA
:1030E8000044004000480040004C004000500040B0
:1030F80000140140C4AD000880B582B000AF78600C
:103108000B46FB707B681F4A934218D07B681E4AA7
:10311800934214D07B681D4A934210D07B681C4AA6
:1031280093420CD07B681B4A934208D07B681A4AAA
:10313800934204D0194840F27B21FDF7D5F8FB787B
:10314800002B07D0FB78012B04D014484FF41F71D3
:10315800FDF7CAF8FB78002B08D07B689B899BB2E7
:1031680043F002039AB27B689A8107E07B689B89E7
:103178009BB223F002039AB27B689A810837BD4656
:1031880080BD00BF001001400044004000480040DE
:10319800004C00400050004000140140C4AD00083D
:1031A80080B582B000AF78600B467B807B681D4A93
:1031B800934218D07B681C4A934214D07B681B4A00
:1031C800934210D07B681A4A93420CD07B68194A04
:1031D800934208D07B68184A934204D0174840F2BB
:1031E8009621FDF781F87B88002B08D07B88B3F502
:1031F800006F04D0114840F29721FDF775F87B68FD
:103208009B899BB223F400639AB27B689A817B689E
:103218009B899AB27B8813439AB27B689A81083754
:10322800BD4680BD001001400044004000480040F9
:10323800004C00400050004000140140C4AD00089C
:1032480080B582B000AF78600B467B807B681D4AF2
:10325800934218D07B681C4A934214D07B681B4A5F
:10326800934210D07B681A4A93420CD07B68194A63
:10327800934208D07B68184A934204D0174840F21A
:10328800DB21FDF731F87B88002B07D07B88202BCA
:1032980004D012484FF43771FDF726F87B681B8A73
:1032A8009BB223F020039AB27B681A827B681B8A40
:1032B8009AB27B8813439AB27B681A820837BD4654
:1032C80080BD00BF0010014000440040004800409D
:1032D800004C00400050004000140140C4AD0008FC
:1032E80080B582B000AF78600B46FB707B681F4AE0
:1032F800934218D07B681E4A934214D07B681D4ABB
:10330800934210D07B681C4A93420CD07B681B4ABE
:10331800934208D07B681A4A934204D0194840F275
:10332800ED21FCF7E1FFFB78002B07D0FB78012BA0
:1033380004D0144840F2EE21FCF7D6FFFB78002BAE
:1033480008D07B681B8A9BB243F480439AB27B689F
:103358001A8207E07B681B8A9BB223F480439AB2E7
:103368007B681A820837BD4680BD00BF0010014047
:103378000044004000480040004C0040005000401D
:1033880000140140C4AD000880B582B000AF786079
:103398007B68134A934218D07B68124A934214D030
:1033A8007B68114A934210D07B68104A93420CD034
:1033B8007B680F4A934208D07B680E4A934204D038
:1033C8000D4840F20531FCF78FFF7B689B899BB263
:1033D80043F001039AB27B689A810837BD4680BDE5
:1033E800001001400044004000480040004C0040EC
:1033F8000050004000140140C4AD000880B582B000
:1034080000AF78600B46FB707B681F4A934218D068
:103418007B681E4A934214D07B681D4A934210D0A1
:103428007B681C4A93420CD07B681B4A934208D0A5
:103438007B681A4A934204D0194840F23A31FCF7A3
:1034480053FFFB78002B07D0FB78012B04D01448DE
:1034580040F23B31FCF748FFFB78002B08D07B6833
:103468009B8A9BB243F008039AB27B689A8207E072
:103478007B689B8A9BB223F008039AB27B689A8286
:103488000837BD4680BD00BF001001400044004021
:1034980000480040004C004000500040001401402B
:1034A800C4AD000880B582B000AF78600B46FB70F1
:1034B8007B68144A934210D07B68134A93420CD01D
:1034C8007B68124A934208D07B68114A934204D021
:1034D800104840F28F31FCF707FF7B681B8B9BB2CB
:1034E800DBB29AB27B681A837B681B8B9AB2FB7833
:1034F8009BB21B029BB213439AB27B681A830837AC
:10350800BD4680BD00100140004400400048004016
:1035180000140140C4AD000880B582B000AF7860E7
:103528000B46FB707B681B4A934210D07B681A4A93
:1035380093420CD07B68194A934208D07B68184A9A
:10354800934204D0174840F2A231FCF7CDFEFB7835
:10355800002B07D0FB78012B04D0124840F2A3318E
:10356800FCF7C2FEFB78002B08D07B689B8A9BB2D5
:1035780043F020039AB27B689A8207E07B689B8AB3
:103588009BB223F020039AB27B689A820837BD4623
:1035980080BD00BF001001400044004000480040CA
:1035A80000140140C4AD000880B582B000AF786057
:1035B8000B46FB707B681B4A934210D07B681A4A03
:1035C80093420CD07B68194A934208D07B68184A0A
:1035D800934204D0174840F2BB31FCF785FEFB78D4
:1035E800002B07D0FB78012B04D012484FF46F71E1
:1035F800FCF77AFEFB78002B08D07B689B8A9BB28D
:1036080043F010039AB27B689A8207E07B689B8A32
:103618009BB223F010039AB27B689A820837BD46A2
:1036280080BD00BF00100140004400400048004039
:1036380000140140C4AD000880B582B000AF7860C6
:103648000B467B807B681D4A934218D07B681C4AD6
:10365800934214D07B681B4A934210D07B681A4A65
:1036680093420CD07B68194A934208D07B68184A69
:10367800934204D0174840F20241FCF735FE7B889C
:10368800042B07D07B88002B04D0124840F203415A
:10369800FCF72AFE7B689B8A9BB223F004039AB24C
:1036A8007B689A827B689B8A9AB27B8813439AB21A
:1036B8007B689A820837BD4680BD00BF0010014074
:1036C8000044004000480040004C004000500040CA
:1036D80000140140C4AD000880B582B000AF786026
:1036E8000B46FB707B681F4A934218D07B681E4AC2
:1036F800934214D07B681D4A934210D07B681C4AC1
:1037080093420CD07B681B4A934208D07B681A4AC4
:10371800934204D0194840F21441FCF7E5FDFB78C8
:10372800002B07D0FB78012B04D0144840F2154138
:10373800FCF7DAFDFB78002B08D07B689B8A9BB2EC
:1037480043F002039AB27B689A8207E07B689B8AFF
:103758009BB223F002039AB27B689A820837BD466F
:1037680080BD00BF001001400044004000480040F8
:10377800004C00400050004000140140C4AD000857
:1037880080B582B000AF78600B467B8013467B70B3
:103798007B68274A934218D07B68264A934214D004
:1037A8007B68254A934210D07B68244A93420CD008
:1037B8007B68234A934208D07B68224A934204D00C
:1037C800214840F24241FCF78FFD7A884FF63F735B
:1037D8001340002B02D17B88002B04D11A4840F2F9
:1037E8004341FCF781FD7B78002B07D07B78012BC8
:1037F80004D0154840F24441FCF776FD7B78002B55
:1038080008D07B689B8A9AB27B8813439AB27B68FC
:103818009A8209E07B689B8A9AB27B88DB439BB2D9
:1038280013409AB27B689A820837BD4680BD00BFB4
:10383800001001400044004000480040004C004097
:103848000050004000140140C4AD000880B586B0A7
:1038580000AF78600B467B8013467B7000233B618A
:103868000023FB600023BB6000237B617B684F4A19
:10387800934218D07B684E4A934214D07B684D4AD5
:10388800934210D07B684C4A93420CD07B684B4AD9
:10389800934208D07B684A4A934204D0494840F290
:1038A800C441FCF721FD7B88282B25D07B8840F27A
:1038B8002772934220D07B8840F2266293421BD025
:1038C8007B8840F22552934216D07B8840F22442EE
:1038D800934211D07B8840F6460293420CD07B88F5
:1038E80040F66A12934207D07B88602B04D0354893
:1038F80040F2C541FCF7F8FC7B78002B07D07B78B9
:10390800012B04D02F4840F2C641FCF7EDFC7B8820
:1039180040F66A12934214D17B68244A934210D02D
:103928007B68234A93420CD07B68224A934208D092
:103938007B68234A934204D0224840F2CB41FCF7EB
:10394800D3FC7B687B617B88DBB25B09DBB23B61C4
:103958007B8803F01F03FB60FB68012202FA03F374
:10396800BB603B69012B03D17B690C337B6109E0A8
:103978003B69022B03D17B6910337B6102E07B69D1
:1039880014337B617B78002B06D07B697A691168D8
:10399800BA680A431A6006E07B697A691168BA68EE
:1039A800D2430A401A601837BD4680BD0010014056
:1039B8000044004000480040004C004000500040D7
:1039C80000140140C4AD000880B584B000AF786031
:1039D8000B467B800023FB737B68364A934218D0E2
:1039E8007B68354A934214D07B68344A934210D09E
:1039F8007B68334A93420CD07B68324A934208D0A2
:103A08007B68314A934204D0304840F20351FCF7B6
:103A18006BFC7B88012B21D07B88802B1ED07B8878
:103A2800402B1BD07B88202B18D07B88102B15D0DF
:103A38007B88B3F5807F11D07B88B3F5007F0DD0EC
:103A48007B88082B0AD07B88042B07D07B88022B25
:103A580004D01E4840F20451FCF746FC7B88B3F5BD
:103A6800007F14D17B68134A934210D07B68124AB6
:103A780093420CD07B68114A934208D07B68124A63
:103A8800934204D0114840F20951FCF72DFC7B68A1
:103A98001B889AB27B8813409BB2002B02D001236B
:103AA800FB7301E00023FB73FB7B18461037BD4610
:103AB80080BD00BF001001400044004000480040A5
:103AC800004C00400050004000140140C4AD000804
:103AD80080B582B000AF78600B467B807B68264A51
:103AE800934218D07B68254A934214D07B68244AB5
:103AF800934210D07B68234A93420CD07B68224AB9
:103B0800934208D07B68214A934204D0204840F26F
:103B18003351FCF7E9FB7A884FF69F431340002B9B
:103B280002D17B88002B04D1194840F23451FCF7AC
:103B3800DBFB7B8803F40073002B14D07B680E4AF0
:103B4800934210D07B680D4A93420CD07B680C4A94
:103B5800934208D07B680D4A934204D00C4840F247
:103B68003951FCF7C1FB7B88DB439AB27B681A802A
:103B78000837BD4680BD00BF00100140004400402A
:103B880000480040004C0040005000400014014034
:103B9800C4AD000880B586B000AF78600B467B8066
:103BA8000023FB6000237B610023BB600023FB74C0
:103BB8007B685E4A934218D07B685D4A934214D072
:103BC8007B685C4A934210D07B685B4A93420CD076
:103BD8007B685A4A934208D07B68594A934204D07A
:103BE800584840F25751FCF77FFB7B88282B37D089
:103BF8007B8840F22772934232D07B8840F226625B
:103C080093422DD07B8840F22552934228D07B885E
:103C180040F22442934223D07B8840F646029342E6
:103C28001ED07B8840F66A12934219D07B88B3F580
:103C3800587F15D07B8840F22532934210D07B887C
:103C4800B3F5587F0CD07B88B3F5187F08D07B88F4
:103C5800B3F5B07F04D03B484FF4AB61FCF744FBAD
:103C68007B8840F66A12934214D17B682F4A9342AC
:103C780010D07B682E4A93420CD07B682D4A934221
:103C880008D07B682E4A934204D02E4840F25D51FA
:103C9800FCF72AFB7B88DBB25B09DBB2BB607B8865
:103CA80003F01F037B617B69012202FA03F37B6146
:103CB800BB68012B07D17B689B899BB21A467B693D
:103CC80013407B6111E0BB68022B07D17B681B8A1C
:103CD8009BB21A467B6913407B6106E07B689B8A2E
:103CE8009BB21A467B6913407B617B881B0A9BB297
:103CF800FB60FB68012202FA03F3FB607B681B8808
:103D08009BB21A46FB681340FB607B69002B05D009
:103D1800FB68002B02D00123FB7401E00023FB7435
:103D2800FB7C18461837BD4680BD00BF0010014017
:103D38000044004000480040004C00400050004053
:103D480000140140C4AD000880B584B000AF7860AD
:103D58000B467B800023FB810023BB817B682F4AB5
:103D6800934218D07B682E4A934214D07B682D4A20
:103D7800934210D07B682C4A93420CD07B682B4A24
:103D8800934208D07B682A4A934204D029484FF4CA
:103D9800B461FCF7A9FA7B8840F22662934213D0FB
:103DA8007B8840F2255293420ED07B8840F646022B
:103DB800934209D07B8840F66A12934204D01D488A
:103DC80040F2A151FCF790FA7B8840F66A129342C0
:103DD80014D17B68114A934210D07B68104A9342F1
:103DE8000CD07B680F4A934208D07B68104A9342F4
:103DF80004D0104840F2A651FCF776FA7B881B0ADB
:103E0800FB81FB89012202FA03F3BB81BB89DB43F7
:103E18009AB27B681A801037BD4680BD00100140F9
:103E28000044004000480040004C00400050004062
:103E380000140140C4AD000838B00008000000209C
:103E4800EC080020F00800206C09002080B582B042
:103E580000AF786001200249042200F045F9FEE72E
:103E6800D8AD000880B483B000AF78604FF0FF335E
:103E780018460C37BD465DF8047B704780B485B0A2
:103E880000AFF860B9607A60054B0C221A604FF0F9
:103E9800FF3318461437BD465DF8047B704700BFF2
:103EA8006809002080B400AF044B0B221A604FF061
:103EB800FF331846BD465DF8047B7047680900204B
:103EC80080B483B000AF786039603B684FF400522B
:103ED8005A60002318460C37BD465DF8047B7047CE
:103EE80080B400AF01231846BD465DF8047B7047D7
:103EF80080B483B000AF78607B680033022B01D8B0
:103F0800012303E0044B09221A60002318460C37EA
:103F1800BD465DF8047B70476809002080B483B013
:103F280000AF78603960054B16221A604FF0FF33F6
:103F380018460C37BD465DF8047B704768090020B9
:103F480080B483B000AF78603960054B1F221A60D7
:103F58004FF0FF3318460C37BD465DF8047B7047B9
:103F68006809002080B485B000AFF860B9607A6055
:103F7800002318461437BD465DF8047B704700BF20
:103F880090B585B000AF7860154B1B68002B02D147
:103F9800134B144A1A60124B1B68FB60EFF308833B
:103FA8001C462346BB600E4B1A687B681A44BB68E4
:103FB8009A420AD902200C49192200F095F80B4BB5
:103FC8000C221A604FF0FF3306E0054B1A687B6835
:103FD8001344034A1360FB6818461437BD4690BD66
:103FE800140900206C090020E0AD000868090020D1
:103FF80080B489B000AFF860B9607A600023BB6113
:10400800FB68002B20D10023FB6116E000BF144B96
:104018001B889BB203F02003002BF8D0104B9B8821
:104028009BB2FB75BB685A1CBA60FA7D1A70BB69F3
:104038000133BB61FB690133FB61FA697B689A4212
:10404800E4DB00BFBB6904E0064B09221A604FF0AD
:10405800FF3318462437BD465DF8047B704700BF20
:10406800001001406809002080B483B000AF786078
:1040780039603B684FF400525A60002318460C37E9
:10408800BD465DF8047B704780B483B000AF7860AC
:104098004FF0FF3318460C37BD465DF8047B704778
:1040A80080B483B000AF7860054B02221A604FF0ED
:1040B800FF3318460C37BD465DF8047B704700BFD8
:1040C8006809002080B483B000AF7860054B0A22ED
:1040D8001A604FF0FF3318460C37BD465DF8047B75
:1040E800704700BF6809002080B487B000AFF8604F
:1040F800B9607A60FB68012B02D0022B1AD033E03A
:1041080000237B6111E000BF1E4B1B889BB203F0AC
:104118004003002BF8D01B49BB685A1CBA601B78B7
:104128009BB28B807B6901337B617A697B689A4299
:10413800E9DB1FE000237B6111E000BF114B1B8806
:104148009BB203F04003002BF8D00E49BB685A1C01
:10415800BA601B789BB28B807B6901337B617A697B
:104168007B689A42E9DB05E0074B09221A604FF0A9
:10417800FF3300E07B6818461C37BD465DF8047BBA
:10418800704700BF0010014068090020844641EADA
:10419800000313F0030349D1403A23D30B680360AB
:1041A8004B6843608B688360CB68C3600B690361AD
:1041B8004B6943618B698361CB69C3610B6A036295
:1041C8004B6A43628B6A8362CB6AC3620B6B03637D
:1041D8004B6B43638B6B8363CB6BC3634030403162
:1041E800403ADBD230320BD30B6803604B68436034
:1041F8008B688360CB68C36010301031103AF3D2FB
:104208000C3205D351F8043B40F8043B043AF9D288
:10421800043208D0D2071CBF11F8013B00F8013B5B
:1042280001D30B8803806046704700BF082A13D368
:104238008B07B1D010F00303AED0C3F10403D21A38
:10424800DB071CBF11F8013B00F8013BA4D331F890
:10425800023B20F8023B9FE7043AD9D3013A11F810
:10426800013B00F8013BF9D20B7803704B7843709F
:104278008B7883706046704780EA010C1CF0030F4E
:1042880037D110F0030C20F0030021F0030150F89F
:10429800042B08BF51F8043B0ED08CF0030C6FF0D0
:1042A8007F434FEACC0C23FA0CFC51F8043B42EA5A
:1042B8000C0243EA0C0300BFA2F1013C9A4201BF81
:1042C8002CEA020C1CF0803F50F8042B51F8043BF8
:1042D800F2D04FEA02604FEA1222012828BFB0EB61
:1042E800036F08BF1B0AF4D003F0FF03000EC01AC7
:1042F800704710F0030F0AD010F8012B11F8013B9A
:10430800012A28BF9A42F4D0A2EB030070474DF867
:10431800045D50F8042B01F0030521F0030151F866
:10432800043B022D26D04DD822F07F45B5EB132F44
:10433800A2F1013C2CEA020C0DD11CF0803C08BF14
:1043480051F8043B0AD185EA0205B5EB036F0CD19D
:1043580050F8042BE8E74FEA13235BE03CF07F4C6E
:1043680054D10B784FEA126554E04FEA126503F016
:10437800FF034FE04FEA0245A2F1013C4FEA154521
:104388002CEA020CB5EB134F18D11CF0803C08BF87
:1043980051F8043B07D185EA0205B5EB034F09D173
:1043A80050F8042BE6E75FEA0C4C2FD10B884FEA54
:1043B80012452FE04FEA03434FEA12454FEA1343F1
:1043C80028E000BF02F0FF05B5EB136FA2F1013C36
:1043D8002CEA020C0DD11CF0803C08BF51F8043BBC
:1043E8000AD185EA0205B5EB032F0AD150F8042B50
:1043F800E8E74FEA13630DE012F0FF0F06D051F81B
:10440800043B4FEA122523F07F4303E04FF00000FE
:1044180020BC704705F0FF0203F0FF00012828BF09
:10442800904204BF2D0A1B0AF4D0A2EB000020BC66
:10443800704700BF81F0004102E000BF83F00043F5
:1044480030B54FEA41044FEA430594EA050F08BF27
:1044580090EA020F1FBF54EA000C55EA020C7FEAEB
:10446800645C7FEA655C00F0E2804FEA5454D4EB68
:104478005555B8BF6D420CDD2C4480EA020281EA32
:10448800030382EA000083EA010180EA020281EA6A
:104498000303362D88BF30BD11F0004F4FEA0131BC
:1044A8004FF4801C4CEA113102D0404261EB4101CB
:1044B80013F0004F4FEA03334CEA133302D0524251
:1044C80063EB430394EA050F00F0A780A4F101040D
:1044D800D5F1200E0DDB02FA0EFC22FA05F2801847
:1044E80041F1000103FA0EF2801843FA05F359412D
:1044F8000EE0A5F120050EF1200E012A03FA0EFCAC
:1045080028BF4CF0020C43FA05F3C01851EBE371D5
:1045180001F0004507D54FF0000EDCF1000C7EEBF2
:1045280000006EEB0101B1F5801F1BD3B1F5001F30
:104538000CD349085FEA30004FEA3C0C04F101044F
:104548004FEA445212F5800F80F09A80BCF1004F78
:1045580008BF5FEA500C50F1000041EB045141EAFA
:10456800050130BD5FEA4C0C404141EB010111F4FB
:10457800801FA4F10104E9D191F0000F04BF0146A6
:104588000020B1FA81F308BF2033A3F10B03B3F184
:1045980020020CDA0C3208DD02F1140CC2F10C0214
:1045A80001FA0CF021FA02F10CE002F11402D8BF72
:1045B800C2F1200C01FA02F120FA0CFCDCBF41EA3E
:1045C8000C019040E41AA2BF01EB0451294330BD0D
:1045D8006FEA04041F3C1CDA0C340EDC04F11404EA
:1045E800C4F1200220FA04F001FA02F340EA0300C1
:1045F80021FA04F345EA030130BDC4F10C04C4F107
:10460800200220FA02F001FA04F340EA03002946E6
:1046180030BD21FA04F0294630BD94F0000F83F430
:10462800801306BF81F480110134013D4EE77FEA13
:10463800645C18BF7FEA655C29D094EA050F08BF5F
:1046480090EA020F05D054EA000C04BF1946104640
:1046580030BD91EA030F1EBF0021002030BD5FEA84
:10466800545C05D14000494128BF41F0004130BDAC
:1046780014F580043CBF01F5801130BD01F0004500
:1046880045F0FE4141F470014FF0000030BD7FEA73
:10469800645C1ABF194610467FEA655C1CBF0B466E
:1046A800024650EA013406BF52EA033591EA030F85
:1046B80041F4002130BD00BF90F0000F04BF00217D
:1046C800704730B54FF4806404F132044FF00005B0
:1046D8004FF0000150E700BF90F0000F04BF002129
:1046E800704730B54FF4806404F1320410F000458F
:1046F80048BF40424FF000013EE700BF42004FEA8A
:10470800E2014FEA31014FEA02701FBF12F07F4306
:1047180093F07F4F81F06051704792F0000F14BF03
:1047280093F07F4F704730B54FF4607401F0004547
:1047380021F0004120E700BF50EA010208BF70479E
:1047480030B54FF000050AE050EA010208BF704793
:1047580030B511F0004502D5404261EB41014FF4FC
:10476800806404F132045FEA915C3FF4DCAE4FF000
:1047780003025FEADC0C18BF03325FEADC0C18BFE7
:10478800033202EBDC02C2F1200300FA03FC20FA38
:1047980002F001FA03FE40EA0E0021FA02F1144485
:1047A800C1E600BF70B54FF0FF0C4CF4E06C1CEA9A
:1047B80011541DBF1CEA135594EA0C0F95EA0C0F0F
:1047C80000F0DEF82C4481EA030621EA4C5123EA82
:1047D8004C5350EA013518BF52EA033541F48011B1
:1047E80043F4801338D0A0FB02CE4FF00005E1FB64
:1047F80002E506F00042E0FB03E54FF00006E1FBAE
:1048080003569CF0000F18BF4EF0010EA4F1FF04F0
:10481800B6F5007F64F5407404D25FEA4E0E6D4130
:1048280046EB060642EAC62141EA55514FEAC52041
:1048380040EA5E504FEACE2EB4F1FD0C88BFBCF5BD
:10484800E06F1ED8BEF1004F08BF5FEA500E50F16E
:10485800000041EB045170BD06F0004646EA010134
:1048680040EA020081EA0301B4EB5C04C2BFD4EB66
:104878000C0541EA045170BD41F480114FF0000E5F
:10488800013C00F3AB8014F1360FDEBF002001F0CD
:10489800004170BDC4F10004203C35DA0C341BDC47
:1048A80004F11404C4F1200500FA05F320FA04F019
:1048B80001FA05F240EA020001F0004221F000414D
:1048C80010EBD37021FA04F642EB06015EEA430EC0
:1048D80008BF20EAD37070BDC4F10C04C4F12005F0
:1048E80000FA04F320FA05F001FA04F240EA0200A3
:1048F80001F0004110EBD37041F100015EEA430E74
:1049080008BF20EAD37070BDC4F1200500FA05F293
:104918004EEA020E20FA04F301FA05F243EA020312
:1049280021FA04F001F0004121FA04F220EA020021
:1049380000EBD3705EEA430E08BF20EAD37070BD67
:1049480094F0000F0FD101F00046400041EB010147
:1049580011F4801F08BF013CF7D041EA060195F029
:10496800000F18BF704703F00046520043EB0303E3
:1049780013F4801F08BF013DF7D043EA06037047D0
:1049880094EA0C0F0CEA135518BF95EA0C0F0CD0DB
:1049980050EA410618BF52EA4306D1D181EA030121
:1049A80001F000414FF0000070BD50EA410606BF1B
:1049B8001046194652EA430619D094EA0C0F02D160
:1049C80050EA013613D195EA0C0F05D152EA0336A5
:1049D8001CBF104619460AD181EA030101F00041C3
:1049E80041F0FE4141F470014FF0000070BD41F00C
:1049F800FE4141F4780170BD70B54FF0FF0C4CF4E6
:104A0800E06C1CEA11541DBF1CEA135594EA0C0F04
:104A180095EA0C0F00F0A7F8A4EB050481EA030E51
:104A280052EA03354FEA013100F088804FEA033338
:104A38004FF0805545EA131343EA12634FEA022206
:104A480045EA111545EA10654FEA00260EF00041C7
:104A58009D4208BF964244F1FD0404F5407402D219
:104A68005B084FEA3202B61A65EB03055B084FEAAA
:104A780032024FF480104FF4002CB6EB020E75EBA7
:104A8800030E22BFB61A754640EA0C005B084FEACF
:104A98003202B6EB020E75EB030E22BFB61A75464C
:104AA80040EA5C005B084FEA3202B6EB020E75EB97
:104AB800030E22BFB61A754640EA9C005B084FEA0F
:104AC8003202B6EB020E75EB030E22BFB61A75461C
:104AD80040EADC0055EA060E18D04FEA051545EA0B
:104AE80016754FEA06164FEAC30343EA52734FEAB4
:104AF800C2025FEA1C1CC0D111F4801F0BD141EA2D
:104B080000014FF000004FF0004CB6E711F4801F91
:104B180004BF01430020B4F1FD0C88BFBCF5E06F71
:104B28003FF6AFAEB5EB030C04BFB6EB020C5FEA81
:104B3800500C50F1000041EB045170BD0EF0004ED6
:104B48004EEA113114EB5C04C2BFD4EB0C0541EA08
:104B5800045170BD41F480114FF0000E013C90E605
:104B680045EA060E8DE60CEA135594EA0C0F08BFC9
:104B780095EA0C0F3FF43BAF94EA0C0F0AD150EAC8
:104B880001347FF434AF95EA0C0F7FF425AF10465B
:104B980019462CE795EA0C0F06D152EA03353FF483
:104BA800FDAE1046194622E750EA410618BF52EA00
:104BB80043067FF4C5AE50EA41047FF40DAF52EAD4
:104BC80043057FF4EBAE12E74FF0FF3C06E000BF71
:104BD8004FF0010C02E000BF4FF0010C4DF804CD7E
:104BE8004FEA410C7FEA6C5C4FEA430C18BF7FEA3E
:104BF8006C5C1BD001B050EA410C0CBF52EA430C6C
:104C080091EA030F02BF90EA020F0020704710F1EB
:104C1800000F91EA030F58BF994208BF90422CBF7A
:104C2800D8176FEAE37040F0010070474FEA410C73
:104C38007FEA6C5C02D150EA013C07D14FEA430C91
:104C48007FEA6C5CD6D152EA033CD3D05DF8040B02
:104C5800704700BF8446104662468C461946634634
:104C680000E000BF01B5FFF7B7FF002848BF10F10B
:104C7800000F01BD4DF808EDFFF7F4FF0CBF012050
:104C880000205DF808FB00BF4DF808EDFFF7EAFFCC
:104C980034BF012000205DF808FB00BF4DF808ED87
:104CA800FFF7E0FF94BF012000205DF808FB00BF7C
:104CB8004DF808EDFFF7CEFF94BF012000205DF806
:104CC80008FB00BF4DF808EDFFF7C4FF34BF012013
:104CD80000205DF808FB00BF4FEA410212F5001200
:104CE80015D211D56FF47873B3EB625212D94FEA2B
:104CF800C12343F0004343EA505311F0004F23FA15
:104D080002F018BF404270474FF00000704750EA69
:104D1800013005D111F0004008BF6FF00040704726
:104D28004FF00000704700BF4BB942B9002908BFD7
:104D3800002802D04FF0FF31084600F03BB882B09F
:104D4800EC462DE9005000F01DF8DDF804E002B053
:104D58000CBC70472DE9F041069C904606460F466C
:104D68001D4600F029F808FB01FCA8FB002300FB06
:104D780005C5B21A2B4467EB03038646C4E9002332
:104D8800BDE8F0812DE9F843089E1746804689461C
:104D98001D4600F067F900FB05F3A0FB074507FB7C
:104DA8000137B8EB04043D4469EB0505C6E9004545
:104DB800BDE8F883704700BF00292DE9F043C0F231
:104DC800A8800026002BC0F29E8081468E46904621
:104DD8009C46174604460D46002B3DD18A4259D9B8
:104DE800B2FA82F33BB1C3F120029D4020FA02F2ED
:104DF8009F4015439C40390CB5FBF1F01FFA87FE24
:104E080001FB10550EFB00F3220C42EA0545AB42AC
:104E180009D9ED1900F1FF3280F00B81AB4240F265
:104E2800088102383D44ED1AB5FBF1F301FB135537
:104E38000EFB03FEA4B244EA0545AE4508D9ED19B8
:104E480003F1FF3280F0F780AE4540F2F480023B78
:104E580043EA0043002203E08B420FD900221346A5
:104E6800341C18BF012460424FF0000565EB450172
:104E78005840514000196941BDE8F083B3FA83F204
:104E8800002A40F089808B4202D3804500F2E280FC
:104E98000123E5E712B90123B3FBF2F7B7FA87F864
:104EA800B8F1000F3BD1ED1B4FEA174C1FFA87FEF4
:104EB8000122B5FBFCF00CFB10550EFB00F3210C96
:104EC80041EA0545AB4207D9ED1900F1FF3102D29D
:104ED800AB4200F2C3800846ED1AB5FBFCF30CFBAD
:104EE80013550EFB03FEA4B244EA0545AE4507D9A7
:104EF800ED1903F1FF3102D2AE4500F2AD800B4649
:104F080043EA0043ACE752426FEA060663EB430309
:104F18005BE7404261EB41014FF0FF3652E707FA89
:104F280008F7C8F1200225FA02F34FEA174CB3FB41
:104F3800FCF11FFA87FE0CFB113324FA02F205FA82
:104F480008F50EFB01F92A43100C40EA0343994582
:104F580004FA08F407D9DB1901F1FF3078D2994532
:104F680076D902393B44C9EB0303B3FBFCF00CFBD5
:104F780010330EFB00F592B242EA03439D4207D973
:104F8800DB1900F1FF325FD29D425DD902383B4404
:104F98005D1B40EA01428CE7C2F1200328FA03F1C5
:104FA8000CFA02FC41EA0C0C4FEA1C402EFA03F101
:104FB800B1FBF0F51FFA8CF700FB151129FA03F382
:104FC8000EFA02FE07FB05F943EA0E0E4FEA1E43EE
:104FD80043EA0141894508FA02F808D911EB0C01A6
:104FE80005F1FF3332D2894530D9023D6144C9EB1E
:104FF8000101B1FBF0F300FB131107FB03F71FFAE4
:105008008EFE4EEA014E774508D91EEB0C0E03F1D1
:10501800FF3117D2774515D9023BE64443EA0543E9
:10502800A3FB0889C7EB0E0ECE4509D305D0002295
:1050380016E71046F7E613460AE794404445F6D2C9
:10504800013BF4E70B46E9E71046A1E71D46CEE72A
:10505800014688E7134603E7023B51E702383D441F
:105068003AE700BF2DE9F043002B44D18A421546A8
:1050780004464FD9B2FA82F70E464FB1C7F1200362
:10508800B94020FA03F602FA07F50E4300FA07F4CE
:105098002F0CB6FBF7F01FFA85FE07FB10620EFB1C
:1050A80000F1260C46EA0243994209D95B1900F13E
:1050B800FF3280F0EE80994240F2EB8002382B44B8
:1050C800591AB1FBF7F307FB13110EFB03FEA4B249
:1050D80044EA01418E4508D9491903F1FF3280F0AD
:1050E800DA808E4540F2D780023B43EA0040002632
:1050F8003146BDE8F0838B4247D8B3FA83F6002ED9
:1051080048D18B4202D3824200F2CF80012031463F
:10511800BDE8F08312B90125B5FBF2F5B5FA85FCB7
:10512800BCF1000F78D1491B2F0C1FFA85FE012610
:10513800B1FBF7F007FB10110EFB00F2230C43EA5A
:1051480001418A4207D9491900F1FF3302D28A4244
:1051580000F2BC801846891AB1FBF7F307FB13115C
:105168000EFB03FEA4B244EA0142964508D952193F
:1051780003F1FF3180F09180964540F28E80023B2A
:1051880043EA00403146BDE8F08300263046314608
:10519800BDE8F083C6F1200422FA04F5B3402B439E
:1051A80021FA04F74FEA1348B7FBF8FC1FFA83F912
:1051B80008FB1C7720FA04FE01FA06F509FB0CF43B
:1051C8004EEA05054FEA154E4EEA0747BC4202FA79
:1051D80006F204D9FF180CF1FF3168D38C463F1B47
:1051E800B7FBF8F408FB147709FB04F9ADB245EAFC
:1051F8000741894504D9C91804F1FF355DD32C4608
:1052080044EA0C44A4FB0223C9EB0101994249D3A7
:1052180045D0204600266BE7CCF1200405FA0CF5B2
:1052280021FA04F32A0CB3FBF2F61FFA85FE02FBFF
:10523800163820FA04F701FA0CF10EFB06F90F43B1
:105248003C0C44EA0843994500FA0CF407D95B1969
:1052580006F1FF3138D2994536D9023E2B44C9EBC5
:105268000303B3FBF2F002FB10330EFB00F1BFB2F5
:1052780047EA0343994207D95B1900F1FF3721D266
:1052880099421FD902382B441746591A40EA064654
:105298004EE7104614E7134627E70B4670E7B04081
:1052A8009042B6D2601E002622E7304620E7BC4274
:1052B80094D9ACF1020C1F4491E789459FD9023C6F
:1052C80019449DE73846DFE70E46C8E70238294407
:1052D80041E700BF002103E00B4B5B58435004310A
:1052E8000A480B4B42189A42F6D30A4A02E00023B6
:1052F80042F8043B084B9A42F9D3FBF7D5F800F083
:105308001FF8FBF75DF8704738B000080000002070
:10531800EC080020F00800206C090020FEE70000DF
:1053280008B50021044601F0D1FB044B1868C36B93
:1053380003B19847204605F071FE00BF00AE000893
:1053480070B50F4E0F4D761BB61018BF002405D050
:10535800013455F8043B9847A642F9D10A4E0B4D43
:1053680005F050FE761BB61018BF002406D0013495
:1053780055F8043B9847A642F9D170BD70BD00BFEF
:105388002CB000082CB0000834B000082CB000087D
:1053980070B4840746D0541E002A41D0CDB20346CB
:1053A80002E0621EE4B3144603F8015B9A07F8D1E1
:1053B800032C2ED9CDB245EA05250F2C45EA054523
:1053C80019D9264603F11002103E0F2E42F8105C40
:1053D80042F80C5C42F8085C42F8045C02F11002E6
:1053E800F2D8A4F1100222F00F0204F00F041032D8
:1053F800032C13440DD91E462246043A032A46F8C4
:10540800045BFAD8221F22F003020432134404F08A
:1054180003042CB1C9B21C4403F8011BA342FBD1FD
:1054280070BC704714460346C2E700BF0EB410B5FF
:1054380083B005AC54F8042B81682346019400F02E
:105448006BF803B0BDE8104003B070470FB410B557
:10545800074B82B004AC54F8042B186823468168C3
:10546800019400F059F802B0BDE8104004B070474C
:105478005804002038B50C460968054609B1FFF7FD
:10548800F9FF28462146BDE8384002F0B7BD00BF05
:10549800204B1B6898423CD0C36C70B505468BB155
:1054A8000026995939B10C68284602F0A7FD214613
:1054B800002CF8D1EB6C0436802EF2D11946284620
:1054C80002F09CFD296C11B1284602F097FDD5F831
:1054D800481151B105F5A676B14206D00C682846A8
:1054E80002F08CFDA6422146F8D1696D11B128461B
:1054F80002F084FDAB6B03B970BDEB6B284698478F
:10550800D5F8E0120029F7D02846BDE87040FFF72B
:10551800B1BF7047580400202DE9F04FBFB01C46BA
:1055280089460892074602F0BFFE03680C941846A5
:10553800159303F0F7FE16901FB1BB6B002B00F01C
:10554800F480B9F80C2093B29D040AD4D9F86410F9
:1055580042F4005321F40051A9F80C30C9F8641042
:105568009BB2180740F1AB80D9F81020002A00F050
:10557800A68003F01A030A2B00F0AD8000231A4618
:105588000DF1B80C6446B846119314931793099318
:1055980023932293CDF884C012921392089D2B78FE
:1055A800002B00F0C680252B02D1C2E0252B03D0AA
:1055B80015F8013F002BF9D1089BEE1A7EB1229B0A
:1055C800239A013308993244072B84E84200239236
:1055D800229300F393800834099B334409932B7872
:1055E800002B00F0938000234FF0FF3A1A465646EE
:1055F800691C6D788DF867300A9306934B1CA5F1EA
:105608002001582900F2C083DFE811F05602BE03DA
:10561800BE039902BE03BE03BE03BE03BE03BE03A0
:10562800A0026402BE03F201F002BE036E0275021C
:1056380075027502750275027502750275027502AA
:10564800BE03BE03BE03BE03BE03BE03BE03BE034A
:10565800BE03BE0366032703BE032703BE03BE03C0
:10566800BE03BE035F03BE03BE030A03BE03BE033D
:10567800BE03BE03BE03A803BE03BE037F03BE036F
:10568800BE03BE03BE03BE03BE03BE03BE03BE030A
:10569800BE039403AE02270327032703CC02AE02FE
:1056A800BE03BE03D302BE03DD02F90184025D021C
:1056B800BE030B02BE039500BE03BE03300238468C
:1056C800494601F097F9A0B9B9F80C3003F01A036C
:1056D8000A2B7FF453AFB9F90E30002BFFF64EAF0B
:1056E80038464946089A234601F046F93FB0BDE8D6
:1056F800F08F4FF0FF303FB0BDE8F08F404649468D
:1057080021AA03F079FE40B92EAC65E7239B23B1AB
:105718004046494621AA03F06FFEB9F80C305A06F4
:10572800E7D409983FB0BDE8F08F384602F0E0FBB7
:1057380007E7089D53E70893069BB2469E0640F18B
:1057480017830C9F073727F0070303F10802D3E9F3
:1057580000670C92012300229446CDF83CA08DF8F6
:105768006720BAF1000F03DB069A22F08002069246
:1057780056EA070240F02A83BAF1000F00F02884A5
:10578800012B00F02B83022B00F075842EA9F20860
:1057980042EA4772F80806F0070307461646303310
:1057A80056EA070201F8013DF1D1069A0E91D00799
:1057B80000F113852EAB5B1A0B930B9A5346924557
:1057C800B8BF1346079300231093BCF1000F02D013
:1057D800079B01330793069B13F002030D9302D036
:1057E800079B02330793069B13F0840640F0EB8275
:1057F8000A9B079AC2EB030ABAF1000F40F3E3824F
:10580800BAF1100F2399229AB44FC8BF4FF0100B6A
:1058180007DC1EE0AAF1100ABAF1100F04F108041F
:1058280017DD01321031072A2391229284E880087B
:10583800F0DD4046494621AA03F0DEFD00287FF44A
:105848006CAFAAF1100ABAF1100F2EAC2399229A64
:10585800E7DC01320AEB010B072ACDF88CB0229263
:1058680084E8800400F3A4829DF867C00834BCF182
:10587800000F0FD0229B0BF1010B01330DF16701D3
:105888000122072BCDF88CB0229384E8060000F3A0
:10589800BD8308340D9B73B1229B0BF1020B0133BE
:1058A8001AA90222072BCDF88CB0229384E80600AF
:1058B80000F3B8830834802E00F0FB820F9B0B9A0C
:1058C800C2EB030ABAF1000F32DDBAF1100F229AC7
:1058D800834F22DD10265B4606E0AAF1100ABAF1D2
:1058E800100F04F1080417DD01321033072A23933F
:1058F800229227606660F0DD4046494621AA03F0FF
:105908007BFD00287FF409AFAAF1100ABAF1100F45
:105918002EAC239B229AE7DC9B460132D344072A0C
:10592800CDF88CB0229284E8800400F363830834B5
:10593800069BDB0500F16682229B0B9901330E9AC8
:105948008B44072BCDF88CB022606160229300F362
:1059580080830834069B59073AD50A9B079A9D1AF3
:10596800002D35DD102D229B5C4F1EDD10265A467A
:1059780004E0103D102D04F1080415DD0133103248
:10598800072B2392229327606660F2DD4046494642
:1059980021AA03F031FD00287FF4BFAE103D102D81
:1059A8002EAC239A229BE9DC93460133AB44072BA8
:1059B800CDF88CB022932760656009DD40464946E2
:1059C80021AA03F019FD00287FF4A7AEDDF88CB0FA
:1059D800099B079A0A998A42ACBF9B185B180993DE
:1059E800BBF1000F40F0EA82002322932EACD5E5EC
:1059F8001946069840F0040006901D78FEE50893C5
:105A0800069BB24613F0200300F015810C9F073760
:105A180027F0070303F10802D3E900670C9200237B
:105A280099E60C9A089313684FF0000B0E938DF8C3
:105A380067B0171D002B00F07E86002E0E98C0F26E
:105A480030865946324602F031FF002800F0AF8612
:105A58000E9BCDF83CB0C31A0B930C9723EAE37363
:105A68000793CDF840B09DF867C0AEE608931D4B8C
:105A7800B2461493069B8DF86720990640F14F8132
:105A88000C9F073727F0070303F108020C92D3E9AC
:105A98000067069BDB0740F1078356EA070300F01F
:105AA8000383069A302342F002028DF868308DF89D
:105AB8006950069202234EE6002A40F031851D788F
:105AC800194620229AE5069941F0200106911D7891
