:020000040800F2
:1000000000000220493E0008913E0008913E000891
:10001000913E0008913E0008913E0008000000005B
:10002000000000000000000000000000913E0008F9
:10003000913E000800000000913E0008890400087D
:10004000913E0008913E0008913E0008913E000854
:10005000913E0008913E0008913E0008913E000844
:10006000913E0008913E0008913E0008913E000834
:10007000913E0008913E0008913E0008913E000824
:10008000913E0008913E0008913E0008913E000814
:10009000913E0008913E0008913E0008913E000804
:1000A000913E0008913E0008913E0008913E0008F4
:1000B000913E0008913E0008913E0008913E0008E4
:1000C000913E0008913E0008913E0008913E0008D4
:1000D000913E0008913E0008913E0008913E0008C4
:1000E000913E0008913E0008913E0008913E0008B4
:1000F000913E0008913E0008913E0008913E0008A4
:10010000913E0008913E0008913E0008913E000893
:10011000913E0008913E0008913E0008913E000883
:10012000913E0008913E0008913E0008913E000873
:10013000913E0008913E0008913E0008913E000863
:10014000913E0008913E0008913E0008913E000853
:10015000913E0008913E0008913E0008913E000843
:10016000913E0008913E0008913E0008913E000833
:10017000913E0008913E0008913E0008913E000823
:04018000913E0008A4
:1001840010B5054C237833B9044B13B10448AFF3CD
:1001940000800123237010BD5804002000000000DB
:1001A400B4410008084B10B51BB108480849AFF327
:1001B40000800848036803B910BD074B002BFBD02F
:1001C400BDE81040184700BF00000000B44100081B
:1001D4005C0400205404002000000000154B002B98
:1001E40008BF134B9D46A3F5803A00218B460F466A
:1001F4001348144A121A03F083FE0F4B002B00D04D
:1002040098470E4B002B00D0984700200021040093
:100214000D000D48002802D00C4803F033FF03F012
:1002240047FE2000290000F0CBF803F031FE00BFA8
:1002340000000800000000000000000000000000B2
:1002440058040020880400208940000895400008D4
:1002540080B483B000AF03463960FB7197F907306F
:10026400002B0BDA0D49FB7903F00F03043B3A68CA
:10027400D2B21201D2B20B441A7609E0084997F9B6
:1002840007303A68D2B21201D2B20B4483F8002389
:100294000C37BD465DF8047B704700BF00ED00E0FD
:1002A40000E100E080B582B000AF78607B68B3F114
:1002B400807F01D3012311E00A4A7B6823F07F4346
:1002C400013B53604FF0FF300F21FFF7C1FF054B97
:1002D40000229A60034B07221A600023184608374D
:1002E400BD4680BD10E000E080B483B000AF78600C
:1002F4003960FEE780B582B000AF1E4809210722AD
:1003040000F0B8FF4FF400733B6002237B710223BB
:100314003B710023BB713B461648194600F08EFA28
:100324004FF480633B6002237B7100233B713B46A7
:100334001048194600F082FA0F48012102F0C8FC67
:100344000E4B4FF416521A600C4B00229A800B4B42
:100354000022DA80094B00221A81084B0C225A81B0
:10036400064B00229A810448044902F097FA0837A0
:10037400BD4680BD0000024000100140780400200A
:1003840080B582B000AF786010E000BF0B488021D8
:1003940003F016FB0346002BF8D07B685A1C7A60E6
:1003A4001B789BB20548194602F0D6FD7B681B7882
:1003B400002BEAD10837BD4680BD00BF00100140C4
:1003C40080B582B000AF0320012101F0A1FD10200F
:1003D400012101F079FE03233B6002237B71012399
:1003E4003B710023BB710123FB713B46174819463F
:1003F40000F024FAFFF77EFF154B1B68154AA2FB99
:1004040003239B091846FFF74DFF0346002B00D03A
:10041400FEE70E48012100F059FD0C48022100F0CE
:1004240055FD4FF47A7000F019F80848012100F0E6
:100434009FFD0648022100F09BFD4FF47A7000F006
:100444000DF80548FFF79CFFE3E700BF00040240F6
:1004540004000020D34D62106441000880B483B0CE
:1004640000AF7860064A7B68136000BF044B1B68CA
:10047400002BFBD10C37BD465DF8047B704700BFF1
:100484007404002080B400AF044B1B68013B034A92
:100494001360BD465DF8047B704700BF7404002000
:1004A40080B500AF114A114B1B6843F00103136080
:1004B4000E4B00229A600D4A0C4B1B6823F0847388
:1004C40023F480331360094B094A5A60074A074BE7
:1004D4001B6823F480231360044B0022DA6000F0CD
:1004E40087F8044B4FF000629A6080BD00380240E8
:1004F4001030002400ED00E080B487B000AF00238A
:100504003B6100237B610223FB600023BB60022369
:100514007B60324B9B6803F00C033B613B69042B0B
:1005240007D0082B09D0002B3FD12D4B2D4A1A6040
:100534003FE02B4B2C4A1A603BE0284B5B6803F4EA
:1005440080039B0DBB60254B5B6803F03F037B601E
:10055400BB68002B0DD0244A7B68B2FBF3F21F4B1F
:10056400596847F6C0730B409B0903FB02F37B6198
:100574000CE01C4A7B68B2FBF3F2184B596847F64F
:10058400C0730B409B0903FB02F37B61134B5B6855
:1005940003F440331B0C01335B00FB607A69FB6896
:1005A400B2FBF3F30E4A136003E00D4B0D4A1A60DD
:1005B40000BF0A4B9B6803F0F0031B090B4AD35C92
:1005C400DBB23B61064B1A683B6922FA03F3044A27
:1005D40013601C37BD465DF8047B70470038024049
:1005E400040000200024F40040787D01080000206D
:1005F40080B483B000AF00237B6000233B602F4AAC
:100604002E4B1B6843F4803313602C4B1B6803F49C
:1006140000333B607B6801337B603B68002B03D174
:100624007B68B3F5A06FF0D1244B1B6803F400334F
:10063400002B02D001233B6001E000233B603B68B8
:10064400012B36D11D4A1D4B9B6893601B4A1B4BE3
:100654009B6843F400439360184A184B9B6843F427
:10066400A0539360154B164A5A60144A134B1B68E7
:1006740043F08073136000BF104B1B6803F00073DA
:10068400002BF9D00F4B40F203721A600B4A0B4B4C
:100694009B6823F003039360084A084B9B6843F06C
:1006A4000203936000BF054B9B6803F00C03082B07
:1006B400F9D10C37BD465DF8047B70470038024021
:1006C400193C4005003C024080B582B000AF786020
:1006D4007B68504A934223D07B684F4A93421FD091
:1006E4007B684E4A93421BD07B684D4A934217D095
:1006F4007B684C4A934213D07B684B4A93420FD099
:100704007B684A4A93420BD07B68494A934207D09C
:100714007B68484A934203D047488221FFF7E4FDAF
:100724007B683C4A934208D10120012101F004FD79
:100734000120002101F000FD68E07B68364A934205
:1007440008D10220012101F0F7FC0220002101F070
:10075400F3FC5BE07B68314A934208D10420012119
:1007640001F0EAFC0420002101F0E6FC4EE07B6885
:100774002B4A934208D10820012101F0DDFC082016
:10078400002101F0D9FC41E07B68264A934208D15C
:100794001020012101F0D0FC1020002101F0CCFC3C
:1007A40034E07B68204A934208D12020012101F0E3
:1007B400C3FC2020002101F0BFFC27E07B681B4A1A
:1007C400934208D14020012101F0B6FC40200021D1
:1007D40001F0B2FC1AE07B68154A934208D18020EC
:1007E400012101F0A9FC8020002101F0A5FC0DE00D
:1007F4007B68104A934209D14FF48070012101F0C3
:100804009BFC4FF48070002101F096FC0837BD4634
:1008140080BD00BF00000240000402400008024006
:10082400000C024000100240001402400018024074
:10083400001C0240002002407441000880B586B0CC
:1008440000AF7860396000237B6100233B610023A3
:10085400FB607B687A4A934223D07B68794A93424F
:100864001FD07B68784A93421BD07B68774A9342B7
:1008740017D07B68764A934213D07B68754A9342BB
:100884000FD07B68744A93420BD07B68734A9342BF
:1008940007D07B68724A934203D07248C221FFF7A3
:1008A40023FD3B681B68002B03D16E48C321FFF76F
:1008B4001BFD3B681B79002B0FD03B681B79012B78
:1008C4000BD03B681B79022B07D03B681B79032BA9
:1008D40003D06448C421FFF707FD3B68DB79002B94
:1008E4000BD03B68DB79012B07D03B68DB79022B0B
:1008F40003D05C48C521FFF7F7FC00237B6197E038
:100904007B69012202FA03F33B613B681A683B6985
:100914001340FB60FA683B699A4240F086807B682A
:100924001A687B695B00194603238B40DB431A403A
:100934007B681A607B681A683B681B7919467B6977
:100944005B0001FA03F31A437B681A603B681B7966
:10095400012B03D03B681B79022B4ED13B685B799A
:10096400002B0FD03B685B79012B0BD03B685B7984
:10097400022B07D03B685B79032B03D03948D7217E
:10098400FFF7B2FC7B689A687B695B001946032316
:100994008B40DB431A407B689A607B689A683B68AB
:1009A4005B7919467B695B0001FA03F31A437B68A0
:1009B4009A603B689B79002B07D03B689B79012B9D
:1009C40003D02848DE21FFF78FFC7B685A687B69D7
:1009D4009BB2194601238B40DB431A407B685A6063
:1009E4007B685B683A68927911467A6992B201FA37
:1009F40002F292B21A437B685A607B68DA687B69B8
:100A04009BB25B00032101FA03F3DB431A407B68CA
:100A1400DA607B68DA683B68DB7919467B695B00DE
:100A240001FA03F31A437B68DA607B6901337B6163
:100A34007B690F2B7FF664AF1837BD4680BD00BFBE
:100A4400000002400004024000080240000C024082
:100A5400001002400014024000180240001C024032
:100A6400002002407441000880B483B000AF786075
:100A74007B684FF6FF721A607B6800221A717B68EC
:100A840000225A717B6800229A717B680022DA7115
:100A94000C37BD465DF8047B704700BF80B584B059
:100AA40000AF78600B467B804FF48033FB607B683B
:100AB400224A934224D07B68214A934220D07B6807
:100AC400204A93421CD07B681F4A934218D07B680B
:100AD4001E4A934214D07B681D4A934210D07B680F
:100AE4001C4A93420CD07B681B4A934208D07B6813
:100AF4001A4A934204D01A4840F20B11FFF7F4FB50
:100B04007B88002B04D116484FF48671FFF7ECFB69
:100B14007A88FB681343FB60FA687B68DA617A8839
:100B24007B68DA61FA687B68DA617B68DB69FB60A1
:100B34007B68DB69FB601037BD4680BD0000024066
:100B44000004024000080240000C02400010024071
:100B54000014024000180240001C02400020024021
:100B64007441000880B584B000AF78600B467B8088
:100B74000023FB737B683A4A934224D07B68394A4A
:100B8400934220D07B68384A93421CD07B68374A12
:100B9400934218D07B68364A934214D07B68354A16
:100BA400934210D07B68344A93420CD07B68334A1A
:100BB400934208D07B68324A934204D0314840F2D1
:100BC4003711FFF791FB7B88012B39D07B88022BEF
:100BD40036D07B88042B33D07B88082B30D07B889D
:100BE400102B2DD07B88202B2AD07B88402B27D01C
:100BF4007B88802B24D07B88B3F5807F20D07B88B2
:100C0400B3F5007F1CD07B88B3F5806F18D07B8848
:100C1400B3F5006F14D07B88B3F5805F10D07B8868
:100C2400B3F5005F0CD07B88B3F5804F08D07B8888
:100C3400B3F5004F04D013484FF49C71FFF754FBF5
:100C44007B681A697B881340002B02D00123FB7355
:100C540001E00023FB73FB7B18461037BD4680BDC3
:100C6400000002400004024000080240000C024060
:100C7400001002400014024000180240001C024010
:100C8400002002407441000880B582B000AF786053
:100C94007B68174A934224D07B68164A934220D03B
:100CA4007B68154A93421CD07B68144A934218D03F
:100CB4007B68134A934214D07B68124A934210D043
:100CC4007B68114A93420CD07B68104A934208D047
:100CD4007B680F4A934204D00E4840F24D11FFF74F
:100CE40003FB7B681B699BB218460837BD4680BD71
:100CF400000002400004024000080240000C0240D0
:100D0400001002400014024000180240001C02407F
:100D1400002002407441000880B584B000AF7860C0
:100D24000B467B800023FB737B683A4A934224D0B2
:100D34007B68394A934220D07B68384A93421CD05E
:100D44007B68374A934218D07B68364A934214D062
:100D54007B68354A934210D07B68344A93420CD066
:100D64007B68334A934208D07B68324A934204D06A
:100D740031484FF4AF71FFF7B7FA7B88012B39D0B4
:100D84007B88022B36D07B88042B33D07B88082BBE
:100D940030D07B88102B2DD07B88202B2AD07B88C9
:100DA400402B27D07B88802B24D07B88B3F5807F91
:100DB40020D07B88B3F5007F1CD07B88B3F5806F8F
:100DC40018D07B88B3F5006F14D07B88B3F5805FAF
:100DD40010D07B88B3F5005F0CD07B88B3F5804FCF
:100DE40008D07B88B3F5004F04D0134840F25F115C
:100DF400FFF77AFA7B685A697B881340002B02D08C
:100E04000123FB7301E00023FB73FB7B18461037BF
:100E1400BD4680BD000002400004024000080240BC
:100E2400000C02400010024000140240001802406E
:100E3400001C0240002002407441000880B582B0CA
:100E440000AF78607B68174A934224D07B68164AC7
:100E5400934220D07B68154A93421CD07B68144A85
:100E6400934218D07B68134A934214D07B68124A89
:100E7400934210D07B68114A93420CD07B68104A8D
:100E8400934208D07B680F4A934204D00E484FF433
:100E9400BA71FFF729FA7B685B699BB21846083779
:100EA400BD4680BD0000024000040240000802402C
:100EB400000C0240001002400014024000180240DE
:100EC400001C0240002002407441000880B582B03A
:100ED40000AF78600B467B807B681B4A934224D02A
:100EE4007B681A4A934220D07B68194A93421CD0EB
:100EF4007B68184A934218D07B68174A934214D0EF
:100F04007B68164A934210D07B68154A93420CD0F2
:100F14007B68144A934208D07B68134A934204D0F6
:100F240012484FF4C371FFF7DFF97B88002B04D11B
:100F34000E4840F28711FFF7D7F97B687A881A8345
:100F44000837BD4680BD00BF0000024000040240D7
:100F540000080240000C024000100240001402404D
:100F640000180240001C02400020024074410008A6
:100F740080B582B000AF78600B467B807B681B4AEB
:100F8400934224D07B681A4A934220D07B68194A42
:100F940093421CD07B68184A934218D07B68174A46
:100FA400934214D07B68164A934210D07B68154A4A
:100FB40093420CD07B68144A934208D07B68134A4E
:100FC400934204D0124840F29911FFF78DF97B88BF
:100FD400002B04D10E484FF4CD71FFF785F97B68DF
:100FE4007A885A830837BD4680BD00BF000002409E
:100FF4000004024000080240000C024000100240BD
:101004000014024000180240001C0240002002406C
:101014007441000880B582B000AF78600B467B80D5
:1010240013467B707B683E4A934224D07B683D4ADA
:10103400934220D07B683C4A93421CD07B683B4A55
:10104400934218D07B683A4A934214D07B68394A59
:10105400934210D07B68384A93420CD07B68374A5D
:10106400934208D07B68364A934204D0354840F214
:10107400AD11FFF739F97B88012B39D07B88022B1E
:1010840036D07B88042B33D07B88082B30D07B88E8
:10109400102B2DD07B88202B2AD07B88402B27D067
:1010A4007B88802B24D07B88B3F5807F20D07B88FD
:1010B400B3F5007F1CD07B88B3F5806F18D07B8894
:1010C400B3F5006F14D07B88B3F5805F10D07B88B4
:1010D400B3F5005F0CD07B88B3F5804F08D07B88D4
:1010E400B3F5004F04D017484FF4D771FFF7FCF85D
:1010F4007B78002B07D07B78012B04D0114840F279
:10110400AF11FFF7F1F87B78002B03D07B687A8866
:101114001A8302E07B687A885A830837BD4680BD0B
:10112400000002400004024000080240000C02409B
:10113400001002400014024000180240001C02404B
:10114400002002407441000880B582B000AF78608E
:101154000B467B807B68174A934224D07B68164AEF
:10116400934220D07B68154A93421CD07B68144A72
:10117400934218D07B68134A934214D07B68124A76
:10118400934210D07B68114A93420CD07B68104A7A
:10119400934208D07B680F4A934204D00E484FF420
:1011A400E271FFF7A1F87A887B685A610837BD4677
:1011B40080BD00BF0000024000040240000802405D
:1011C400000C0240001002400014024000180240CB
:1011D400001C0240002002407441000880B582B027
:1011E40000AF78600B467B807B68184A934224D01A
:1011F4007B68174A934220D07B68164A93421CD0DE
:101204007B68154A934218D07B68144A934214D0E1
:101214007B68134A934210D07B68124A93420CD0E5
:101224007B68114A934208D07B68104A934204D0E9
:101234000F484FF4E971FFF757F87B685A697B88C8
:101244005A407B685A610837BD4680BD00000240A1
:101254000004024000080240000C0240001002405A
:101264000014024000180240001C0240002002400A
:101274007441000880B584B000AF78600B467B8071
:1012840013467B700023FB600023BB607B68834AAA
:10129400934224D07B68824A934220D07B68814A5F
:1012A40093421CD07B68804A934218D07B687F4A63
:1012B400934214D07B687E4A934210D07B687D4A67
:1012C40093420CD07B687C4A934208D07B687B4A6B
:1012D400934204D07A4840F21D21FFF705F87B8839
:1012E400002B31D07B88012B2ED07B88022B2BD076
:1012F4007B88032B28D07B88042B25D07B88052B67
:1013040022D07B88062B1FD07B88072B1CD07B88A0
:10131400082B19D07B88092B16D07B880A2B13D075
:101324007B880B2B10D07B880C2B0DD07B880D2B4E
:101334000AD07B880E2B07D07B880F2B04D0604803
:1013440040F21E21FEF7D0FF7B78002B6DD07B7816
:10135400092B6AD07B78002B67D07B78002B64D074
:101364007B78002B61D07B78002B5ED07B78012BBF
:101374005BD07B78012B58D07B78022B55D07B78BF
:10138400022B52D07B78022B4FD07B78032B4CD08E
:101394007B78042B49D07B78042B46D07B78042BB4
:1013A40043D07B78052B40D07B78052B3DD07B78D0
:1013B400092B3AD07B78062B37D07B78092B34D095
:1013C4007B78072B31D07B78072B2ED07B78072BAB
:1013D4002BD07B78082B28D07B78082B25D07B78E2
:1013E400082B22D07B78092B1FD07B78092B1CD0AB
:1013F4007B780A2B19D07B780A2B16D07B780B2BA1
:1014040013D07B780C2B10D07B780C2B0DD07B78F1
:101414000C2B0AD07B780D2B07D07B780F2B04D0B4
:10142400274840F21F21FEF75FFF7B787A8802F09D
:10143400070292009340FB607B88DB089BB218464E
:101444007B88DB089BB21A467B68083253F822205B
:101454007B8803F007039B0019460F238B40DB4373
:1014640002EA03017B6800F1080243F822107B883A
:10147400DB089BB21A467B68083253F82220FB68CB
:101484001343BB607B88DB089BB21A467B68083237
:10149400B96843F822101037BD4680BD00000240F1
:1014A4000004024000080240000C02400010024008
:1014B4000014024000180240001C024000200240B8
:1014C4007441000880B400AF104A104B1B6843F00D
:1014D400010313600D4B00229A600C4A0B4B1B68EE
:1014E40023F0847323F480331360084B084A5A6052
:1014F400064A064B1B6823F480231360034B002227
:10150400DA60BD465DF8047B704700BF00380240D6
:101514001030002480B582B000AF0346FB71FB7924
:10152400002B09D0FB79012B06D0FB79052B03D0C6
:101534000648F721FEF7D8FE054B00221A70044A2C
:10154400FB7913700837BD4680BD00BF8841000891
:101554000238024080B582B000AF00233B60002314
:10156400FB710023BB71312001F04CF80346BB71C1
:101574003B6801333B603B68B3F5A06F02D0BB7995
:10158400002BF0D0312001F03DF80346002B02D0AF
:101594000123FB7101E00023FB71FB791846083736
:1015A400BD4680BD80B584B000AF0346FB71002307
:1015B400FB60FB791F2B04D90B4840F22F11FEF777
:1015C40093FE0A4B1B68FB60FB6823F0F803FB6087
:1015D400FB79DB00FA681343FB60044AFB68136081
:1015E4001037BD4680BD00BF884100080038024066
:1015F40080B582B000AF0346FB71FB79002B07D0A6
:10160400FB79012B04D005484FF4A971FEF76CFE59
:10161400034AFB7913600837BD4680BD8841000842
:101624000000474280B582B000AF0346FB71FB79EE
:10163400002B0AD0FB79012B07D0FB79042B04D0B3
:101644000D4840F26B11FEF74FFE0C4B00221A704E
:101654000A4B00221A70FB79012B02D0042B04D010
:1016640007E0064B01221A7003E0044B05221A70AE
:1016740000BF0837BD4680BD88410008703802406D
:1016840080B582B000AF0346FB71FB79002B07D015
:10169400FB79012B04D0054840F29311FEF724FE98
:1016A400034AFB7913600837BD4680BD88410008B2
:1016B400800E474280B584B000AFF860B9607A60AC
:1016C4003B60FB68002B08D0FB68B3F5800F04D0A7
:1016D40023484FF4DF71FEF707FEBB683F2B04D9A4
:1016E4001F4840F2BF11FEF7FFFD7B68BF2B03D9F3
:1016F4007B68B3F5D87F04D919484FF4E071FEF73D
:10170400F3FD3B68022B0DD03B68042B0AD03B68E9
:10171400062B07D03B68082B04D0114840F2C111B6
:10172400FEF7E2FDBB69032B02D9BB690F2B04D979
:101734000B484FF4E171FEF7D7FD0A497B689A0123
:10174400BB681A433B685B08013B1B041A43FB68F4
:101754001A43BB691B0613434B601037BD4680BD5B
:10176400884100080038024080B582B000AF0346CB
:10177400FB71FB79002B07D0FB79012B04D00548C2
:1017840040F2D511FEF7B0FD034AFB791360083728
:10179400BD4680BD884100086000474280B582B0E4
:1017A40000AF786039607B68BF2B03D97B68B3F5E1
:1017B400D87F04D90D484FF4F871FEF795FD3B68C6
:1017C400012B02D93B68072B04D9084840F2F111D8
:1017D400FEF78AFD06497B689A013B681B071343A1
:1017E400C1F884300837BD4680BD00BF8841000879
:1017F4000038024080B582B000AF0346FB71FB792C
:10180400002B07D0FB79012B04D005484FF400715D
:10181400FEF76AFD034AFB7913600837BD4680BDB5
:10182400884100086800474280B582B000AF034693
:10183400FB71FB79002B07D0FB79012B04D0054801
:1018440040F21221FEF750FD034AFB79136008377A
:10185400BD4680BD884100084C00474280B584B035
:1018640000AF786039600023FB607B68002B10D0E8
:101874007B68B3F5001F0CD07B68B3F5800F08D0EC
:101884007B68B3F5C00F04D0174840F22D21FEF752
:101894002BFD3B68002B14D03B68B3F1806F10D054
:1018A4003B68B3F1A06F0CD03B68B3F1C06F08D0B4
:1018B4003B68B3F1E06F04D00B4840F22E21FEF7F1
:1018C40013FD0A4B9B68FB60FB6823F0EC63FB6031
:1018D4007A683B681343FA681343FB60034AFB6866
:1018E40093601037BD4680BD88410008003802402F
:1018F40080B584B000AF786039600023FB607B68FA
:10190400002B10D07B68B3F1804F0CD07B68B3F10F
:10191400004F08D07B68B3F1404F04D0174840F221
:101924005321FEF7E1FC3B68002B14D03B68B3F174
:10193400005F10D03B68B3F1205F0CD03B68B3F17B
:10194400405F08D03B68B3F1605F04D00B484FF4AC
:101954001571FEF7C9FC0A4B9B68FB60FB6823F01A
:101964007843FB607A683B681343FA681343FB606F
:10197400034AFB6893601037BD4680BD8841000868
:101984000038024080B584B000AF78600023FB606B
:101994007B68002B0AD07B68012B07D07B68022B65
:1019A40004D00B484FF42F71FEF79EFC094B9B6843
:1019B400FB60FB6823F00303FB60FA687B68134356
:1019C400FB60044AFB6893601037BD4680BD00BFCE
:1019D400884100080038024080B400AF054B9B6882
:1019E400DBB203F00C03DBB21846BD465DF8047BA2
:1019F400704700BF0038024080B584B000AF786003
:101A04000023FB607B68002B1CD07B68802B19D0E3
:101A14007B68902B16D07B68A02B13D07B68B02BEF
:101A240010D07B68C02B0DD07B68D02B0AD07B688C
:101A3400E02B07D07B68F02B04D00B4840F2F12157
:101A4400FEF752FC094B9B68FB60FB6823F0F00334
:101A5400FB60FA687B681343FB60044AFB6893608D
:101A64001037BD4680BD00BF8841000800380240E1
:101A740080B584B000AF78600023FB607B68002BE6
:101A840014D07B68B3F5805F10D07B68B3F5A05F9A
:101A94000CD07B68B3F5C05F08D07B68B3F5E05F1A
:101AA40004D00B4840F21131FEF71EFC094B9B6831
:101AB400FB60FB6823F4E053FB60FA687B68134324
:101AC400FB60044AFB6893601037BD4680BD00BFCD
:101AD400884100080038024080B584B000AF7860C7
:101AE4000023FB607B68002B14D07B68B3F5805F18
:101AF40010D07B68B3F5A05F0CD07B68B3F5C05FF2
:101B040008D07B68B3F5E05F04D00B484FF44C7108
:101B1400FEF7EAFB094B9B68FB60FB6823F4604318
:101B2400FB607B68DB00FA681343FB60034AFB68D5
:101B340093601037BD4680BD8841000800380240DC
:101B440080B489B000AF78600023BB6100237B615F
:101B54000023FB6102233B610023FB600223BB6083
:101B6400484B9B6803F00C03BB61BB69042B07D093
:101B7400082B09D0002B3FD17B68434A1A603FE011
:101B84007B68424A1A603BE03E4B5B6803F4800387
:101B94009B0DFB603B4B5B6803F03F03BB60FB6842
:101BA400002B0DD0394ABB68B2FBF3F2354B5968B0
:101BB40047F6C0730B409B0903FB02F3FB610CE087
:101BC400314ABB68B2FBF3F22E4B596847F6C07337
:101BD4000B409B0903FB02F3FB612A4B5B6803F494
:101BE40040331B0C01335B003B61FA693B69B2FB78
:101BF400F3F27B681A6003E07B68234A1A6000BF33
:101C0400204B9B6803F0F003BB61BB691B09BB61FC
:101C14001F4ABB6913441B78DBB27B617B681A687B
:101C24007B69DA407B685A60164B9B6803F4E05387
:101C3400BB61BB699B0ABB61154ABB6913441B7832
:101C4400DBB27B617B685A687B69DA407B689A60A7
:101C54000C4B9B6803F46043BB61BB695B0BBB61CA
:101C64000B4ABB6913441B78DBB27B617B685A68FF
:101C74007B69DA407B68DA602437BD465DF8047B13
:101C8400704700BF003802400024F40040787D0112
:101C94001800002080B584B000AF78600023FB609A
:101CA4007B68B3F5807F00F081807B68B3F5007FAB
:101CB4007CD07B684F4A934278D07B684E4A9342EB
:101CC40074D07B684D4A934270D07B684C4A9342EF
:101CD4006CD07B684B4A934268D07B684A4A9342F3
:101CE40064D07B68494A934260D07B68484A9342F7
:101CF4005CD07B68474A934258D07B68464A9342FB
:101D040054D07B68454A934250D07B68444A9342FE
:101D14004CD07B68434A934248D07B68424A934202
:101D240044D07B68414A934240D07B68404A934206
:101D34003CD07B683F4A934238D07B683E4A93420A
:101D440034D07B683D4A934230D07B683C4A93420E
:101D54002CD07B683B4A934228D07B683A4A934212
:101D640024D07B68394A934220D07B68384A934216
:101D74001CD07B68374A934218D07B68364A93421A
:101D840014D07B68354A934210D07B68344A93421E
:101D94000CD07B68334A934208D07B68324A934222
:101DA40004D0324840F2E131FEF79EFA7B6803F436
:101DB4004073B3F5407F11D12D4B9B68FB60FB68EA
:101DC40023F4F813FB607B6823F0704323F440731F
:101DD400FA681343FB60264AFB6893602449244B4A
:101DE4001A6F7B68C3F30B0313430B671037BD46AD
:101DF40080BD00BF000302000003030000030400D1
:101E040000030500000306000003070000030800A8
:101E14000003090000030A0000030B0000030C0088
:101E240000030D0000030E0000030F000003100068
:101E34000003110000031200000313000003140048
:101E44000003150000031600000317000003180028
:101E54000003190000031A0000031B0000031C0008
:101E640000031D0000031E0000031F00884100083A
:101E74000038024080B582B000AF0346FB71FB79A5
:101E8400002B07D0FB79012B04D0054840F2FF3129
:101E9400FEF72AFA034AFB7913600837BD4680BD72
:101EA400884100083C0E474280B582B000AF03462B
:101EB400FB71FB79002B07D0FB79012B04D005487B
:101EC4004FF48261FEF710FA034AFB791360083776
:101ED400BD4680BD88410008400E474280B582B0AF
:101EE40000AF78607B68002B07D07B68012B04D09F
:101EF400054840F22441FEF7F7F9044A7B68136071
:101F04000837BD4680BD00BF884100085C014742D8
:101F140080B582B000AF78600B46FB707A68154BD1
:101F24001340002B02D17B68002B04D1124840F2ED
:101F34004A41FEF7D9F9FB78002B07D0FB78012B37
:101F440004D00D4840F24C41FEF7CEF9FB78002B4B
:101F540006D00A49094B1A6B7B6813430B6306E0EE
:101F64000649064B1A6B7B68DB4313400B63083747
:101F7400BD4680BD00EE9B818841000800380240C8
:101F840080B582B000AF78600B46FB707B6823F0AD
:101F9400F103002B02D17B68002B04D1114840F2DD
:101FA4006A41FEF7A1F9FB78002B07D0FB78012BDF
:101FB40004D00C4840F26B41FEF796F9FB78002BF5
:101FC40006D00949084B5A6B7B6813434B6306E000
:101FD4000549054B5A6B7B68DB4313404B63083759
:101FE400BD4680BD884100080038024080B582B0FB
:101FF40000AF78600B46FB707B6823F00103002B75
:1020040002D17B68002B04D1114840F28541FEF7D0
:102014006BF9FB78002B07D0FB78012B04D00C481C
:1020240040F28641FEF760F9FB78002B06D009499F
:10203400084B9A6B7B6813438B6306E00549054B99
:102044009A6B7B68DB4313408B630837BD4680BDC6
:10205400884100080038024080B582B000AF786043
:102064000B46FB707A68154B1340002B02D17B683A
:10207400002B04D1124840F2B741FEF735F9FB7842
:10208400002B07D0FB78012B04D00D484FF4976147
:10209400FEF72AF9FB78002B06D00A49094B1A6C83
:1020A4007B6813430B6406E00649064B1A6C7B6895
:1020B400DB4313400B640837BD4680BD003601C9BD
:1020C400884100080038024080B582B000AF7860D3
:1020D4000B46FB707A68154B1340002B02D17B68CA
:1020E400002B04D1124840F2DF41FEF7FDF8FB78E3
:1020F400002B07D0FB78012B04D00D484FF49C61D2
:10210400FEF7F2F8FB78002B06D00A49094B5A6C0B
:102114007B6813434B6406E00649064B5A6C7B68A4
:10212400DB4313404B640837BD4680BDCCA0F8FFA9
:10213400884100080038024080B582B000AF786062
:102144000B46FB707A68154B1340002B02D17B6859
:10215400002B04D1124840F20651FEF7C5F8FB7873
:10216400002B07D0FB78012B04D00D4840F2075117
:10217400FEF7BAF8FB78002B06D00A49094B1A6916
:102184007B6813430B6106E00649064B1A697B68BA
:10219400DB4313400B610837BD4680BD00EE9FDD75
:1021A400884100080038024080B582B000AF7860F2
:1021B4000B46FB707B6823F0F103002B02D17B6894
:1021C400002B04D1114840F22351FEF78DF8FB781F
:1021D400002B07D0FB78012B04D00C4840F224518B
:1021E400FEF782F8FB78002B06D00949084B5A69A0
:1021F4007B6813434B6106E00549054B5A697B68CC
:10220400DB4313404B610837BD4680BD884100085D
:102214000038024080B582B000AF78600B46FB7096
:102224007B6823F00103002B02D17B68002B04D1CF
:10223400114840F23B51FEF757F8FB78002B07D0CA
:10224400FB78012B04D00C4840F23C51FEF74CF8CB
:10225400FB78002B06D00949084B9A697B68134325
:102264008B6106E00549054B9A697B68DB431340A3
:102274008B610837BD4680BD8841000800380240A4
:1022840080B582B000AF78600B46FB707A68154B5E
:102294001340002B02D17B68002B04D1124840F27A
:1022A4006A51FEF721F8FB78002B07D0FB78012B4D
:1022B40004D00D4840F26B51FEF716F8FB78002B62
:1022C40006D00A49094B1A6A7B6813430B6206E07D
:1022D4000649064B1A6A7B68DB4313400B620837D6
:1022E400BD4680BD003601C988410008003802405F
:1022F40080B582B000AF78600B46FB707A68154BEE
:102304001340002B02D17B68002B04D1124840F209
:102314008E51FDF7E9FFFB78002B07D0FB78012BEA
:1023240004D00D4840F28F51FDF7DEFFFB78002BFF
:1023340006D00A49094B5A6A7B6813434B6206E08C
:102344000649064B5A6A7B68DB4313404B620837E5
:10235400BD4680BDCCA6F8FF884100080038024085
:1023640080B582B000AF78600B46FB707A68154B7D
:102374001340002B02D17B68002B04D1124840F299
:10238400BC51FDF7B1FFFB78002B07D0FB78012B84
:1023940004D00D4840F2BD51FDF7A6FFFB78002B99
:1023A40006D00A49094B1A6D7B6813430B6506E096
:1023B4000649064B1A6D7B68DB4313400B650837EF
:1023C400BD4680BD006E98818841000800380240F7
:1023D40080B582B000AF78600B46FB707B6823F059
:1023E400F103002B02D17B68002B04D1114840F289
:1023F400DC51FDF779FFFB78002B07D0FB78012B2C
:1024040004D00C4840F2DD51FDF76EFFFB78002B41
:1024140006D00949084B5A6D7B6813434B6506E0A7
:102424000549054B5A6D7B68DB4313404B65083700
:10243400BD4680BD884100080038024080B582B0A6
:1024440000AF78600B46FB707B6823F00103002B20
:1024540002D17B68002B04D1114840F2F751FDF7FB
:1024640043FFFB78002B07D0FB78012B04D00C48EA
:102474004FF4BF61FDF738FFFB78002B06D0094904
:10248400084B9A6D7B6813438B6506E00549054B41
:102494009A6D7B68DB4313408B650837BD4680BD6E
:1024A400884100080038024080B582B000AF7860EF
:1024B4000B46FB707A68154B1340002B02D17B68E6
:1024C400002B04D1124840F22961FDF70DFFFB787F
:1024D400002B07D0FB78012B04D00D4840F22A6171
:1024E400FDF702FFFB78002B06D00A49094B1A6E50
:1024F4007B6813430B6606E00649064B1A6E7B683D
:10250400DB4313400B660837BD4680BD003601C966
:10251400884100080038024080B582B000AF78607E
:102524000B46FB707A68154B1340002B02D17B6875
:10253400002B04D1124840F25161FDF7D5FEFB781F
:10254400002B07D0FB78012B04D00D4840F25261D8
:10255400FDF7CAFEFB78002B06D00A49094B5A6ED8
:102564007B6813434B6606E00649064B5A6E7B684C
:10257400DB4313404B660837BD4680BDCCA0F8FF53
:10258400884100080038024080B582B000AF03469D
:102594000A46FB711346BB71FB7903F0C003002BA1
:1025A40002D1FB79002B04D1144840F27E61FDF77F
:1025B4009BFEBB79002B07D0BB79012B04D00F48BD
:1025C40040F27F61FDF790FEBB79002B08D00C49E7
:1025D4000B4B1B78DAB2FB791343DBB20B7009E0C7
:1025E4000749074B1B78DAB2FB79DB43DBB21340B4
:1025F400DBB20B700837BD4680BD00BF88410008C0
:102604000D38024080B586B000AF0346FB7100234D
:10261400FB6000237B610023FB74FB79212B28D012
:10262400FB79312B25D0FB79392B22D0FB79412B37
:102634001FD0FB79612B1CD0FB79792B19D0FB7946
:102644007A2B16D0FB797B2B13D0FB797C2B10D003
:10265400FB797D2B0DD0FB797E2B0AD0FB797F2B68
:1026640007D0FB793B2B04D0174840F2A661FDF755
:102674003BFEFB795B09DBB2FB60FB68012B03D1FA
:10268400124B1B687B6109E0FB68022B03D10F4BE3
:102694001B6F7B6102E00D4B5B6F7B61FB7903F089
:1026A4001F03FB60FB687A6922FA03F303F001035A
:1026B400002B02D00123FB7401E00023FB74FB7C9C
:1026C40018461837BD4680BD8841000800380240CE
:1026D40080B400AF044A044B5B6F43F080735367CC
:1026E400BD465DF8047B70470038024080B584B075
:1026F40000AF0346FB710023FB73FB79012B16D05B
:10270400FB79022B13D0FB79042B10D0FB79082B17
:102714000DD0FB79102B0AD0FB79802B07D0FB79E5
:10272400202B04D00A4840F2E461FDF7DDFD094B9B
:10273400DA68FB791340002B02D00123FB7301E01C
:102744000023FB73FB7B18461037BD4680BD00BFDA
:10275400884100080038024080B582B000AF0346CB
:10276400FB71FB7903F04003002B02D1FB79002BB2
:1027740004D1054840F20371FDF7B6FD034AFB7925
:1027840013700837BD4680BD884100080E380240EA
:1027940080B582B000AF78607B68394A934217D025
:1027A4007B68384A934213D07B68374A93420FD0F0
:1027B4007B68364A93420BD07B68354A934207D0F4
:1027C4007B68344A934203D03348BC21FDF78CFD27
:1027D4007B682B4A934208D110200121FFF788FD22
:1027E40010200021FFF784FD47E07B68254A9342CF
:1027F4000AD14FF400300121FFF742FD4FF40030BD
:102804000021FFF73DFD38E07B681F4A93420AD15F
:102814004FF480200121FFF733FD4FF48020002185
:10282400FFF72EFD29E07B68184A93420AD14FF442
:1028340000200121FFF724FD4FF400200021FFF7C1
:102844001FFD1AE07B68124A93420AD14FF48010AC
:102854000121FFF715FD4FF480100021FFF710FD53
:102864000BE07B680B4A934207D120200121FFF73C
:102874003FFD20200021FFF73BFD0837BD4680BD0A
:10288400001001400044004000480040004C00405B
:1028940000500040001401409841000880B58AB0FF
:1028A40000AF7860396000237B6200233B62002321
:1028B400FB610023BB617B68984A934217D07B6815
:1028C400974A934213D07B68964A93420FD07B6811
:1028D400954A93420BD07B68944A934207D07B6815
:1028E400934A934203D09348F221FDF7FDFC3B68E1
:1028F4001B68002B04D03B681B688F4A934203D9A2
:102904008C48F321FDF7F0FC3B689B88002B08D032
:102914003B689B88B3F5805F03D08648F421FDF7BC
:10292400E3FC3B68DB88002B12D03B68DB88B3F503
:10293400805F0DD03B68DB88B3F5005F08D03B684F
:10294400DB88B3F5405F03D07A48F521FDF7CCFC72
:102954003B681B89002B0DD03B681B89B3F5806F46
:1029640008D03B681B89B3F5C06F03D07148F621CA
:10297400FDF7BAFC3B685B891A464FF6F3731340C4
:10298400002B03D13B685B89002B03D16948F721F5
:10299400FDF7AAFC3B689B89002B12D03B689B89FE
:1029A400B3F5807F0DD03B689B89B3F5007F08D0D9
:1029B4003B689B89B3F5407F03D05E48F821FDF75F
:1029C40093FC3B689B89002B13D07B68534A93424A
:1029D4000FD07B68524A93420BD07B68514A934292
:1029E40007D07B68524A934203D05248FD21FDF739
:1029F4007BFC7B681B8A9BB27B627B6A23F440531B
:102A04007B623B68DB881A467B6A13437B627B6A82
:102A14009AB27B681A827B689B899BB27B627B6AD1
:102A240023F4B05323F00C037B623B689A883B6821
:102A34001B8913439AB23B685B8913439BB21A46C2
:102A44007B6A13437B627B6A9AB27B689A817B6858
:102A54009B8A9BB27B627B6A23F440737B623B68F4
:102A64009B891A467B6A13437B627B6A9AB27B68B2
:102A74009A8207F108031846FFF762F87B68274A31
:102A8400934203D07B682A4A934202D17B693B621A
:102A940001E03B693B627B689B899BB29BB21BB2A2
:102AA400002B0CDA3A6A13469B0013449A001A442A
:102AB4003B681B685B00B2FBF3F3FB610BE03A6A13
:102AC40013469B0013449A001A443B681B689B00FE
:102AD400B2FBF3F3FB61FB69184AA2FB03235B0916
:102AE4001B017B627B6A1B09642202FB03F3FA6904
:102AF400D31ABB617B689B899BB29BB21BB2002B30
:102B04001EDABB69DB0032330C4AA2FB03235B09E8
:102B140003F007037A6A13437B621DE0001001404F
:102B24000044004000480040004C00400050004079
:102B34000014014098410008E07072001F85EB51B9
:102B4400BB691B013233084AA2FB03235B0903F070
:102B54000F037A6A13437B627B6A9AB27B681A8199
:102B64002837BD4680BD00BF1F85EB5180B483B0BC
:102B740000AF78607B684FF416521A607B680022BD
:102B84009A807B680022DA807B6800221A817B6845
:102B94000C225A817B6800229A810C37BD465DF86D
:102BA400047B704780B584B000AF7860396000233F
:102BB400FB607B68364A934210D07B68354A934267
:102BC4000CD07B68344A934208D07B68334A9342E2
:102BD40004D0334840F27311FDF786FB3B681B8831
:102BE400002B09D03B681B88B3F5006F04D02C4838
:102BF4004FF4BA71FDF778FB3B685B88002B09D072
:102C04003B685B88B3F5806F04D0254840F27511AA
:102C1400FDF76AFB3B689B88002B09D03B689B88C7
:102C2400B3F5007F04D01E484FF4BB71FDF75CFB85
:102C34003B68DB88002B09D03B68DB88B3F5807FD9
:102C440004D0174840F27711FDF74EFB7B681B8ACE
:102C54009BB2FB60FB6823F47063FB603B681A88DB
:102C64003B685B8813439AB23B689B8813439AB2D0
:102C74003B68DB8813439BB21A46FB681343FB6033
:102C8400FB689AB27B681A821037BD4680BD00BFCC
:102C9400001001400044004000480040001401407E
:102CA4009841000880B483B000AF78607B6800224C
:102CB4001A807B6800225A807B6800229A807B6895
:102CC4000022DA800C37BD465DF8047B704700BFF4
:102CD40080B582B000AF78600B46FB707B681F4AFA
:102CE400934218D07B681E4A934214D07B681D4AD5
:102CF400934210D07B681C4A93420CD07B681B4AD9
:102D0400934208D07B681A4A934204D019484FF47E
:102D1400D171FDF7E9FAFB78002B07D0FB78012B82
:102D240004D0144840F2A311FDF7DEFAFB78002B1F
:102D340008D07B689B899BB243F400539AB27B68AA
:102D44009A8107E07B689B899BB223F400539AB273
:102D54007B689A810837BD4680BD00BF00100140E2
:102D64000044004000480040004C00400050004037
:102D7400001401409841000880B582B000AF78602B
:102D84000B46FB707B68184A934218D07B68174A3D
:102D9400934214D07B68164A934210D07B68154A3C
:102DA40093420CD07B68144A934208D07B68134A40
:102DB400934204D012484FF4DE71FDF795FA7B6814
:102DC4001B8B9BB223F0FF039AB27B681A837B6848
:102DD4001B8B9AB2FB789BB213439AB27B681A831B
:102DE4000837BD4680BD00BF0010014000440040CC
:102DF40000480040004C00400050004000140140D6
:102E04009841000880B582B000AF78600B46FB7033
:102E14007B68204A934218D07B681F4A934214D09F
:102E24007B681E4A934210D07B681D4A93420CD0A3
:102E34007B681C4A934208D07B681B4A934204D0A7
:102E44001A4840F2D111FDF74FFAFB78002B07D056
:102E5400FB78012B04D015484FF4E971FDF744FACF
:102E6400FB78002B0AD07B689B899BB26FEA4343B3
:102E74006FEA53439AB27B689A8107E07B689B8927
:102E84009BB2C3F30E039AB27B689A810837BD469E
:102E940080BD00BF001001400044004000480040D5
:102EA400004C0040005000400014014098410008CC
:102EB40080B582B000AF78600B46FB707B681F4A18
:102EC400934218D07B681E4A934214D07B681D4AF3
:102ED400934210D07B681C4A93420CD07B681B4AF7
:102EE400934208D07B681A4A934204D0194840F2AE
:102EF400EB11FDF7F9F9FB78002B07D0FB78012BD8
:102F040004D014484FF4F671FDF7EEF9FB78002B6A
:102F140008D07B689B8A9BB243F400639AB27B68B7
:102F24009A8207E07B689B8A9BB223F400639AB27F
:102F34007B689A820837BD4680BD00BF00100140FF
:102F44000044004000480040004C00400050004055
:102F5400001401409841000880B582B000AF786049
:102F64000B467B807B68174A934218D07B68164ACD
:102F7400934214D07B68154A934210D07B68144A5C
:102F840093420CD07B68134A934208D07B68124A60
:102F9400934204D011484FF40971FDF7A5F97B88D9
:102FA400B3F5007F04D30D4840F22521FDF79CF9C9
:102FB4007B88C3F308039AB27B689A800837BD46BE
:102FC40080BD00BF001001400044004000480040A4
:102FD400004C00400050004000140140984100089B
:102FE40080B582B000AF78607B68134A934218D0F2
:102FF4007B68124A934214D07B68114A934210D0E2
:103004007B68104A93420CD07B680F4A934208D0E5
:103014007B680E4A934204D00D484FF40D71FDF7BE
:1030240063F97B689B889BB2C3F308039BB2184681
:103034000837BD4680BD00BF001001400044004079
:1030440000480040004C0040005000400014014083
:103054009841000880B582B000AF78600B46FB70E1
:103064007B681C4A934218D07B681B4A934214D055
:103074007B681A4A934210D07B68194A93420CD059
:103084007B68184A934208D07B68174A934204D05D
:10309400164840F26721FDF727F9FB780F2B04D976
:1030A40012484FF41A71FDF71FF97B681B8A9BB213
:1030B40023F00F039AB27B681A827B681B8A9AB248
:1030C400FB789BB213439AB27B681A820837BD46D9
:1030D40080BD00BF00100140004400400048004093
:1030E400004C00400050004000140140984100088A
:1030F40080B582B000AF78600B46FB707B681F4AD6
:10310400934218D07B681E4A934214D07B681D4AB0
:10311400934210D07B681C4A93420CD07B681B4AB4
:10312400934208D07B681A4A934204D0194840F26B
:103134007B21FDF7D9F8FB78002B07D0FB78012B16
:1031440004D014484FF41F71FDF7CEF8FB78002B20
:1031540008D07B689B899BB243F002039AB27B68D8
:103164009A8107E07B689B899BB223F002039AB2A1
:103174007B689A810837BD4680BD00BF00100140BE
:103184000044004000480040004C00400050004013
:10319400001401409841000880B582B000AF786007
:1031A4000B467B807B681D4A934218D07B681C4A7F
:1031B400934214D07B681B4A934210D07B681A4A0E
:1031C40093420CD07B68194A934208D07B68184A12
:1031D400934204D0174840F29621FDF785F87B8886
:1031E400002B08D07B88B3F5006F04D0114840F25F
:1031F4009721FDF779F87B689B899BB223F40063E0
:103204009AB27B689A817B689B899AB27B881343C4
:103214009AB27B689A810837BD4680BD0010014090
:103224000044004000480040004C00400050004072
:10323400001401409841000880B582B000AF786066
:103244000B467B807B681D4A934218D07B681C4ADE
:10325400934214D07B681B4A934210D07B681A4A6D
:1032640093420CD07B68194A934208D07B68184A71
:10327400934204D0174840F2DB21FDF735F87B88F0
:10328400002B07D07B88202B04D012484FF43771D1
:10329400FDF72AF87B681B8A9BB223F020039AB2BD
:1032A4007B681A827B681B8A9AB27B8813439AB222
:1032B4007B681A820837BD4680BD00BF00100140FC
:1032C4000044004000480040004C004000500040D2
:1032D400001401409841000880B582B000AF7860C6
:1032E4000B46FB707B681F4A934218D07B681E4ACA
:1032F400934214D07B681D4A934210D07B681C4AC9
:1033040093420CD07B681B4A934208D07B681A4ACC
:10331400934204D0194840F2ED21FCF7E5FFFB7815
:10332400002B07D0FB78012B04D0144840F2EE2187
:10333400FCF7DAFFFB78002B08D07B681B8A9BB272
:1033440043F480439AB27B681A8207E07B681B8A45
:103354009BB223F480439AB27B681A820837BD4635
:1033640080BD00BF00100140004400400048004000
:10337400004C0040005000400014014098410008F7
:1033840080B582B000AF78607B68134A934218D04E
:103394007B68124A934214D07B68114A934210D03E
:1033A4007B68104A93420CD07B680F4A934208D042
:1033B4007B680E4A934204D00D4840F20531FCF775
:1033C40093FF7B689B899BB243F001039AB27B68AD
:1033D4009A810837BD4680BD00100140004400407A
:1033E40000480040004C00400050004000140140E0
:1033F4009841000880B582B000AF78600B46FB703E
:103404007B681F4A934218D07B681E4A934214D0AB
:103414007B681D4A934210D07B681C4A93420CD0AF
:103424007B681B4A934208D07B681A4A934204D0B3
:10343400194840F23A31FCF757FFFB78002B07D0CC
:10344400FB78012B04D0144840F23B31FCF74CFFCD
:10345400FB78002B08D07B689B8A9BB243F008035F
:103464009AB27B689A8207E07B689B8A9BB223F0BE
:1034740008039AB27B689A820837BD4680BD00BFB4
:10348400001001400044004000480040004C00404F
:1034940000500040001401409841000880B582B0FB
:1034A40000AF78600B46FB707B68144A934210D0DF
:1034B4007B68134A93420CD07B68124A934208D02B
:1034C4007B68114A934204D0104840F28F31FCF7D4
:1034D4000BFF7B681B8B9BB2DBB29AB27B681A83AF
:1034E4007B681B8B9AB2FB789BB21B029BB2134383
:1034F4009AB27B681A830837BD4680BD001001402C
:103504000044004000480040001401409841000875
:1035140080B582B000AF78600B46FB707B681B4AB5
:10352400934210D07B681A4A93420CD07B68194AA4
:10353400934208D07B68184A934204D0174840F25B
:10354400A231FCF7D1FEFB78002B07D0FB78012BCE
:1035540004D0124840F2A331FCF7C6FEFB78002BDE
:1035640008D07B689B8A9BB243F020039AB27B68A5
:103574009A8207E07B689B8A9BB223F020039AB26D
:103584007B689A820837BD4680BD00BF00100140A9
:1035940000440040004800400014014098410008E5
:1035A40080B582B000AF78600B46FB707B681B4A25
:1035B400934210D07B681A4A93420CD07B68194A14
:1035C400934208D07B68184A934204D0174840F2CB
:1035D400BB31FCF789FEFB78002B07D0FB78012B6D
:1035E40004D012484FF46F71FCF77EFEFB78002B79
:1035F40008D07B689B8A9BB243F010039AB27B6825
:103604009A8207E07B689B8A9BB223F010039AB2EC
:103614007B689A820837BD4680BD00BF0010014018
:103624000044004000480040001401409841000854
:1036340080B582B000AF78600B467B807B681D4A02
:10364400934218D07B681C4A934214D07B681B4A6F
:10365400934210D07B681A4A93420CD07B68194A73
:10366400934208D07B68184A934204D0174840F22A
:103674000241FCF739FE7B88042B07D07B88002BA2
:1036840004D0124840F20341FCF72EFE7B689B8A6B
:103694009BB223F004039AB27B689A827B689B8A6C
:1036A4009AB27B8813439AB27B689A820837BD46E4
:1036B40080BD00BF001001400044004000480040AD
:1036C400004C0040005000400014014098410008A4
:1036D40080B582B000AF78600B46FB707B681F4AF0
:1036E400934218D07B681E4A934214D07B681D4ACB
:1036F400934210D07B681C4A93420CD07B681B4ACF
:10370400934208D07B681A4A934204D0194840F285
:103714001441FCF7E9FDFB78002B07D0FB78012B63
:1037240004D0144840F21541FCF7DEFDFB78002B71
:1037340008D07B689B8A9BB243F002039AB27B68F1
:103744009A8207E07B689B8A9BB223F002039AB2B9
:103754007B689A820837BD4680BD00BF00100140D7
:103764000044004000480040004C0040005000402D
:10377400001401409841000880B582B000AF786021
:103784000B467B8013467B707B68274A934218D094
:103794007B68264A934214D07B68254A934210D012
:1037A4007B68244A93420CD07B68234A934208D016
:1037B4007B68224A934204D0214840F24241FCF7FC
:1037C40093FD7A884FF63F731340002B02D17B8818
:1037D400002B04D11A4840F24341FCF785FD7B7865
:1037E400002B07D07B78012B04D0154840F24441CC
:1037F400FCF77AFD7B78002B08D07B689B8A9AB211
:103804007B8813439AB27B689A8209E07B689B8A1F
:103814009AB27B88DB439BB213409AB27B689A824C
:103824000837BD4680BD00BF001001400044004081
:1038340000480040004C004000500040001401408B
:103844009841000880B586B000AF78600B467B8055
:1038540013467B7000233B610023FB600023BB60A5
:1038640000237B617B684F4A934218D07B684E4AA1
:10387400934214D07B684D4A934210D07B684C4AE3
:1038840093420CD07B684B4A934208D07B684A4AE7
:10389400934204D0494840F2C441FCF725FD7B889B
:1038A400282B25D07B8840F22772934220D07B8836
:1038B40040F2266293421BD07B8840F22552934209
:1038C40016D07B8840F22442934211D07B8840F684
:1038D400460293420CD07B8840F66A12934207D08A
:1038E4007B88602B04D0354840F2C541FCF7FCFCD2
:1038F4007B78002B07D07B78012B04D02F4840F233
:10390400C641FCF7F1FC7B8840F66A12934214D15D
:103914007B68244A934210D07B68234A93420CD09C
:103924007B68224A934208D07B68234A934204D09E
:10393400224840F2CB41FCF7D7FC7B687B617B8853
:10394400DBB25B09DBB23B617B8803F01F03FB60E6
:10395400FB68012202FA03F3BB603B69012B03D12C
:103964007B690C337B6109E03B69022B03D17B69E2
:1039740010337B6102E07B6914337B617B78002B1D
:1039840006D07B697A691168BA680A431A6006E04E
:103994007B697A691168BA68D2430A401A60183799
:1039A400BD4680BD00100140004400400048004076
:1039B400004C0040005000400014014098410008B1
:1039C40080B584B000AF78600B467B800023FB7326
:1039D4007B68364A934218D07B68354A934214D0A8
:1039E4007B68344A934210D07B68334A93420CD0AC
:1039F4007B68324A934208D07B68314A934204D0B0
:103A0400304840F20351FCF76FFC7B88012B21D036
:103A14007B88802B1ED07B88402B1BD07B88202B5F
:103A240018D07B88102B15D07B88B3F5807F11D0FC
:103A34007B88B3F5007F0DD07B88082B0AD07B8868
:103A4400042B07D07B88022B04D01E4840F204517B
:103A5400FCF74AFC7B88B3F5007F14D17B68134ADA
:103A6400934210D07B68124A93420CD07B68114A6F
:103A7400934208D07B68124A934204D0114840F222
:103A84000951FCF731FC7B681B889AB27B88134090
:103A94009BB2002B02D00123FB7301E00023FB73D4
:103AA400FB7B18461037BD4680BD00BF00100140A7
:103AB4000044004000480040004C004000500040DA
:103AC400001401409841000880B582B000AF7860CE
:103AD4000B467B807B68264A934218D07B68254A34
:103AE400934214D07B68244A934210D07B68234AC3
:103AF40093420CD07B68224A934208D07B68214AC7
:103B0400934204D0204840F23351FCF7EDFB7A880D
:103B14004FF69F431340002B02D17B88002B04D126
:103B2400194840F23451FCF7DFFB7B8803F400733F
:103B3400002B14D07B680E4A934210D07B680D4A48
:103B440093420CD07B680C4A934208D07B680D4AA0
:103B5400934204D00C4840F23951FCF7C5FB7B88F2
:103B6400DB439AB27B681A800837BD4680BD00BF2C
:103B7400001001400044004000480040004C004058
:103B840000500040001401409841000880B586B000
:103B940000AF78600B467B800023FB6000237B61D1
:103BA4000023BB600023FB747B685E4A934218D0F9
:103BB4007B685D4A934214D07B685C4A934210D080
:103BC4007B685B4A93420CD07B685A4A934208D084
:103BD4007B68594A934204D0584840F25751FCF745
:103BE40083FB7B88282B37D07B8840F22772934253
:103BF40032D07B8840F2266293422DD07B8840F2FB
:103C04002552934228D07B8840F22442934223D009
:103C14007B8840F6460293421ED07B8840F66A12A7
:103C2400934219D07B88B3F5587F15D07B8840F236
:103C34002532934210D07B88B3F5587F0CD07B8813
:103C4400B3F5187F08D07B88B3F5B07F04D03B4828
:103C54004FF4AB61FCF748FB7B8840F66A12934251
:103C640014D17B682F4A934210D07B682E4A93422A
:103C74000CD07B682D4A934208D07B682E4A93422D
:103C840004D02E4840F25D51FCF72EFB7B88DBB25A
:103C94005B09DBB2BB607B8803F01F037B617B693C
:103CA400012202FA03F37B61BB68012B07D17B6815
:103CB4009B899BB21A467B6913407B6111E0BB6808
:103CC400022B07D17B681B8A9BB21A467B6913407F
:103CD4007B6106E07B689B8A9BB21A467B69134032
:103CE4007B617B881B0A9BB2FB60FB68012202FAA2
:103CF40003F3FB607B681B889BB21A46FB68134086
:103D0400FB607B69002B05D0FB68002B02D00123EC
:103D1400FB7401E00023FB74FB7C18461837BD4696
:103D240080BD00BF00100140004400400048004036
:103D3400004C00400050004000140140984100082D
:103D440080B584B000AF78600B467B800023FB8194
:103D54000023BB817B682F4A934218D07B682E4A8C
:103D6400934214D07B682D4A934210D07B682C4A2E
:103D740093420CD07B682B4A934208D07B682A4A32
:103D8400934204D029484FF4B461FCF7ADFA7B8820
:103D940040F22662934213D07B8840F2255293422C
:103DA4000ED07B8840F64602934209D07B8840F6C9
:103DB4006A12934204D01D4840F2A151FCF794FAD0
:103DC4007B8840F66A12934214D17B68114A93426D
:103DD40010D07B68104A93420CD07B680F4A934200
:103DE40008D07B68104A934204D0104840F2A65190
:103DF400FCF77AFA7B881B0AFB81FB89012202FA11
:103E040003F3BB81BB89DB439AB27B681A8010370A
:103E1400BD4680BD00100140004400400048004001
:103E2400004C00400050004000140140984100083C
:103E3400E44100080000002054040020580400203D
:103E440088040020002103E00B4B5B5843500431ED
:103E54000A480B4B42189A42F6D30A4A02E000235E
:103E640042F8043B084B9A42F9D3FCF719FB00F0E3
:103E74001FF8FCF7A5FA7047E44100080000002091
:103E8400540400205804002088040020FEE70000A9
:103E940008B50021044600F08BF8044B1868C36B86
:103EA40003B19847204600F091F900BFB0410008E3
:103EB40070B50F4E0F4D761BB61018BF002405D0F9
:103EC400013455F8043B9847A642F9D10A4E0B4DEC
:103ED40000F070F9761BB61018BF002406D0013428
:103EE40055F8043B9847A642F9D170BD70BD00BF98
:103EF400D8410008D8410008E0410008D841000832
:103F040070B4840746D0541E002A41D0CDB2034673
:103F140002E0621EE4B3144603F8015B9A07F8D189
:103F2400032C2ED9CDB245EA05250F2C45EA0545CB
:103F340019D9264603F11002103E0F2E42F8105CE8
:103F440042F80C5C42F8085C42F8045C02F110028E
:103F5400F2D8A4F1100222F00F0204F00F04103280
:103F6400032C13440DD91E462246043A032A46F86C
:103F7400045BFAD8221F22F003020432134404F033
:103F840003042CB1C9B21C4403F8011BA342FBD1A6
:103F940070BC704714460346C2E700BF024B13B11E
:103FA400024800F06FB87047000000009540000818
:103FB4002DE9F04F81460E46304B83B01B680093C9
:103FC40003F5A4730193009BD3F8487127B3DDF87C
:103FD40004A07C68651E0ED4013407EB84044FF002
:103FE4000008E6B1D4F80031B34218D0013D6B1C8F
:103FF400A4F10404F5D1224B73B17B68002B36D1B4
:104004003B68002B34D03846CAF80030AFF3008048
:10401400DAF80070002FDCD103B0BDE8F08F7B68C4
:104024002268013BAB420CBF7D60C4F80080002ACB
:10403400DCD0D7F888310121A9401942D7F804B05F
:1040440008D190477B685B45BDD1DAF80030BB42AC
:10405400CCD0B8E7D7F88C31194204D14846D4F80B
:1040640080109047EEE7D4F880009047EAE73B6879
:10407400BA461F46002FACD1CEE700BFB0410008BE
:1040840000000000014600200246034600F016B876
:1040940038B5084B084DED1AAC1018BFED1805D013
:1040A400013C55F8043D9847002CF9D1BDE838404F
:1040B40000F086B8E0410008E44100082DE9F0472B
:1040C400254C064625688846D5F8484192469946C7
:1040D400C4B360681F2817DC411C76B104EB80036D
:1040E400C3F888A0D4F88851012282401543022ED7
:1040F400C4F88851C3F808911ED0831C6160002065
:1041040044F82380BDE8F087144B03B34FF4C87020
:10411400AFF300800446D0B1D5F84831002784E8D5
:1041240088003846C5F848410121C4F88871C4F8AC
:104134008C71002EE1D0D1E7D4F88C311A43C4F845
:104144008C21DAE705F5A674C5F84841C1E74FF0BC
:10415400FF30BDE8F08700BFB04100080000000058
:1041640074657374696E6720313233340D0A00004C
:1041740073746D3332663278785F6770696F2E635B
:104184000000000073746D3332663278785F7263B6
:10419400632E630073746D3332663278785F75739F
:1041A4006172742E630000004300000028000020A8
:1041B40000000000F8B500BFF8BC08BC9E4670477C
:0C41C400F8B500BFF8BC08BC9E46704770
:0841D00010C0FF7F0100000098
:0841D800A13F0008A901000845
:0441E000850100084D
:1041E40000000000000E270700000000000000008F
:1041F4000102030406070809000000000102030489
:10420400010203040607080900000000140300204B
:104214007C030020E40300200000000000000000F4
:10422400000000000000000000000000000000008A
:10423400000000000000000000000000AC41000885
:10424400000000000000000000000000000000006A
:10425400000000000000000000000000000000005A
:10426400000000000000000000000000000000004A
:10427400000000000000000000000000000000003A
:10428400000000000000000000000000000000002A
:10429400000000000000000000000000000000001A
:1042A400000000000000000000000000000000000A
:1042B40001000000000000000E33CDAB34126DE6A7
:1042C400ECDE05000B000000000000000000000010
:1042D40000000000000000000000000000000000DA
:1042E40000000000000000000000000000000000CA
:1042F40000000000000000000000000000000000BA
:1043040000000000000000000000000000000000A9
:04463400280000203A
:04463800000000007E
:0400000508003E4968
:00000001FF
